:020000040800F2
:1000000000500020D90C00086D020008750200089D
:1000100077020008790200087B0200080000000057
:100020000000000000000000000000007D02000849
:100030007F0200080000000081020008830200081F
:10004000210D0008210D0008210D0008210D0008D8
:10005000210D0008210D0008210D0008210D0008C8
:10006000210D0008210D0008210D0008210D0008B8
:10007000210D0008210D0008210D0008210D0008A8
:10008000210D0008210D0008210D0008210D000898
:10009000210D0008210D0008210D0008210D000888
:1000A000210D0008210D0008210D0008210D000878
:1000B000210D0008210D0008210D0008210D000868
:1000C000210D0008210D0008210D0008210D000858
:1000D000210D0008210D0008210D0008210D000848
:1000E000210D0008210D0008210D0008000000006E
:1000F0000000000000000000000000000000000000
:0C01000000000000000000005FF808F1A3
:10010C0010B5054C237833B9044B13B10448AFF345
:10011C0000800123237010BD0C00002000000000A3
:10012C007C0D000808B5034B1BB103490348AFF322
:10013C00008008BD00000000100000207C0D0008AD
:10014C0072B6FEE700B591B02822002106A800F097
:10015C0007FE00230193029303930493059301225A
:10016C0006924FF4803307930A9202220D920E935B
:10017C004FF4E0130F9306A800F018F990B90F2371
:10018C00019302210291002303934FF480620492A5
:10019C00059301A800F050FB30B900F00FFB11B033
:1001AC005DF804FBFFF7CCFFFFF7CAFF08B500F0C2
:1001BC00AFF8FFF7C7FF00F017F80A4C4FF40051E7
:1001CC00204600F019FD4FF4FA7000F0C5F84FF41A
:1001DC000051204600F010FD4FF4FA7000F0BCF80E
:1001EC00EBE700BF0010014030B589B00024049447
:1001FC00059406940794184B9A6942F010029A6180
:10020C009A6902F010020192019A9A6942F0200256
:10021C009A619A6902F020020292029A9A6942F05B
:10022C0004029A619B6903F004030393039B0B4D37
:10023C0001224FF40051284600F0D8FC4FF4005333
:10024C0004930123059306940323079304A92846DA
:10025C0000F0BAFB09B030BD0010024000100140A4
:10026C0008B500F0A1FBFEE7FEE7FEE7FEE7FEE7C0
:10027C0070477047704708B500F05CF808BD000087
:10028C0082B00E4B9A6942F001029A619A6902F0AF
:10029C0001020092009ADA6942F08052DA61DB695D
:1002AC0003F080530193019B054A536823F0E063EC
:1002BC0043F00073536002B0704700BF001002405F
:1002CC000000014010B504460E4B18784FF47A73B9
:1002DC00B3FBF0F30C4A1068B0FBF3F000F0E0FC59
:1002EC0068B90F2C01D901200AE0002221464FF0F9
:1002FC00FF3000F09DFC054B1C60002000E001204D
:10030C0010BD00BF000000200800002004000020E9
:10031C0008B5074A136843F010031360032000F07C
:10032C0075FC0F20FFF7CEFFFFF7AAFF002008BDDA
:10033C0000200240034A1168034B1B780B441360E6
:10034C00704700BF2800002000000020014B1868F7
:10035C00704700BF2800002038B50446FFF7F6FFB1
:10036C000546B4F1FF3F02D0044B1B781C44FFF749
:10037C00EDFF401BA042FAD338BD00BF00000020A7
:10038C0082B0084B1B68084AA2FB03235B0A00FBE4
:10039C0003F3019300BF019B5A1E0192002BF9D16C
:1003AC0002B0704708000020D34D6210002800F006
:1003BC00F18170B582B00446036813F0010F2CD0A4
:1003CC00994B5B6803F00C03042B1DD0964B5B68B8
:1003DC0003F00C03082B12D06368B3F5803F41D0B7
:1003EC00002B55D103F1804303F504331A6822F432
:1003FC0080321A601A6822F480221A6037E08A4B25
:10040C005B6813F4803FE7D0874B1B6813F4003F05
:10041C0003D06368002B00F0BF81236813F0020F38
:10042C0075D0814B5B6813F00C0F5FD07E4B5B6813
:10043C0003F00C03082B54D02369002B00F08A80A6
:10044C007A4B01221A60FFF781FF0546764B1B6839
:10045C0013F0020F75D1FFF779FF401B0228F5D975
:10046C0003209EE1704A136843F480331360636881
:10047C0043B3FFF76BFF05466B4B1B6813F4003F50
:10048C00CBD1FFF763FF401B6428F5D9032088E12B
:10049C00B3F5A02F09D0644B1A6822F480321A608D
:1004AC001A6822F480221A60E1E703F18043A3F575
:1004BC003C331A6842F480221A601A6842F4803283
:1004CC001A60D4E7FFF742FF0546574B1B6813F43D
:1004DC00003FA2D0FFF73AFF401B6428F5D9032058
:1004EC005FE1514B5B6813F4803FA5D14E4B1B6809
:1004FC0013F0020F03D02369012B40F04F814A4ABD
:10050C00136823F0F803616943EAC103136023689D
:10051C0013F0080F33D0A369002B5CD0434B01229E
:10052C00C3F88024FFF712FF05463F4B5B6A13F0BC
:10053C00020F21D1FFF70AFF401B0228F5D9032037
:10054C002FE1394A136823F0F803616943EAC103C8
:10055C001360DCE7354B00221A60FFF7F7FE054607
:10056C00314B1B6813F0020FD1D0FFF7EFFE401B8D
:10057C000228F5D9032014E10120FFF701FF2368BD
:10058C0013F0040F00F09680274BDB6913F0805FAB
:10059C0034D1254BDA6942F08052DA61DB6903F021
:1005AC0080530193019B0125214B1B6813F4807F21
:1005BC0026D0E368012B3DD0002B53D103F18043AF
:1005CC0003F504331A6A22F001021A621A6A22F045
:1005DC0004021A6233E0154B0022C3F88024FFF7A3
:1005EC00B5FE0546104B5B6A13F0020FC7D0FFF740
:1005FC00ADFE401B0228F5D90320D2E00025D3E73D
:10060C000B4A136843F480731360FFF79FFE064692
:10061C00074B1B6813F4807FCBD1FFF797FE801B31
:10062C006428F5D90320BCE00010024000004242CF
:10063C00007000405F4A136A43F001031362E368E1
:10064C0033B3FFF783FE06465A4B1B6A13F0020FB7
:10065C002FD1FFF77BFE801B41F288339842F3D9F0
:10066C0003209EE0052B09D0524B1A6A22F001029E
:10067C001A621A6A22F004021A62E0E74D4B1A6AF7
:10068C0042F004021A621A6A42F001021A62D6E7B8
:10069C00FFF75CFE0646474B1B6A13F0020F08D0AF
:1006AC00FFF754FE801B41F288339842F3D90320A4
:1006BC0077E0E5B9E369002B72D03E4A526802F04C
:1006CC000C02082A56D0022B17D03B4B00221A667C
:1006DC00FFF73CFE0446374B1B6813F0007F47D0F6
:1006EC00FFF734FE001B0228F5D9032059E0314AEC
:1006FC00D36923F08053D361DCE72F4B00221A66B9
:10070C00FFF724FE05462B4B1B6813F0007F06D029
:10071C00FFF71CFE401B0228F5D9032041E0236A99
:10072C00B3F5803F1AD023494B6823F47413226A23
:10073C00606A024313434B601F4B01221A66FFF79A
:10074C0005FE04461B4B1B6813F0007F0ED1FFF710
:10075C00FDFD001B0228F5D9032022E0154A536841
:10076C0023F40033A1680B435360DCE7002018E04E
:10077C00002016E0012B16D00E4B5B6803F4803181
:10078C00226A914211D103F47013626A93420ED122
:10079C00002006E001207047012002E0012000E06B
:1007AC00002002B070BD0120FBE70120F9E7012019
:1007BC00F7E700BF0010024000004242014B01224B
:1007CC00DA6470470000424286B0174B0FCB0DF134
:1007DC00180C0CE90F0040F20123ADF80430134B58
:1007EC005B6803F00C02082A02D0114806B070476F
:1007FC00C3F3834218326A4412F8100C13F4803F8E
:10080C000DD00A4B5B68C3F3404318336B4413F8A9
:10081C00143C074A02FB00F0B0FBF3F0E6E7054B93
:10082C0003FB00F0E2E700BF940D0008001002404B
:10083C0000127A0000093D00002800F0A08070B57D
:10084C000D460446524B1B6803F007038B420BD238
:10085C004F4A136823F007030B431360136803F02C
:10086C0007038B4240F08D80236813F0020F17D0E2
:10087C0013F0040F04D0474A536843F4E063536009
:10088C00236813F0080F04D0424A536843F46053B2
:10089C005360404A536823F0F003A1680B43536044
:1008AC00236813F0010F31D06368012B20D0022B89
:1008BC0025D0384A126812F0020F64D035494A68C4
:1008CC0022F0030213434B60FFF740FD0646314B09
:1008DC005B6803F00C036268B3EB820F16D0FFF772
:1008EC0035FD801B41F288339842F0D9032045E056
:1008FC00284A126812F4003FE0D101203EE0254A5C
:10090C00126812F0007FD9D1012037E0204B1B6810
:10091C0003F00703AB420AD91D4A136823F00703FF
:10092C002B431360136803F00703AB422DD12368EC
:10093C0013F0040F06D0174A536823F4E063E16800
:10094C000B435360236813F0080F07D0114A536808
:10095C0023F46053216943EAC1035360FFF734FF6A
:10096C000C4B5B68C3F303130B4AD35CD8400B4BA3
:10097C0018600B4B1868FFF7A5FC002070BD012018
:10098C0070470120FAE70120F8E70120F6E700BFE5
:10099C000020024000100240A80D000808000020B2
:1009AC00040000207047000008B5064B9B6813F04C
:1009BC00800F00D108BDFFF7F5FF024B80229A7221
:1009CC00F8E700BF0010024070B582B00024A446C6
:1009DC00A6E0804DAA4210D007D97F4DAA420CD078
:1009EC0005F58035AA4208D013E0A5F58015AA427A
:1009FC0003D005F57025AA4207D18A68002A58D081
:100A0C00012A51D04361082403E0A5F58015AA42C0
:100A1C00F3D0BEF1FF0F4ED80646BEF1FF0F4CD8F7
:100A2C004FEA8C0233680F25954023EA050304FA3C
:100A3C0002F2134333604B6813F0805F6ED0674B48
:100A4C009A6942F001029A619B6903F001030193D8
:100A5C00019B4FEA9C02951C614B53F825600CF0EE
:100A6C0003039D000F23AB4026EA03065D4B98421F
:100A7C0029D003F58063984200F08E8003F58063E3
:100A8C00984200F08B8003F58063984219D00423C0
:100A9C001AE0CC68BDE7CC680434BAE7CC680834FB
:100AAC00B7E7CC680C34B4E703610824B1E7002441
:100ABC00AFE70424ADE7061DAFE7ACF108029200E6
:100ACC00B0E7032300E00023AB4033430232444D34
:100ADC0045F822304B6813F4803F61D0424A1368CA
:100AEC0043EA0E0313604B6813F4003F5ED03E4A9A
:100AFC00536843EA0E0353604B6813F4801F5BD0BA
:100B0C00394A936843EA0E0393604B6813F4001F51
:100B1C0058D0354AD36843EA0E03D3600CF1010C6C
:100B2C000A6832FA0CF353D0012303FA0CF302EAED
:100B3C00030E33EA0202F1D14A68122A3FF649AF9A
:100B4C00122A3FF666AF01A555F822F0070A0008F5
:100B5C009F0A0008A90A0008BB0A00081F0A00081F
:100B6C001F0A00081F0A00081F0A00081F0A0008B5
:100B7C001F0A00081F0A00081F0A00081F0A0008A5
:100B8C001F0A00081F0A00081F0A00081F0A000895
:100B9C00A30A0008AF0A0008012395E7022393E794
:100BAC00114A136823EA0E0313609CE70E4A53683C
:100BBC0023EA0E0353609FE70B4A936823EA0E0364
:100BCC009360A2E7084AD36823EA0E03D360A5E733
:100BDC0002B070BD00002210000031100010024065
:100BEC000000014000080140000401400AB101610D
:100BFC007047090401617047C36801EA030221EAE6
:100C0C00030141EA0241016170470000074AD368C1
:100C1C0023F4E0631B041B0C000200F4E0600343AC
:100C2C0043F0BF6343F40033D360704700ED00E042
:100C3C0000B5194BDB68C3F30223C3F1070CBCF1FD
:100C4C00040F28BF4FF0040C03F1040EBEF1060F85
:100C5C0018D9033B4FF0FF3E0EFA0CFC21EA0C01B5
:100C6C0099400EFA03F322EA0303194300280BDB25
:100C7C000901C9B200F1604000F5614080F8001331
:100C8C005DF804FB0023E5E700F00F000901C9B291
:100C9C00024B1954F4E700BF00ED00E014ED00E046
:100CAC000138B0F1807F0BD24FF0E0235861054A38
:100CBC00F02182F823100020986107221A617047F6
:100CCC000120704700ED00E0704700000C480D4912
:100CDC000D4A002302E0D458C4500433C4188C428B
:100CEC00F9D30A4A0A4C002301E013600432A242F1
:100CFC00FBD3FFF7E9FF00F00FF8FFF757FA704747
:100D0C00000000200C000020C00D00080C0000208A
:100D1C002C000020FEE7000070B500260C4D0D4C99
:100D2C00641BA410A64209D100F022F800260A4D3B
:100D3C000A4C641BA410A64205D170BD55F8043BA7
:100D4C0098470136EEE755F8043B98470136F2E731
:100D5C00B80D0008B80D0008B80D0008BC0D00084F
:100D6C0003460244934200D1704703F8011BF9E794
:100D7C00F8B500BFF8BC08BC9E467047F8B500BF7C
:080D8C00F8BC08BC9E4670474C
:100D940002030405060708090A0B0C0D0E0F1010B8
:100DA4000000000000000000000000000102030435
:040DB400060708091D
:040DB80031010008FD
:040DBC000D0100081D
:0C0DC00001000000100000000024F400FE
:0400000508000CD90A
:00000001FF
