ARM GAS  C:\Users\shado\AppData\Local\Temp\ccoIiB4i.s 			page 1


   1              		.cpu cortex-m3
   2              		.eabi_attribute 20, 1
   3              		.eabi_attribute 21, 1
   4              		.eabi_attribute 23, 3
   5              		.eabi_attribute 24, 1
   6              		.eabi_attribute 25, 1
   7              		.eabi_attribute 26, 1
   8              		.eabi_attribute 30, 1
   9              		.eabi_attribute 34, 1
  10              		.eabi_attribute 18, 4
  11              		.file	"stm32f1xx_hal_rcc.c"
  12              		.text
  13              	.Ltext0:
  14              		.cfi_sections	.debug_frame
  15              		.section	.text.RCC_Delay,"ax",%progbits
  16              		.align	1
  17              		.arch armv7-m
  18              		.syntax unified
  19              		.thumb
  20              		.thumb_func
  21              		.fpu softvfp
  23              	RCC_Delay:
  24              	.LVL0:
  25              	.LFB78:
  26              		.file 1 "Drivers/STM32F1xx_HAL_Driver/Src/stm32f1xx_hal_rcc.c"
   1:Drivers/STM32F1xx_HAL_Driver/Src/stm32f1xx_hal_rcc.c **** /**
   2:Drivers/STM32F1xx_HAL_Driver/Src/stm32f1xx_hal_rcc.c ****   ******************************************************************************
   3:Drivers/STM32F1xx_HAL_Driver/Src/stm32f1xx_hal_rcc.c ****   * @file    stm32f1xx_hal_rcc.c
   4:Drivers/STM32F1xx_HAL_Driver/Src/stm32f1xx_hal_rcc.c ****   * @author  MCD Application Team
   5:Drivers/STM32F1xx_HAL_Driver/Src/stm32f1xx_hal_rcc.c ****   * @brief   RCC HAL module driver.
   6:Drivers/STM32F1xx_HAL_Driver/Src/stm32f1xx_hal_rcc.c ****   *          This file provides firmware functions to manage the following
   7:Drivers/STM32F1xx_HAL_Driver/Src/stm32f1xx_hal_rcc.c ****   *          functionalities of the Reset and Clock Control (RCC) peripheral:
   8:Drivers/STM32F1xx_HAL_Driver/Src/stm32f1xx_hal_rcc.c ****   *           + Initialization and de-initialization functions
   9:Drivers/STM32F1xx_HAL_Driver/Src/stm32f1xx_hal_rcc.c ****   *           + Peripheral Control functions
  10:Drivers/STM32F1xx_HAL_Driver/Src/stm32f1xx_hal_rcc.c ****   *
  11:Drivers/STM32F1xx_HAL_Driver/Src/stm32f1xx_hal_rcc.c ****   @verbatim
  12:Drivers/STM32F1xx_HAL_Driver/Src/stm32f1xx_hal_rcc.c ****   ==============================================================================
  13:Drivers/STM32F1xx_HAL_Driver/Src/stm32f1xx_hal_rcc.c ****                       ##### RCC specific features #####
  14:Drivers/STM32F1xx_HAL_Driver/Src/stm32f1xx_hal_rcc.c ****   ==============================================================================
  15:Drivers/STM32F1xx_HAL_Driver/Src/stm32f1xx_hal_rcc.c ****     [..]
  16:Drivers/STM32F1xx_HAL_Driver/Src/stm32f1xx_hal_rcc.c ****       After reset the device is running from Internal High Speed oscillator
  17:Drivers/STM32F1xx_HAL_Driver/Src/stm32f1xx_hal_rcc.c ****       (HSI 8MHz) with Flash 0 wait state, Flash prefetch buffer is enabled,
  18:Drivers/STM32F1xx_HAL_Driver/Src/stm32f1xx_hal_rcc.c ****       and all peripherals are off except internal SRAM, Flash and JTAG.
  19:Drivers/STM32F1xx_HAL_Driver/Src/stm32f1xx_hal_rcc.c ****       (+) There is no prescaler on High speed (AHB) and Low speed (APB) buses;
  20:Drivers/STM32F1xx_HAL_Driver/Src/stm32f1xx_hal_rcc.c ****           all peripherals mapped on these buses are running at HSI speed.
  21:Drivers/STM32F1xx_HAL_Driver/Src/stm32f1xx_hal_rcc.c ****       (+) The clock for all peripherals is switched off, except the SRAM and FLASH.
  22:Drivers/STM32F1xx_HAL_Driver/Src/stm32f1xx_hal_rcc.c ****       (+) All GPIOs are in input floating state, except the JTAG pins which
  23:Drivers/STM32F1xx_HAL_Driver/Src/stm32f1xx_hal_rcc.c ****           are assigned to be used for debug purpose.
  24:Drivers/STM32F1xx_HAL_Driver/Src/stm32f1xx_hal_rcc.c ****     [..] Once the device started from reset, the user application has to:
  25:Drivers/STM32F1xx_HAL_Driver/Src/stm32f1xx_hal_rcc.c ****       (+) Configure the clock source to be used to drive the System clock
  26:Drivers/STM32F1xx_HAL_Driver/Src/stm32f1xx_hal_rcc.c ****           (if the application needs higher frequency/performance)
  27:Drivers/STM32F1xx_HAL_Driver/Src/stm32f1xx_hal_rcc.c ****       (+) Configure the System clock frequency and Flash settings
  28:Drivers/STM32F1xx_HAL_Driver/Src/stm32f1xx_hal_rcc.c ****       (+) Configure the AHB and APB buses prescalers
  29:Drivers/STM32F1xx_HAL_Driver/Src/stm32f1xx_hal_rcc.c ****       (+) Enable the clock for the peripheral(s) to be used
  30:Drivers/STM32F1xx_HAL_Driver/Src/stm32f1xx_hal_rcc.c ****       (+) Configure the clock source(s) for peripherals whose clocks are not
  31:Drivers/STM32F1xx_HAL_Driver/Src/stm32f1xx_hal_rcc.c ****           derived from the System clock (I2S, RTC, ADC, USB OTG FS)
  32:Drivers/STM32F1xx_HAL_Driver/Src/stm32f1xx_hal_rcc.c **** 
ARM GAS  C:\Users\shado\AppData\Local\Temp\ccoIiB4i.s 			page 2


  33:Drivers/STM32F1xx_HAL_Driver/Src/stm32f1xx_hal_rcc.c ****                       ##### RCC Limitations #####
  34:Drivers/STM32F1xx_HAL_Driver/Src/stm32f1xx_hal_rcc.c ****   ==============================================================================
  35:Drivers/STM32F1xx_HAL_Driver/Src/stm32f1xx_hal_rcc.c ****     [..]
  36:Drivers/STM32F1xx_HAL_Driver/Src/stm32f1xx_hal_rcc.c ****       A delay between an RCC peripheral clock enable and the effective peripheral
  37:Drivers/STM32F1xx_HAL_Driver/Src/stm32f1xx_hal_rcc.c ****       enabling should be taken into account in order to manage the peripheral read/write
  38:Drivers/STM32F1xx_HAL_Driver/Src/stm32f1xx_hal_rcc.c ****       from/to registers.
  39:Drivers/STM32F1xx_HAL_Driver/Src/stm32f1xx_hal_rcc.c ****       (+) This delay depends on the peripheral mapping.
  40:Drivers/STM32F1xx_HAL_Driver/Src/stm32f1xx_hal_rcc.c ****         (++) AHB & APB peripherals, 1 dummy read is necessary
  41:Drivers/STM32F1xx_HAL_Driver/Src/stm32f1xx_hal_rcc.c **** 
  42:Drivers/STM32F1xx_HAL_Driver/Src/stm32f1xx_hal_rcc.c ****     [..]
  43:Drivers/STM32F1xx_HAL_Driver/Src/stm32f1xx_hal_rcc.c ****       Workarounds:
  44:Drivers/STM32F1xx_HAL_Driver/Src/stm32f1xx_hal_rcc.c ****       (#) For AHB & APB peripherals, a dummy read to the peripheral register has been
  45:Drivers/STM32F1xx_HAL_Driver/Src/stm32f1xx_hal_rcc.c ****           inserted in each __HAL_RCC_PPP_CLK_ENABLE() macro.
  46:Drivers/STM32F1xx_HAL_Driver/Src/stm32f1xx_hal_rcc.c **** 
  47:Drivers/STM32F1xx_HAL_Driver/Src/stm32f1xx_hal_rcc.c ****   @endverbatim
  48:Drivers/STM32F1xx_HAL_Driver/Src/stm32f1xx_hal_rcc.c ****   ******************************************************************************
  49:Drivers/STM32F1xx_HAL_Driver/Src/stm32f1xx_hal_rcc.c ****   * @attention
  50:Drivers/STM32F1xx_HAL_Driver/Src/stm32f1xx_hal_rcc.c ****   *
  51:Drivers/STM32F1xx_HAL_Driver/Src/stm32f1xx_hal_rcc.c ****   * <h2><center>&copy; Copyright (c) 2016 STMicroelectronics.
  52:Drivers/STM32F1xx_HAL_Driver/Src/stm32f1xx_hal_rcc.c ****   * All rights reserved.</center></h2>
  53:Drivers/STM32F1xx_HAL_Driver/Src/stm32f1xx_hal_rcc.c ****   *
  54:Drivers/STM32F1xx_HAL_Driver/Src/stm32f1xx_hal_rcc.c ****   * This software component is licensed by ST under BSD 3-Clause license,
  55:Drivers/STM32F1xx_HAL_Driver/Src/stm32f1xx_hal_rcc.c ****   * the "License"; You may not use this file except in compliance with the
  56:Drivers/STM32F1xx_HAL_Driver/Src/stm32f1xx_hal_rcc.c ****   * License. You may obtain a copy of the License at:
  57:Drivers/STM32F1xx_HAL_Driver/Src/stm32f1xx_hal_rcc.c ****   *                        opensource.org/licenses/BSD-3-Clause
  58:Drivers/STM32F1xx_HAL_Driver/Src/stm32f1xx_hal_rcc.c ****   *
  59:Drivers/STM32F1xx_HAL_Driver/Src/stm32f1xx_hal_rcc.c ****   ******************************************************************************
  60:Drivers/STM32F1xx_HAL_Driver/Src/stm32f1xx_hal_rcc.c ****   */
  61:Drivers/STM32F1xx_HAL_Driver/Src/stm32f1xx_hal_rcc.c **** 
  62:Drivers/STM32F1xx_HAL_Driver/Src/stm32f1xx_hal_rcc.c **** /* Includes ------------------------------------------------------------------*/
  63:Drivers/STM32F1xx_HAL_Driver/Src/stm32f1xx_hal_rcc.c **** #include "stm32f1xx_hal.h"
  64:Drivers/STM32F1xx_HAL_Driver/Src/stm32f1xx_hal_rcc.c **** 
  65:Drivers/STM32F1xx_HAL_Driver/Src/stm32f1xx_hal_rcc.c **** /** @addtogroup STM32F1xx_HAL_Driver
  66:Drivers/STM32F1xx_HAL_Driver/Src/stm32f1xx_hal_rcc.c ****   * @{
  67:Drivers/STM32F1xx_HAL_Driver/Src/stm32f1xx_hal_rcc.c ****   */
  68:Drivers/STM32F1xx_HAL_Driver/Src/stm32f1xx_hal_rcc.c **** 
  69:Drivers/STM32F1xx_HAL_Driver/Src/stm32f1xx_hal_rcc.c **** /** @defgroup RCC RCC
  70:Drivers/STM32F1xx_HAL_Driver/Src/stm32f1xx_hal_rcc.c **** * @brief RCC HAL module driver
  71:Drivers/STM32F1xx_HAL_Driver/Src/stm32f1xx_hal_rcc.c ****   * @{
  72:Drivers/STM32F1xx_HAL_Driver/Src/stm32f1xx_hal_rcc.c ****   */
  73:Drivers/STM32F1xx_HAL_Driver/Src/stm32f1xx_hal_rcc.c **** 
  74:Drivers/STM32F1xx_HAL_Driver/Src/stm32f1xx_hal_rcc.c **** #ifdef HAL_RCC_MODULE_ENABLED
  75:Drivers/STM32F1xx_HAL_Driver/Src/stm32f1xx_hal_rcc.c **** 
  76:Drivers/STM32F1xx_HAL_Driver/Src/stm32f1xx_hal_rcc.c **** /* Private typedef -----------------------------------------------------------*/
  77:Drivers/STM32F1xx_HAL_Driver/Src/stm32f1xx_hal_rcc.c **** /* Private define ------------------------------------------------------------*/
  78:Drivers/STM32F1xx_HAL_Driver/Src/stm32f1xx_hal_rcc.c **** /** @defgroup RCC_Private_Constants RCC Private Constants
  79:Drivers/STM32F1xx_HAL_Driver/Src/stm32f1xx_hal_rcc.c ****  * @{
  80:Drivers/STM32F1xx_HAL_Driver/Src/stm32f1xx_hal_rcc.c ****  */
  81:Drivers/STM32F1xx_HAL_Driver/Src/stm32f1xx_hal_rcc.c **** /**
  82:Drivers/STM32F1xx_HAL_Driver/Src/stm32f1xx_hal_rcc.c ****   * @}
  83:Drivers/STM32F1xx_HAL_Driver/Src/stm32f1xx_hal_rcc.c ****   */
  84:Drivers/STM32F1xx_HAL_Driver/Src/stm32f1xx_hal_rcc.c **** /* Private macro -------------------------------------------------------------*/
  85:Drivers/STM32F1xx_HAL_Driver/Src/stm32f1xx_hal_rcc.c **** /** @defgroup RCC_Private_Macros RCC Private Macros
  86:Drivers/STM32F1xx_HAL_Driver/Src/stm32f1xx_hal_rcc.c ****   * @{
  87:Drivers/STM32F1xx_HAL_Driver/Src/stm32f1xx_hal_rcc.c ****   */
  88:Drivers/STM32F1xx_HAL_Driver/Src/stm32f1xx_hal_rcc.c **** 
  89:Drivers/STM32F1xx_HAL_Driver/Src/stm32f1xx_hal_rcc.c **** #define MCO1_CLK_ENABLE()     __HAL_RCC_GPIOA_CLK_ENABLE()
ARM GAS  C:\Users\shado\AppData\Local\Temp\ccoIiB4i.s 			page 3


  90:Drivers/STM32F1xx_HAL_Driver/Src/stm32f1xx_hal_rcc.c **** #define MCO1_GPIO_PORT        GPIOA
  91:Drivers/STM32F1xx_HAL_Driver/Src/stm32f1xx_hal_rcc.c **** #define MCO1_PIN              GPIO_PIN_8
  92:Drivers/STM32F1xx_HAL_Driver/Src/stm32f1xx_hal_rcc.c **** 
  93:Drivers/STM32F1xx_HAL_Driver/Src/stm32f1xx_hal_rcc.c **** /**
  94:Drivers/STM32F1xx_HAL_Driver/Src/stm32f1xx_hal_rcc.c ****   * @}
  95:Drivers/STM32F1xx_HAL_Driver/Src/stm32f1xx_hal_rcc.c ****   */
  96:Drivers/STM32F1xx_HAL_Driver/Src/stm32f1xx_hal_rcc.c **** 
  97:Drivers/STM32F1xx_HAL_Driver/Src/stm32f1xx_hal_rcc.c **** /* Private variables ---------------------------------------------------------*/
  98:Drivers/STM32F1xx_HAL_Driver/Src/stm32f1xx_hal_rcc.c **** /** @defgroup RCC_Private_Variables RCC Private Variables
  99:Drivers/STM32F1xx_HAL_Driver/Src/stm32f1xx_hal_rcc.c ****   * @{
 100:Drivers/STM32F1xx_HAL_Driver/Src/stm32f1xx_hal_rcc.c ****   */
 101:Drivers/STM32F1xx_HAL_Driver/Src/stm32f1xx_hal_rcc.c **** /**
 102:Drivers/STM32F1xx_HAL_Driver/Src/stm32f1xx_hal_rcc.c ****   * @}
 103:Drivers/STM32F1xx_HAL_Driver/Src/stm32f1xx_hal_rcc.c ****   */
 104:Drivers/STM32F1xx_HAL_Driver/Src/stm32f1xx_hal_rcc.c **** 
 105:Drivers/STM32F1xx_HAL_Driver/Src/stm32f1xx_hal_rcc.c **** /* Private function prototypes -----------------------------------------------*/
 106:Drivers/STM32F1xx_HAL_Driver/Src/stm32f1xx_hal_rcc.c **** static void RCC_Delay(uint32_t mdelay);
 107:Drivers/STM32F1xx_HAL_Driver/Src/stm32f1xx_hal_rcc.c **** 
 108:Drivers/STM32F1xx_HAL_Driver/Src/stm32f1xx_hal_rcc.c **** /* Exported functions --------------------------------------------------------*/
 109:Drivers/STM32F1xx_HAL_Driver/Src/stm32f1xx_hal_rcc.c **** 
 110:Drivers/STM32F1xx_HAL_Driver/Src/stm32f1xx_hal_rcc.c **** /** @defgroup RCC_Exported_Functions RCC Exported Functions
 111:Drivers/STM32F1xx_HAL_Driver/Src/stm32f1xx_hal_rcc.c ****   * @{
 112:Drivers/STM32F1xx_HAL_Driver/Src/stm32f1xx_hal_rcc.c ****   */
 113:Drivers/STM32F1xx_HAL_Driver/Src/stm32f1xx_hal_rcc.c **** 
 114:Drivers/STM32F1xx_HAL_Driver/Src/stm32f1xx_hal_rcc.c **** /** @defgroup RCC_Exported_Functions_Group1 Initialization and de-initialization functions
 115:Drivers/STM32F1xx_HAL_Driver/Src/stm32f1xx_hal_rcc.c ****   *  @brief    Initialization and Configuration functions
 116:Drivers/STM32F1xx_HAL_Driver/Src/stm32f1xx_hal_rcc.c ****   *
 117:Drivers/STM32F1xx_HAL_Driver/Src/stm32f1xx_hal_rcc.c ****   @verbatim
 118:Drivers/STM32F1xx_HAL_Driver/Src/stm32f1xx_hal_rcc.c ****   ===============================================================================
 119:Drivers/STM32F1xx_HAL_Driver/Src/stm32f1xx_hal_rcc.c ****            ##### Initialization and de-initialization functions #####
 120:Drivers/STM32F1xx_HAL_Driver/Src/stm32f1xx_hal_rcc.c ****   ===============================================================================
 121:Drivers/STM32F1xx_HAL_Driver/Src/stm32f1xx_hal_rcc.c ****     [..]
 122:Drivers/STM32F1xx_HAL_Driver/Src/stm32f1xx_hal_rcc.c ****       This section provides functions allowing to configure the internal/external oscillators
 123:Drivers/STM32F1xx_HAL_Driver/Src/stm32f1xx_hal_rcc.c ****       (HSE, HSI, LSE, LSI, PLL, CSS and MCO) and the System buses clocks (SYSCLK, AHB, APB1
 124:Drivers/STM32F1xx_HAL_Driver/Src/stm32f1xx_hal_rcc.c ****       and APB2).
 125:Drivers/STM32F1xx_HAL_Driver/Src/stm32f1xx_hal_rcc.c **** 
 126:Drivers/STM32F1xx_HAL_Driver/Src/stm32f1xx_hal_rcc.c ****     [..] Internal/external clock and PLL configuration
 127:Drivers/STM32F1xx_HAL_Driver/Src/stm32f1xx_hal_rcc.c ****       (#) HSI (high-speed internal), 8 MHz factory-trimmed RC used directly or through
 128:Drivers/STM32F1xx_HAL_Driver/Src/stm32f1xx_hal_rcc.c ****           the PLL as System clock source.
 129:Drivers/STM32F1xx_HAL_Driver/Src/stm32f1xx_hal_rcc.c ****       (#) LSI (low-speed internal), ~40 KHz low consumption RC used as IWDG and/or RTC
 130:Drivers/STM32F1xx_HAL_Driver/Src/stm32f1xx_hal_rcc.c ****           clock source.
 131:Drivers/STM32F1xx_HAL_Driver/Src/stm32f1xx_hal_rcc.c **** 
 132:Drivers/STM32F1xx_HAL_Driver/Src/stm32f1xx_hal_rcc.c ****       (#) HSE (high-speed external), 4 to 24 MHz (STM32F100xx) or 4 to 16 MHz (STM32F101x/STM32F102
 133:Drivers/STM32F1xx_HAL_Driver/Src/stm32f1xx_hal_rcc.c ****           through the PLL as System clock source. Can be used also as RTC clock source.
 134:Drivers/STM32F1xx_HAL_Driver/Src/stm32f1xx_hal_rcc.c **** 
 135:Drivers/STM32F1xx_HAL_Driver/Src/stm32f1xx_hal_rcc.c ****       (#) LSE (low-speed external), 32 KHz oscillator used as RTC clock source.
 136:Drivers/STM32F1xx_HAL_Driver/Src/stm32f1xx_hal_rcc.c **** 
 137:Drivers/STM32F1xx_HAL_Driver/Src/stm32f1xx_hal_rcc.c ****       (#) PLL (clocked by HSI or HSE), featuring different output clocks:
 138:Drivers/STM32F1xx_HAL_Driver/Src/stm32f1xx_hal_rcc.c ****         (++) The first output is used to generate the high speed system clock (up to 72 MHz for STM
 139:Drivers/STM32F1xx_HAL_Driver/Src/stm32f1xx_hal_rcc.c ****         (++) The second output is used to generate the clock for the USB OTG FS (48 MHz)
 140:Drivers/STM32F1xx_HAL_Driver/Src/stm32f1xx_hal_rcc.c **** 
 141:Drivers/STM32F1xx_HAL_Driver/Src/stm32f1xx_hal_rcc.c ****       (#) CSS (Clock security system), once enable using the macro __HAL_RCC_CSS_ENABLE()
 142:Drivers/STM32F1xx_HAL_Driver/Src/stm32f1xx_hal_rcc.c ****           and if a HSE clock failure occurs(HSE used directly or through PLL as System
 143:Drivers/STM32F1xx_HAL_Driver/Src/stm32f1xx_hal_rcc.c ****           clock source), the System clocks automatically switched to HSI and an interrupt
 144:Drivers/STM32F1xx_HAL_Driver/Src/stm32f1xx_hal_rcc.c ****           is generated if enabled. The interrupt is linked to the Cortex-M3 NMI
 145:Drivers/STM32F1xx_HAL_Driver/Src/stm32f1xx_hal_rcc.c ****           (Non-Maskable Interrupt) exception vector.
 146:Drivers/STM32F1xx_HAL_Driver/Src/stm32f1xx_hal_rcc.c **** 
ARM GAS  C:\Users\shado\AppData\Local\Temp\ccoIiB4i.s 			page 4


 147:Drivers/STM32F1xx_HAL_Driver/Src/stm32f1xx_hal_rcc.c ****       (#) MCO1 (microcontroller clock output), used to output SYSCLK, HSI,
 148:Drivers/STM32F1xx_HAL_Driver/Src/stm32f1xx_hal_rcc.c ****           HSE or PLL clock (divided by 2) on PA8 pin + PLL2CLK, PLL3CLK/2, PLL3CLK and XTI for STM3
 149:Drivers/STM32F1xx_HAL_Driver/Src/stm32f1xx_hal_rcc.c **** 
 150:Drivers/STM32F1xx_HAL_Driver/Src/stm32f1xx_hal_rcc.c ****     [..] System, AHB and APB buses clocks configuration
 151:Drivers/STM32F1xx_HAL_Driver/Src/stm32f1xx_hal_rcc.c ****       (#) Several clock sources can be used to drive the System clock (SYSCLK): HSI,
 152:Drivers/STM32F1xx_HAL_Driver/Src/stm32f1xx_hal_rcc.c ****           HSE and PLL.
 153:Drivers/STM32F1xx_HAL_Driver/Src/stm32f1xx_hal_rcc.c ****           The AHB clock (HCLK) is derived from System clock through configurable
 154:Drivers/STM32F1xx_HAL_Driver/Src/stm32f1xx_hal_rcc.c ****           prescaler and used to clock the CPU, memory and peripherals mapped
 155:Drivers/STM32F1xx_HAL_Driver/Src/stm32f1xx_hal_rcc.c ****           on AHB bus (DMA, GPIO...). APB1 (PCLK1) and APB2 (PCLK2) clocks are derived
 156:Drivers/STM32F1xx_HAL_Driver/Src/stm32f1xx_hal_rcc.c ****           from AHB clock through configurable prescalers and used to clock
 157:Drivers/STM32F1xx_HAL_Driver/Src/stm32f1xx_hal_rcc.c ****           the peripherals mapped on these buses. You can use
 158:Drivers/STM32F1xx_HAL_Driver/Src/stm32f1xx_hal_rcc.c ****           "@ref HAL_RCC_GetSysClockFreq()" function to retrieve the frequencies of these clocks.
 159:Drivers/STM32F1xx_HAL_Driver/Src/stm32f1xx_hal_rcc.c **** 
 160:Drivers/STM32F1xx_HAL_Driver/Src/stm32f1xx_hal_rcc.c ****       -@- All the peripheral clocks are derived from the System clock (SYSCLK) except:
 161:Drivers/STM32F1xx_HAL_Driver/Src/stm32f1xx_hal_rcc.c ****           (+@) RTC: RTC clock can be derived either from the LSI, LSE or HSE clock
 162:Drivers/STM32F1xx_HAL_Driver/Src/stm32f1xx_hal_rcc.c ****               divided by 128.
 163:Drivers/STM32F1xx_HAL_Driver/Src/stm32f1xx_hal_rcc.c ****           (+@) USB OTG FS and RTC: USB OTG FS require a frequency equal to 48 MHz
 164:Drivers/STM32F1xx_HAL_Driver/Src/stm32f1xx_hal_rcc.c ****               to work correctly. This clock is derived of the main PLL through PLL Multiplier.
 165:Drivers/STM32F1xx_HAL_Driver/Src/stm32f1xx_hal_rcc.c ****           (+@) I2S interface on STM32F105x/STM32F107x can be derived from PLL3CLK
 166:Drivers/STM32F1xx_HAL_Driver/Src/stm32f1xx_hal_rcc.c ****           (+@) IWDG clock which is always the LSI clock.
 167:Drivers/STM32F1xx_HAL_Driver/Src/stm32f1xx_hal_rcc.c **** 
 168:Drivers/STM32F1xx_HAL_Driver/Src/stm32f1xx_hal_rcc.c ****       (#) For STM32F10xxx, the maximum frequency of the SYSCLK and HCLK/PCLK2 is 72 MHz, PCLK1 36 M
 169:Drivers/STM32F1xx_HAL_Driver/Src/stm32f1xx_hal_rcc.c ****           For STM32F100xx, the maximum frequency of the SYSCLK and HCLK/PCLK1/PCLK2 is 24 MHz.
 170:Drivers/STM32F1xx_HAL_Driver/Src/stm32f1xx_hal_rcc.c ****           Depending on the SYSCLK frequency, the flash latency should be adapted accordingly.
 171:Drivers/STM32F1xx_HAL_Driver/Src/stm32f1xx_hal_rcc.c ****   @endverbatim
 172:Drivers/STM32F1xx_HAL_Driver/Src/stm32f1xx_hal_rcc.c ****   * @{
 173:Drivers/STM32F1xx_HAL_Driver/Src/stm32f1xx_hal_rcc.c ****   */
 174:Drivers/STM32F1xx_HAL_Driver/Src/stm32f1xx_hal_rcc.c **** 
 175:Drivers/STM32F1xx_HAL_Driver/Src/stm32f1xx_hal_rcc.c **** /*
 176:Drivers/STM32F1xx_HAL_Driver/Src/stm32f1xx_hal_rcc.c ****   Additional consideration on the SYSCLK based on Latency settings:
 177:Drivers/STM32F1xx_HAL_Driver/Src/stm32f1xx_hal_rcc.c ****         +-----------------------------------------------+
 178:Drivers/STM32F1xx_HAL_Driver/Src/stm32f1xx_hal_rcc.c ****         | Latency       | SYSCLK clock frequency (MHz)  |
 179:Drivers/STM32F1xx_HAL_Driver/Src/stm32f1xx_hal_rcc.c ****         |---------------|-------------------------------|
 180:Drivers/STM32F1xx_HAL_Driver/Src/stm32f1xx_hal_rcc.c ****         |0WS(1CPU cycle)|       0 < SYSCLK <= 24        |
 181:Drivers/STM32F1xx_HAL_Driver/Src/stm32f1xx_hal_rcc.c ****         |---------------|-------------------------------|
 182:Drivers/STM32F1xx_HAL_Driver/Src/stm32f1xx_hal_rcc.c ****         |1WS(2CPU cycle)|      24 < SYSCLK <= 48        |
 183:Drivers/STM32F1xx_HAL_Driver/Src/stm32f1xx_hal_rcc.c ****         |---------------|-------------------------------|
 184:Drivers/STM32F1xx_HAL_Driver/Src/stm32f1xx_hal_rcc.c ****         |2WS(3CPU cycle)|      48 < SYSCLK <= 72        |
 185:Drivers/STM32F1xx_HAL_Driver/Src/stm32f1xx_hal_rcc.c ****         +-----------------------------------------------+
 186:Drivers/STM32F1xx_HAL_Driver/Src/stm32f1xx_hal_rcc.c ****   */
 187:Drivers/STM32F1xx_HAL_Driver/Src/stm32f1xx_hal_rcc.c **** 
 188:Drivers/STM32F1xx_HAL_Driver/Src/stm32f1xx_hal_rcc.c **** /**
 189:Drivers/STM32F1xx_HAL_Driver/Src/stm32f1xx_hal_rcc.c ****   * @brief  Resets the RCC clock configuration to the default reset state.
 190:Drivers/STM32F1xx_HAL_Driver/Src/stm32f1xx_hal_rcc.c ****   * @note   The default reset state of the clock configuration is given below:
 191:Drivers/STM32F1xx_HAL_Driver/Src/stm32f1xx_hal_rcc.c ****   *            - HSI ON and used as system clock source
 192:Drivers/STM32F1xx_HAL_Driver/Src/stm32f1xx_hal_rcc.c ****   *            - HSE, PLL, PLL2 and PLL3 are OFF
 193:Drivers/STM32F1xx_HAL_Driver/Src/stm32f1xx_hal_rcc.c ****   *            - AHB, APB1 and APB2 prescaler set to 1.
 194:Drivers/STM32F1xx_HAL_Driver/Src/stm32f1xx_hal_rcc.c ****   *            - CSS and MCO1 OFF
 195:Drivers/STM32F1xx_HAL_Driver/Src/stm32f1xx_hal_rcc.c ****   *            - All interrupts disabled
 196:Drivers/STM32F1xx_HAL_Driver/Src/stm32f1xx_hal_rcc.c ****   *            - All flags are cleared
 197:Drivers/STM32F1xx_HAL_Driver/Src/stm32f1xx_hal_rcc.c ****   * @note   This function does not modify the configuration of the
 198:Drivers/STM32F1xx_HAL_Driver/Src/stm32f1xx_hal_rcc.c ****   *            - Peripheral clocks
 199:Drivers/STM32F1xx_HAL_Driver/Src/stm32f1xx_hal_rcc.c ****   *            - LSI, LSE and RTC clocks
 200:Drivers/STM32F1xx_HAL_Driver/Src/stm32f1xx_hal_rcc.c ****   * @retval HAL_StatusTypeDef
 201:Drivers/STM32F1xx_HAL_Driver/Src/stm32f1xx_hal_rcc.c ****   */
 202:Drivers/STM32F1xx_HAL_Driver/Src/stm32f1xx_hal_rcc.c **** HAL_StatusTypeDef HAL_RCC_DeInit(void)
 203:Drivers/STM32F1xx_HAL_Driver/Src/stm32f1xx_hal_rcc.c **** {
ARM GAS  C:\Users\shado\AppData\Local\Temp\ccoIiB4i.s 			page 5


 204:Drivers/STM32F1xx_HAL_Driver/Src/stm32f1xx_hal_rcc.c ****   uint32_t tickstart;
 205:Drivers/STM32F1xx_HAL_Driver/Src/stm32f1xx_hal_rcc.c **** 
 206:Drivers/STM32F1xx_HAL_Driver/Src/stm32f1xx_hal_rcc.c ****   /* Get Start Tick */
 207:Drivers/STM32F1xx_HAL_Driver/Src/stm32f1xx_hal_rcc.c ****   tickstart = HAL_GetTick();
 208:Drivers/STM32F1xx_HAL_Driver/Src/stm32f1xx_hal_rcc.c **** 
 209:Drivers/STM32F1xx_HAL_Driver/Src/stm32f1xx_hal_rcc.c ****   /* Set HSION bit */
 210:Drivers/STM32F1xx_HAL_Driver/Src/stm32f1xx_hal_rcc.c ****   SET_BIT(RCC->CR, RCC_CR_HSION);
 211:Drivers/STM32F1xx_HAL_Driver/Src/stm32f1xx_hal_rcc.c **** 
 212:Drivers/STM32F1xx_HAL_Driver/Src/stm32f1xx_hal_rcc.c ****   /* Wait till HSI is ready */
 213:Drivers/STM32F1xx_HAL_Driver/Src/stm32f1xx_hal_rcc.c ****   while (READ_BIT(RCC->CR, RCC_CR_HSIRDY) == RESET)
 214:Drivers/STM32F1xx_HAL_Driver/Src/stm32f1xx_hal_rcc.c ****   {
 215:Drivers/STM32F1xx_HAL_Driver/Src/stm32f1xx_hal_rcc.c ****     if ((HAL_GetTick() - tickstart) > HSI_TIMEOUT_VALUE)
 216:Drivers/STM32F1xx_HAL_Driver/Src/stm32f1xx_hal_rcc.c ****     {
 217:Drivers/STM32F1xx_HAL_Driver/Src/stm32f1xx_hal_rcc.c ****       return HAL_TIMEOUT;
 218:Drivers/STM32F1xx_HAL_Driver/Src/stm32f1xx_hal_rcc.c ****     }
 219:Drivers/STM32F1xx_HAL_Driver/Src/stm32f1xx_hal_rcc.c ****   }
 220:Drivers/STM32F1xx_HAL_Driver/Src/stm32f1xx_hal_rcc.c **** 
 221:Drivers/STM32F1xx_HAL_Driver/Src/stm32f1xx_hal_rcc.c ****   /* Set HSITRIM bits to the reset value */
 222:Drivers/STM32F1xx_HAL_Driver/Src/stm32f1xx_hal_rcc.c ****   MODIFY_REG(RCC->CR, RCC_CR_HSITRIM, (0x10U << RCC_CR_HSITRIM_Pos));
 223:Drivers/STM32F1xx_HAL_Driver/Src/stm32f1xx_hal_rcc.c **** 
 224:Drivers/STM32F1xx_HAL_Driver/Src/stm32f1xx_hal_rcc.c ****   /* Get Start Tick */
 225:Drivers/STM32F1xx_HAL_Driver/Src/stm32f1xx_hal_rcc.c ****   tickstart = HAL_GetTick();
 226:Drivers/STM32F1xx_HAL_Driver/Src/stm32f1xx_hal_rcc.c **** 
 227:Drivers/STM32F1xx_HAL_Driver/Src/stm32f1xx_hal_rcc.c ****   /* Reset CFGR register */
 228:Drivers/STM32F1xx_HAL_Driver/Src/stm32f1xx_hal_rcc.c ****   CLEAR_REG(RCC->CFGR);
 229:Drivers/STM32F1xx_HAL_Driver/Src/stm32f1xx_hal_rcc.c **** 
 230:Drivers/STM32F1xx_HAL_Driver/Src/stm32f1xx_hal_rcc.c ****   /* Wait till clock switch is ready */
 231:Drivers/STM32F1xx_HAL_Driver/Src/stm32f1xx_hal_rcc.c ****   while (READ_BIT(RCC->CFGR, RCC_CFGR_SWS) != RESET)
 232:Drivers/STM32F1xx_HAL_Driver/Src/stm32f1xx_hal_rcc.c ****   {
 233:Drivers/STM32F1xx_HAL_Driver/Src/stm32f1xx_hal_rcc.c ****     if ((HAL_GetTick() - tickstart) > CLOCKSWITCH_TIMEOUT_VALUE)
 234:Drivers/STM32F1xx_HAL_Driver/Src/stm32f1xx_hal_rcc.c ****     {
 235:Drivers/STM32F1xx_HAL_Driver/Src/stm32f1xx_hal_rcc.c ****       return HAL_TIMEOUT;
 236:Drivers/STM32F1xx_HAL_Driver/Src/stm32f1xx_hal_rcc.c ****     }
 237:Drivers/STM32F1xx_HAL_Driver/Src/stm32f1xx_hal_rcc.c ****   }
 238:Drivers/STM32F1xx_HAL_Driver/Src/stm32f1xx_hal_rcc.c **** 
 239:Drivers/STM32F1xx_HAL_Driver/Src/stm32f1xx_hal_rcc.c ****   /* Update the SystemCoreClock global variable */
 240:Drivers/STM32F1xx_HAL_Driver/Src/stm32f1xx_hal_rcc.c ****   SystemCoreClock = HSI_VALUE;
 241:Drivers/STM32F1xx_HAL_Driver/Src/stm32f1xx_hal_rcc.c **** 
 242:Drivers/STM32F1xx_HAL_Driver/Src/stm32f1xx_hal_rcc.c ****   /* Adapt Systick interrupt period */
 243:Drivers/STM32F1xx_HAL_Driver/Src/stm32f1xx_hal_rcc.c ****   if (HAL_InitTick(uwTickPrio) != HAL_OK)
 244:Drivers/STM32F1xx_HAL_Driver/Src/stm32f1xx_hal_rcc.c ****   {
 245:Drivers/STM32F1xx_HAL_Driver/Src/stm32f1xx_hal_rcc.c ****     return HAL_ERROR;
 246:Drivers/STM32F1xx_HAL_Driver/Src/stm32f1xx_hal_rcc.c ****   }
 247:Drivers/STM32F1xx_HAL_Driver/Src/stm32f1xx_hal_rcc.c **** 
 248:Drivers/STM32F1xx_HAL_Driver/Src/stm32f1xx_hal_rcc.c ****   /* Get Start Tick */
 249:Drivers/STM32F1xx_HAL_Driver/Src/stm32f1xx_hal_rcc.c ****   tickstart = HAL_GetTick();
 250:Drivers/STM32F1xx_HAL_Driver/Src/stm32f1xx_hal_rcc.c **** 
 251:Drivers/STM32F1xx_HAL_Driver/Src/stm32f1xx_hal_rcc.c ****   /* Second step is to clear PLLON bit */
 252:Drivers/STM32F1xx_HAL_Driver/Src/stm32f1xx_hal_rcc.c ****   CLEAR_BIT(RCC->CR, RCC_CR_PLLON);
 253:Drivers/STM32F1xx_HAL_Driver/Src/stm32f1xx_hal_rcc.c **** 
 254:Drivers/STM32F1xx_HAL_Driver/Src/stm32f1xx_hal_rcc.c ****   /* Wait till PLL is disabled */
 255:Drivers/STM32F1xx_HAL_Driver/Src/stm32f1xx_hal_rcc.c ****   while (READ_BIT(RCC->CR, RCC_CR_PLLRDY) != RESET)
 256:Drivers/STM32F1xx_HAL_Driver/Src/stm32f1xx_hal_rcc.c ****   {
 257:Drivers/STM32F1xx_HAL_Driver/Src/stm32f1xx_hal_rcc.c ****     if ((HAL_GetTick() - tickstart) > PLL_TIMEOUT_VALUE)
 258:Drivers/STM32F1xx_HAL_Driver/Src/stm32f1xx_hal_rcc.c ****     {
 259:Drivers/STM32F1xx_HAL_Driver/Src/stm32f1xx_hal_rcc.c ****       return HAL_TIMEOUT;
 260:Drivers/STM32F1xx_HAL_Driver/Src/stm32f1xx_hal_rcc.c ****     }
ARM GAS  C:\Users\shado\AppData\Local\Temp\ccoIiB4i.s 			page 6


 261:Drivers/STM32F1xx_HAL_Driver/Src/stm32f1xx_hal_rcc.c ****   }
 262:Drivers/STM32F1xx_HAL_Driver/Src/stm32f1xx_hal_rcc.c **** 
 263:Drivers/STM32F1xx_HAL_Driver/Src/stm32f1xx_hal_rcc.c ****   /* Ensure to reset PLLSRC and PLLMUL bits */
 264:Drivers/STM32F1xx_HAL_Driver/Src/stm32f1xx_hal_rcc.c ****   CLEAR_REG(RCC->CFGR);
 265:Drivers/STM32F1xx_HAL_Driver/Src/stm32f1xx_hal_rcc.c **** 
 266:Drivers/STM32F1xx_HAL_Driver/Src/stm32f1xx_hal_rcc.c ****   /* Get Start Tick */
 267:Drivers/STM32F1xx_HAL_Driver/Src/stm32f1xx_hal_rcc.c ****   tickstart = HAL_GetTick();
 268:Drivers/STM32F1xx_HAL_Driver/Src/stm32f1xx_hal_rcc.c **** 
 269:Drivers/STM32F1xx_HAL_Driver/Src/stm32f1xx_hal_rcc.c ****   /* Reset HSEON & CSSON bits */
 270:Drivers/STM32F1xx_HAL_Driver/Src/stm32f1xx_hal_rcc.c ****   CLEAR_BIT(RCC->CR, RCC_CR_HSEON | RCC_CR_CSSON);
 271:Drivers/STM32F1xx_HAL_Driver/Src/stm32f1xx_hal_rcc.c **** 
 272:Drivers/STM32F1xx_HAL_Driver/Src/stm32f1xx_hal_rcc.c ****   /* Wait till HSE is disabled */
 273:Drivers/STM32F1xx_HAL_Driver/Src/stm32f1xx_hal_rcc.c ****   while (READ_BIT(RCC->CR, RCC_CR_HSERDY) != RESET)
 274:Drivers/STM32F1xx_HAL_Driver/Src/stm32f1xx_hal_rcc.c ****   {
 275:Drivers/STM32F1xx_HAL_Driver/Src/stm32f1xx_hal_rcc.c ****     if ((HAL_GetTick() - tickstart) > HSE_TIMEOUT_VALUE)
 276:Drivers/STM32F1xx_HAL_Driver/Src/stm32f1xx_hal_rcc.c ****     {
 277:Drivers/STM32F1xx_HAL_Driver/Src/stm32f1xx_hal_rcc.c ****       return HAL_TIMEOUT;
 278:Drivers/STM32F1xx_HAL_Driver/Src/stm32f1xx_hal_rcc.c ****     }
 279:Drivers/STM32F1xx_HAL_Driver/Src/stm32f1xx_hal_rcc.c ****   }
 280:Drivers/STM32F1xx_HAL_Driver/Src/stm32f1xx_hal_rcc.c **** 
 281:Drivers/STM32F1xx_HAL_Driver/Src/stm32f1xx_hal_rcc.c ****   /* Reset HSEBYP bit */
 282:Drivers/STM32F1xx_HAL_Driver/Src/stm32f1xx_hal_rcc.c ****   CLEAR_BIT(RCC->CR, RCC_CR_HSEBYP);
 283:Drivers/STM32F1xx_HAL_Driver/Src/stm32f1xx_hal_rcc.c **** 
 284:Drivers/STM32F1xx_HAL_Driver/Src/stm32f1xx_hal_rcc.c **** #if defined(RCC_PLL2_SUPPORT)
 285:Drivers/STM32F1xx_HAL_Driver/Src/stm32f1xx_hal_rcc.c ****   /* Get Start Tick */
 286:Drivers/STM32F1xx_HAL_Driver/Src/stm32f1xx_hal_rcc.c ****   tickstart = HAL_GetTick();
 287:Drivers/STM32F1xx_HAL_Driver/Src/stm32f1xx_hal_rcc.c **** 
 288:Drivers/STM32F1xx_HAL_Driver/Src/stm32f1xx_hal_rcc.c ****   /* Clear PLL2ON bit */
 289:Drivers/STM32F1xx_HAL_Driver/Src/stm32f1xx_hal_rcc.c ****   CLEAR_BIT(RCC->CR, RCC_CR_PLL2ON);
 290:Drivers/STM32F1xx_HAL_Driver/Src/stm32f1xx_hal_rcc.c **** 
 291:Drivers/STM32F1xx_HAL_Driver/Src/stm32f1xx_hal_rcc.c ****   /* Wait till PLL2 is disabled */
 292:Drivers/STM32F1xx_HAL_Driver/Src/stm32f1xx_hal_rcc.c ****   while (READ_BIT(RCC->CR, RCC_CR_PLL2RDY) != RESET)
 293:Drivers/STM32F1xx_HAL_Driver/Src/stm32f1xx_hal_rcc.c ****   {
 294:Drivers/STM32F1xx_HAL_Driver/Src/stm32f1xx_hal_rcc.c ****     if ((HAL_GetTick() - tickstart) > PLL2_TIMEOUT_VALUE)
 295:Drivers/STM32F1xx_HAL_Driver/Src/stm32f1xx_hal_rcc.c ****     {
 296:Drivers/STM32F1xx_HAL_Driver/Src/stm32f1xx_hal_rcc.c ****       return HAL_TIMEOUT;
 297:Drivers/STM32F1xx_HAL_Driver/Src/stm32f1xx_hal_rcc.c ****     }
 298:Drivers/STM32F1xx_HAL_Driver/Src/stm32f1xx_hal_rcc.c ****   }
 299:Drivers/STM32F1xx_HAL_Driver/Src/stm32f1xx_hal_rcc.c **** #endif /* RCC_PLL2_SUPPORT */
 300:Drivers/STM32F1xx_HAL_Driver/Src/stm32f1xx_hal_rcc.c **** 
 301:Drivers/STM32F1xx_HAL_Driver/Src/stm32f1xx_hal_rcc.c **** #if defined(RCC_PLLI2S_SUPPORT)
 302:Drivers/STM32F1xx_HAL_Driver/Src/stm32f1xx_hal_rcc.c ****   /* Get Start Tick */
 303:Drivers/STM32F1xx_HAL_Driver/Src/stm32f1xx_hal_rcc.c ****   tickstart = HAL_GetTick();
 304:Drivers/STM32F1xx_HAL_Driver/Src/stm32f1xx_hal_rcc.c **** 
 305:Drivers/STM32F1xx_HAL_Driver/Src/stm32f1xx_hal_rcc.c ****   /* Clear PLL3ON bit */
 306:Drivers/STM32F1xx_HAL_Driver/Src/stm32f1xx_hal_rcc.c ****   CLEAR_BIT(RCC->CR, RCC_CR_PLL3ON);
 307:Drivers/STM32F1xx_HAL_Driver/Src/stm32f1xx_hal_rcc.c **** 
 308:Drivers/STM32F1xx_HAL_Driver/Src/stm32f1xx_hal_rcc.c ****   /* Wait till PLL3 is disabled */
 309:Drivers/STM32F1xx_HAL_Driver/Src/stm32f1xx_hal_rcc.c ****   while (READ_BIT(RCC->CR, RCC_CR_PLL3RDY) != RESET)
 310:Drivers/STM32F1xx_HAL_Driver/Src/stm32f1xx_hal_rcc.c ****   {
 311:Drivers/STM32F1xx_HAL_Driver/Src/stm32f1xx_hal_rcc.c ****     if ((HAL_GetTick() - tickstart) > PLLI2S_TIMEOUT_VALUE)
 312:Drivers/STM32F1xx_HAL_Driver/Src/stm32f1xx_hal_rcc.c ****     {
 313:Drivers/STM32F1xx_HAL_Driver/Src/stm32f1xx_hal_rcc.c ****       return HAL_TIMEOUT;
 314:Drivers/STM32F1xx_HAL_Driver/Src/stm32f1xx_hal_rcc.c ****     }
 315:Drivers/STM32F1xx_HAL_Driver/Src/stm32f1xx_hal_rcc.c ****   }
 316:Drivers/STM32F1xx_HAL_Driver/Src/stm32f1xx_hal_rcc.c **** #endif /* RCC_PLLI2S_SUPPORT */
 317:Drivers/STM32F1xx_HAL_Driver/Src/stm32f1xx_hal_rcc.c **** 
ARM GAS  C:\Users\shado\AppData\Local\Temp\ccoIiB4i.s 			page 7


 318:Drivers/STM32F1xx_HAL_Driver/Src/stm32f1xx_hal_rcc.c **** #if defined(RCC_CFGR2_PREDIV1)
 319:Drivers/STM32F1xx_HAL_Driver/Src/stm32f1xx_hal_rcc.c ****   /* Reset CFGR2 register */
 320:Drivers/STM32F1xx_HAL_Driver/Src/stm32f1xx_hal_rcc.c ****   CLEAR_REG(RCC->CFGR2);
 321:Drivers/STM32F1xx_HAL_Driver/Src/stm32f1xx_hal_rcc.c **** #endif /* RCC_CFGR2_PREDIV1 */
 322:Drivers/STM32F1xx_HAL_Driver/Src/stm32f1xx_hal_rcc.c **** 
 323:Drivers/STM32F1xx_HAL_Driver/Src/stm32f1xx_hal_rcc.c ****   /* Reset all CSR flags */
 324:Drivers/STM32F1xx_HAL_Driver/Src/stm32f1xx_hal_rcc.c ****   SET_BIT(RCC->CSR, RCC_CSR_RMVF);
 325:Drivers/STM32F1xx_HAL_Driver/Src/stm32f1xx_hal_rcc.c **** 
 326:Drivers/STM32F1xx_HAL_Driver/Src/stm32f1xx_hal_rcc.c ****   /* Disable all interrupts */
 327:Drivers/STM32F1xx_HAL_Driver/Src/stm32f1xx_hal_rcc.c ****   CLEAR_REG(RCC->CIR);
 328:Drivers/STM32F1xx_HAL_Driver/Src/stm32f1xx_hal_rcc.c **** 
 329:Drivers/STM32F1xx_HAL_Driver/Src/stm32f1xx_hal_rcc.c ****   return HAL_OK;
 330:Drivers/STM32F1xx_HAL_Driver/Src/stm32f1xx_hal_rcc.c **** }
 331:Drivers/STM32F1xx_HAL_Driver/Src/stm32f1xx_hal_rcc.c **** 
 332:Drivers/STM32F1xx_HAL_Driver/Src/stm32f1xx_hal_rcc.c **** /**
 333:Drivers/STM32F1xx_HAL_Driver/Src/stm32f1xx_hal_rcc.c ****   * @brief  Initializes the RCC Oscillators according to the specified parameters in the
 334:Drivers/STM32F1xx_HAL_Driver/Src/stm32f1xx_hal_rcc.c ****   *         RCC_OscInitTypeDef.
 335:Drivers/STM32F1xx_HAL_Driver/Src/stm32f1xx_hal_rcc.c ****   * @param  RCC_OscInitStruct pointer to an RCC_OscInitTypeDef structure that
 336:Drivers/STM32F1xx_HAL_Driver/Src/stm32f1xx_hal_rcc.c ****   *         contains the configuration information for the RCC Oscillators.
 337:Drivers/STM32F1xx_HAL_Driver/Src/stm32f1xx_hal_rcc.c ****   * @note   The PLL is not disabled when used as system clock.
 338:Drivers/STM32F1xx_HAL_Driver/Src/stm32f1xx_hal_rcc.c ****   * @note   The PLL is not disabled when USB OTG FS clock is enabled (specific to devices with USB 
 339:Drivers/STM32F1xx_HAL_Driver/Src/stm32f1xx_hal_rcc.c ****   * @note   Transitions LSE Bypass to LSE On and LSE On to LSE Bypass are not
 340:Drivers/STM32F1xx_HAL_Driver/Src/stm32f1xx_hal_rcc.c ****   *         supported by this macro. User should request a transition to LSE Off
 341:Drivers/STM32F1xx_HAL_Driver/Src/stm32f1xx_hal_rcc.c ****   *         first and then LSE On or LSE Bypass.
 342:Drivers/STM32F1xx_HAL_Driver/Src/stm32f1xx_hal_rcc.c ****   * @note   Transition HSE Bypass to HSE On and HSE On to HSE Bypass are not
 343:Drivers/STM32F1xx_HAL_Driver/Src/stm32f1xx_hal_rcc.c ****   *         supported by this macro. User should request a transition to HSE Off
 344:Drivers/STM32F1xx_HAL_Driver/Src/stm32f1xx_hal_rcc.c ****   *         first and then HSE On or HSE Bypass.
 345:Drivers/STM32F1xx_HAL_Driver/Src/stm32f1xx_hal_rcc.c ****   * @retval HAL status
 346:Drivers/STM32F1xx_HAL_Driver/Src/stm32f1xx_hal_rcc.c ****   */
 347:Drivers/STM32F1xx_HAL_Driver/Src/stm32f1xx_hal_rcc.c **** HAL_StatusTypeDef HAL_RCC_OscConfig(RCC_OscInitTypeDef  *RCC_OscInitStruct)
 348:Drivers/STM32F1xx_HAL_Driver/Src/stm32f1xx_hal_rcc.c **** {
 349:Drivers/STM32F1xx_HAL_Driver/Src/stm32f1xx_hal_rcc.c ****   uint32_t tickstart;
 350:Drivers/STM32F1xx_HAL_Driver/Src/stm32f1xx_hal_rcc.c ****   uint32_t pll_config;
 351:Drivers/STM32F1xx_HAL_Driver/Src/stm32f1xx_hal_rcc.c **** 
 352:Drivers/STM32F1xx_HAL_Driver/Src/stm32f1xx_hal_rcc.c ****   /* Check Null pointer */
 353:Drivers/STM32F1xx_HAL_Driver/Src/stm32f1xx_hal_rcc.c ****   if (RCC_OscInitStruct == NULL)
 354:Drivers/STM32F1xx_HAL_Driver/Src/stm32f1xx_hal_rcc.c ****   {
 355:Drivers/STM32F1xx_HAL_Driver/Src/stm32f1xx_hal_rcc.c ****     return HAL_ERROR;
 356:Drivers/STM32F1xx_HAL_Driver/Src/stm32f1xx_hal_rcc.c ****   }
 357:Drivers/STM32F1xx_HAL_Driver/Src/stm32f1xx_hal_rcc.c **** 
 358:Drivers/STM32F1xx_HAL_Driver/Src/stm32f1xx_hal_rcc.c ****   /* Check the parameters */
 359:Drivers/STM32F1xx_HAL_Driver/Src/stm32f1xx_hal_rcc.c ****   assert_param(IS_RCC_OSCILLATORTYPE(RCC_OscInitStruct->OscillatorType));
 360:Drivers/STM32F1xx_HAL_Driver/Src/stm32f1xx_hal_rcc.c **** 
 361:Drivers/STM32F1xx_HAL_Driver/Src/stm32f1xx_hal_rcc.c ****   /*------------------------------- HSE Configuration ------------------------*/
 362:Drivers/STM32F1xx_HAL_Driver/Src/stm32f1xx_hal_rcc.c ****   if (((RCC_OscInitStruct->OscillatorType) & RCC_OSCILLATORTYPE_HSE) == RCC_OSCILLATORTYPE_HSE)
 363:Drivers/STM32F1xx_HAL_Driver/Src/stm32f1xx_hal_rcc.c ****   {
 364:Drivers/STM32F1xx_HAL_Driver/Src/stm32f1xx_hal_rcc.c ****     /* Check the parameters */
 365:Drivers/STM32F1xx_HAL_Driver/Src/stm32f1xx_hal_rcc.c ****     assert_param(IS_RCC_HSE(RCC_OscInitStruct->HSEState));
 366:Drivers/STM32F1xx_HAL_Driver/Src/stm32f1xx_hal_rcc.c **** 
 367:Drivers/STM32F1xx_HAL_Driver/Src/stm32f1xx_hal_rcc.c ****     /* When the HSE is used as system clock or clock source for PLL in these cases it is not allowe
 368:Drivers/STM32F1xx_HAL_Driver/Src/stm32f1xx_hal_rcc.c ****     if ((__HAL_RCC_GET_SYSCLK_SOURCE() == RCC_SYSCLKSOURCE_STATUS_HSE)
 369:Drivers/STM32F1xx_HAL_Driver/Src/stm32f1xx_hal_rcc.c ****         || ((__HAL_RCC_GET_SYSCLK_SOURCE() == RCC_SYSCLKSOURCE_STATUS_PLLCLK) && (__HAL_RCC_GET_PLL
 370:Drivers/STM32F1xx_HAL_Driver/Src/stm32f1xx_hal_rcc.c ****     {
 371:Drivers/STM32F1xx_HAL_Driver/Src/stm32f1xx_hal_rcc.c ****       if ((__HAL_RCC_GET_FLAG(RCC_FLAG_HSERDY) != RESET) && (RCC_OscInitStruct->HSEState == RCC_HSE
 372:Drivers/STM32F1xx_HAL_Driver/Src/stm32f1xx_hal_rcc.c ****       {
 373:Drivers/STM32F1xx_HAL_Driver/Src/stm32f1xx_hal_rcc.c ****         return HAL_ERROR;
 374:Drivers/STM32F1xx_HAL_Driver/Src/stm32f1xx_hal_rcc.c ****       }
ARM GAS  C:\Users\shado\AppData\Local\Temp\ccoIiB4i.s 			page 8


 375:Drivers/STM32F1xx_HAL_Driver/Src/stm32f1xx_hal_rcc.c ****     }
 376:Drivers/STM32F1xx_HAL_Driver/Src/stm32f1xx_hal_rcc.c ****     else
 377:Drivers/STM32F1xx_HAL_Driver/Src/stm32f1xx_hal_rcc.c ****     {
 378:Drivers/STM32F1xx_HAL_Driver/Src/stm32f1xx_hal_rcc.c ****       /* Set the new HSE configuration ---------------------------------------*/
 379:Drivers/STM32F1xx_HAL_Driver/Src/stm32f1xx_hal_rcc.c ****       __HAL_RCC_HSE_CONFIG(RCC_OscInitStruct->HSEState);
 380:Drivers/STM32F1xx_HAL_Driver/Src/stm32f1xx_hal_rcc.c **** 
 381:Drivers/STM32F1xx_HAL_Driver/Src/stm32f1xx_hal_rcc.c **** 
 382:Drivers/STM32F1xx_HAL_Driver/Src/stm32f1xx_hal_rcc.c ****       /* Check the HSE State */
 383:Drivers/STM32F1xx_HAL_Driver/Src/stm32f1xx_hal_rcc.c ****       if (RCC_OscInitStruct->HSEState != RCC_HSE_OFF)
 384:Drivers/STM32F1xx_HAL_Driver/Src/stm32f1xx_hal_rcc.c ****       {
 385:Drivers/STM32F1xx_HAL_Driver/Src/stm32f1xx_hal_rcc.c ****         /* Get Start Tick */
 386:Drivers/STM32F1xx_HAL_Driver/Src/stm32f1xx_hal_rcc.c ****         tickstart = HAL_GetTick();
 387:Drivers/STM32F1xx_HAL_Driver/Src/stm32f1xx_hal_rcc.c **** 
 388:Drivers/STM32F1xx_HAL_Driver/Src/stm32f1xx_hal_rcc.c ****         /* Wait till HSE is ready */
 389:Drivers/STM32F1xx_HAL_Driver/Src/stm32f1xx_hal_rcc.c ****         while (__HAL_RCC_GET_FLAG(RCC_FLAG_HSERDY) == RESET)
 390:Drivers/STM32F1xx_HAL_Driver/Src/stm32f1xx_hal_rcc.c ****         {
 391:Drivers/STM32F1xx_HAL_Driver/Src/stm32f1xx_hal_rcc.c ****           if ((HAL_GetTick() - tickstart) > HSE_TIMEOUT_VALUE)
 392:Drivers/STM32F1xx_HAL_Driver/Src/stm32f1xx_hal_rcc.c ****           {
 393:Drivers/STM32F1xx_HAL_Driver/Src/stm32f1xx_hal_rcc.c ****             return HAL_TIMEOUT;
 394:Drivers/STM32F1xx_HAL_Driver/Src/stm32f1xx_hal_rcc.c ****           }
 395:Drivers/STM32F1xx_HAL_Driver/Src/stm32f1xx_hal_rcc.c ****         }
 396:Drivers/STM32F1xx_HAL_Driver/Src/stm32f1xx_hal_rcc.c ****       }
 397:Drivers/STM32F1xx_HAL_Driver/Src/stm32f1xx_hal_rcc.c ****       else
 398:Drivers/STM32F1xx_HAL_Driver/Src/stm32f1xx_hal_rcc.c ****       {
 399:Drivers/STM32F1xx_HAL_Driver/Src/stm32f1xx_hal_rcc.c ****         /* Get Start Tick */
 400:Drivers/STM32F1xx_HAL_Driver/Src/stm32f1xx_hal_rcc.c ****         tickstart = HAL_GetTick();
 401:Drivers/STM32F1xx_HAL_Driver/Src/stm32f1xx_hal_rcc.c **** 
 402:Drivers/STM32F1xx_HAL_Driver/Src/stm32f1xx_hal_rcc.c ****         /* Wait till HSE is disabled */
 403:Drivers/STM32F1xx_HAL_Driver/Src/stm32f1xx_hal_rcc.c ****         while (__HAL_RCC_GET_FLAG(RCC_FLAG_HSERDY) != RESET)
 404:Drivers/STM32F1xx_HAL_Driver/Src/stm32f1xx_hal_rcc.c ****         {
 405:Drivers/STM32F1xx_HAL_Driver/Src/stm32f1xx_hal_rcc.c ****           if ((HAL_GetTick() - tickstart) > HSE_TIMEOUT_VALUE)
 406:Drivers/STM32F1xx_HAL_Driver/Src/stm32f1xx_hal_rcc.c ****           {
 407:Drivers/STM32F1xx_HAL_Driver/Src/stm32f1xx_hal_rcc.c ****             return HAL_TIMEOUT;
 408:Drivers/STM32F1xx_HAL_Driver/Src/stm32f1xx_hal_rcc.c ****           }
 409:Drivers/STM32F1xx_HAL_Driver/Src/stm32f1xx_hal_rcc.c ****         }
 410:Drivers/STM32F1xx_HAL_Driver/Src/stm32f1xx_hal_rcc.c ****       }
 411:Drivers/STM32F1xx_HAL_Driver/Src/stm32f1xx_hal_rcc.c ****     }
 412:Drivers/STM32F1xx_HAL_Driver/Src/stm32f1xx_hal_rcc.c ****   }
 413:Drivers/STM32F1xx_HAL_Driver/Src/stm32f1xx_hal_rcc.c ****   /*----------------------------- HSI Configuration --------------------------*/
 414:Drivers/STM32F1xx_HAL_Driver/Src/stm32f1xx_hal_rcc.c ****   if (((RCC_OscInitStruct->OscillatorType) & RCC_OSCILLATORTYPE_HSI) == RCC_OSCILLATORTYPE_HSI)
 415:Drivers/STM32F1xx_HAL_Driver/Src/stm32f1xx_hal_rcc.c ****   {
 416:Drivers/STM32F1xx_HAL_Driver/Src/stm32f1xx_hal_rcc.c ****     /* Check the parameters */
 417:Drivers/STM32F1xx_HAL_Driver/Src/stm32f1xx_hal_rcc.c ****     assert_param(IS_RCC_HSI(RCC_OscInitStruct->HSIState));
 418:Drivers/STM32F1xx_HAL_Driver/Src/stm32f1xx_hal_rcc.c ****     assert_param(IS_RCC_CALIBRATION_VALUE(RCC_OscInitStruct->HSICalibrationValue));
 419:Drivers/STM32F1xx_HAL_Driver/Src/stm32f1xx_hal_rcc.c **** 
 420:Drivers/STM32F1xx_HAL_Driver/Src/stm32f1xx_hal_rcc.c ****     /* Check if HSI is used as system clock or as PLL source when PLL is selected as system clock *
 421:Drivers/STM32F1xx_HAL_Driver/Src/stm32f1xx_hal_rcc.c ****     if ((__HAL_RCC_GET_SYSCLK_SOURCE() == RCC_SYSCLKSOURCE_STATUS_HSI)
 422:Drivers/STM32F1xx_HAL_Driver/Src/stm32f1xx_hal_rcc.c ****         || ((__HAL_RCC_GET_SYSCLK_SOURCE() == RCC_SYSCLKSOURCE_STATUS_PLLCLK) && (__HAL_RCC_GET_PLL
 423:Drivers/STM32F1xx_HAL_Driver/Src/stm32f1xx_hal_rcc.c ****     {
 424:Drivers/STM32F1xx_HAL_Driver/Src/stm32f1xx_hal_rcc.c ****       /* When HSI is used as system clock it will not disabled */
 425:Drivers/STM32F1xx_HAL_Driver/Src/stm32f1xx_hal_rcc.c ****       if ((__HAL_RCC_GET_FLAG(RCC_FLAG_HSIRDY) != RESET) && (RCC_OscInitStruct->HSIState != RCC_HSI
 426:Drivers/STM32F1xx_HAL_Driver/Src/stm32f1xx_hal_rcc.c ****       {
 427:Drivers/STM32F1xx_HAL_Driver/Src/stm32f1xx_hal_rcc.c ****         return HAL_ERROR;
 428:Drivers/STM32F1xx_HAL_Driver/Src/stm32f1xx_hal_rcc.c ****       }
 429:Drivers/STM32F1xx_HAL_Driver/Src/stm32f1xx_hal_rcc.c ****       /* Otherwise, just the calibration is allowed */
 430:Drivers/STM32F1xx_HAL_Driver/Src/stm32f1xx_hal_rcc.c ****       else
 431:Drivers/STM32F1xx_HAL_Driver/Src/stm32f1xx_hal_rcc.c ****       {
ARM GAS  C:\Users\shado\AppData\Local\Temp\ccoIiB4i.s 			page 9


 432:Drivers/STM32F1xx_HAL_Driver/Src/stm32f1xx_hal_rcc.c ****         /* Adjusts the Internal High Speed oscillator (HSI) calibration value.*/
 433:Drivers/STM32F1xx_HAL_Driver/Src/stm32f1xx_hal_rcc.c ****         __HAL_RCC_HSI_CALIBRATIONVALUE_ADJUST(RCC_OscInitStruct->HSICalibrationValue);
 434:Drivers/STM32F1xx_HAL_Driver/Src/stm32f1xx_hal_rcc.c ****       }
 435:Drivers/STM32F1xx_HAL_Driver/Src/stm32f1xx_hal_rcc.c ****     }
 436:Drivers/STM32F1xx_HAL_Driver/Src/stm32f1xx_hal_rcc.c ****     else
 437:Drivers/STM32F1xx_HAL_Driver/Src/stm32f1xx_hal_rcc.c ****     {
 438:Drivers/STM32F1xx_HAL_Driver/Src/stm32f1xx_hal_rcc.c ****       /* Check the HSI State */
 439:Drivers/STM32F1xx_HAL_Driver/Src/stm32f1xx_hal_rcc.c ****       if (RCC_OscInitStruct->HSIState != RCC_HSI_OFF)
 440:Drivers/STM32F1xx_HAL_Driver/Src/stm32f1xx_hal_rcc.c ****       {
 441:Drivers/STM32F1xx_HAL_Driver/Src/stm32f1xx_hal_rcc.c ****         /* Enable the Internal High Speed oscillator (HSI). */
 442:Drivers/STM32F1xx_HAL_Driver/Src/stm32f1xx_hal_rcc.c ****         __HAL_RCC_HSI_ENABLE();
 443:Drivers/STM32F1xx_HAL_Driver/Src/stm32f1xx_hal_rcc.c **** 
 444:Drivers/STM32F1xx_HAL_Driver/Src/stm32f1xx_hal_rcc.c ****         /* Get Start Tick */
 445:Drivers/STM32F1xx_HAL_Driver/Src/stm32f1xx_hal_rcc.c ****         tickstart = HAL_GetTick();
 446:Drivers/STM32F1xx_HAL_Driver/Src/stm32f1xx_hal_rcc.c **** 
 447:Drivers/STM32F1xx_HAL_Driver/Src/stm32f1xx_hal_rcc.c ****         /* Wait till HSI is ready */
 448:Drivers/STM32F1xx_HAL_Driver/Src/stm32f1xx_hal_rcc.c ****         while (__HAL_RCC_GET_FLAG(RCC_FLAG_HSIRDY) == RESET)
 449:Drivers/STM32F1xx_HAL_Driver/Src/stm32f1xx_hal_rcc.c ****         {
 450:Drivers/STM32F1xx_HAL_Driver/Src/stm32f1xx_hal_rcc.c ****           if ((HAL_GetTick() - tickstart) > HSI_TIMEOUT_VALUE)
 451:Drivers/STM32F1xx_HAL_Driver/Src/stm32f1xx_hal_rcc.c ****           {
 452:Drivers/STM32F1xx_HAL_Driver/Src/stm32f1xx_hal_rcc.c ****             return HAL_TIMEOUT;
 453:Drivers/STM32F1xx_HAL_Driver/Src/stm32f1xx_hal_rcc.c ****           }
 454:Drivers/STM32F1xx_HAL_Driver/Src/stm32f1xx_hal_rcc.c ****         }
 455:Drivers/STM32F1xx_HAL_Driver/Src/stm32f1xx_hal_rcc.c **** 
 456:Drivers/STM32F1xx_HAL_Driver/Src/stm32f1xx_hal_rcc.c ****         /* Adjusts the Internal High Speed oscillator (HSI) calibration value.*/
 457:Drivers/STM32F1xx_HAL_Driver/Src/stm32f1xx_hal_rcc.c ****         __HAL_RCC_HSI_CALIBRATIONVALUE_ADJUST(RCC_OscInitStruct->HSICalibrationValue);
 458:Drivers/STM32F1xx_HAL_Driver/Src/stm32f1xx_hal_rcc.c ****       }
 459:Drivers/STM32F1xx_HAL_Driver/Src/stm32f1xx_hal_rcc.c ****       else
 460:Drivers/STM32F1xx_HAL_Driver/Src/stm32f1xx_hal_rcc.c ****       {
 461:Drivers/STM32F1xx_HAL_Driver/Src/stm32f1xx_hal_rcc.c ****         /* Disable the Internal High Speed oscillator (HSI). */
 462:Drivers/STM32F1xx_HAL_Driver/Src/stm32f1xx_hal_rcc.c ****         __HAL_RCC_HSI_DISABLE();
 463:Drivers/STM32F1xx_HAL_Driver/Src/stm32f1xx_hal_rcc.c **** 
 464:Drivers/STM32F1xx_HAL_Driver/Src/stm32f1xx_hal_rcc.c ****         /* Get Start Tick */
 465:Drivers/STM32F1xx_HAL_Driver/Src/stm32f1xx_hal_rcc.c ****         tickstart = HAL_GetTick();
 466:Drivers/STM32F1xx_HAL_Driver/Src/stm32f1xx_hal_rcc.c **** 
 467:Drivers/STM32F1xx_HAL_Driver/Src/stm32f1xx_hal_rcc.c ****         /* Wait till HSI is disabled */
 468:Drivers/STM32F1xx_HAL_Driver/Src/stm32f1xx_hal_rcc.c ****         while (__HAL_RCC_GET_FLAG(RCC_FLAG_HSIRDY) != RESET)
 469:Drivers/STM32F1xx_HAL_Driver/Src/stm32f1xx_hal_rcc.c ****         {
 470:Drivers/STM32F1xx_HAL_Driver/Src/stm32f1xx_hal_rcc.c ****           if ((HAL_GetTick() - tickstart) > HSI_TIMEOUT_VALUE)
 471:Drivers/STM32F1xx_HAL_Driver/Src/stm32f1xx_hal_rcc.c ****           {
 472:Drivers/STM32F1xx_HAL_Driver/Src/stm32f1xx_hal_rcc.c ****             return HAL_TIMEOUT;
 473:Drivers/STM32F1xx_HAL_Driver/Src/stm32f1xx_hal_rcc.c ****           }
 474:Drivers/STM32F1xx_HAL_Driver/Src/stm32f1xx_hal_rcc.c ****         }
 475:Drivers/STM32F1xx_HAL_Driver/Src/stm32f1xx_hal_rcc.c ****       }
 476:Drivers/STM32F1xx_HAL_Driver/Src/stm32f1xx_hal_rcc.c ****     }
 477:Drivers/STM32F1xx_HAL_Driver/Src/stm32f1xx_hal_rcc.c ****   }
 478:Drivers/STM32F1xx_HAL_Driver/Src/stm32f1xx_hal_rcc.c ****   /*------------------------------ LSI Configuration -------------------------*/
 479:Drivers/STM32F1xx_HAL_Driver/Src/stm32f1xx_hal_rcc.c ****   if (((RCC_OscInitStruct->OscillatorType) & RCC_OSCILLATORTYPE_LSI) == RCC_OSCILLATORTYPE_LSI)
 480:Drivers/STM32F1xx_HAL_Driver/Src/stm32f1xx_hal_rcc.c ****   {
 481:Drivers/STM32F1xx_HAL_Driver/Src/stm32f1xx_hal_rcc.c ****     /* Check the parameters */
 482:Drivers/STM32F1xx_HAL_Driver/Src/stm32f1xx_hal_rcc.c ****     assert_param(IS_RCC_LSI(RCC_OscInitStruct->LSIState));
 483:Drivers/STM32F1xx_HAL_Driver/Src/stm32f1xx_hal_rcc.c **** 
 484:Drivers/STM32F1xx_HAL_Driver/Src/stm32f1xx_hal_rcc.c ****     /* Check the LSI State */
 485:Drivers/STM32F1xx_HAL_Driver/Src/stm32f1xx_hal_rcc.c ****     if (RCC_OscInitStruct->LSIState != RCC_LSI_OFF)
 486:Drivers/STM32F1xx_HAL_Driver/Src/stm32f1xx_hal_rcc.c ****     {
 487:Drivers/STM32F1xx_HAL_Driver/Src/stm32f1xx_hal_rcc.c ****       /* Enable the Internal Low Speed oscillator (LSI). */
 488:Drivers/STM32F1xx_HAL_Driver/Src/stm32f1xx_hal_rcc.c ****       __HAL_RCC_LSI_ENABLE();
ARM GAS  C:\Users\shado\AppData\Local\Temp\ccoIiB4i.s 			page 10


 489:Drivers/STM32F1xx_HAL_Driver/Src/stm32f1xx_hal_rcc.c **** 
 490:Drivers/STM32F1xx_HAL_Driver/Src/stm32f1xx_hal_rcc.c ****       /* Get Start Tick */
 491:Drivers/STM32F1xx_HAL_Driver/Src/stm32f1xx_hal_rcc.c ****       tickstart = HAL_GetTick();
 492:Drivers/STM32F1xx_HAL_Driver/Src/stm32f1xx_hal_rcc.c **** 
 493:Drivers/STM32F1xx_HAL_Driver/Src/stm32f1xx_hal_rcc.c ****       /* Wait till LSI is ready */
 494:Drivers/STM32F1xx_HAL_Driver/Src/stm32f1xx_hal_rcc.c ****       while (__HAL_RCC_GET_FLAG(RCC_FLAG_LSIRDY) == RESET)
 495:Drivers/STM32F1xx_HAL_Driver/Src/stm32f1xx_hal_rcc.c ****       {
 496:Drivers/STM32F1xx_HAL_Driver/Src/stm32f1xx_hal_rcc.c ****         if ((HAL_GetTick() - tickstart) > LSI_TIMEOUT_VALUE)
 497:Drivers/STM32F1xx_HAL_Driver/Src/stm32f1xx_hal_rcc.c ****         {
 498:Drivers/STM32F1xx_HAL_Driver/Src/stm32f1xx_hal_rcc.c ****           return HAL_TIMEOUT;
 499:Drivers/STM32F1xx_HAL_Driver/Src/stm32f1xx_hal_rcc.c ****         }
 500:Drivers/STM32F1xx_HAL_Driver/Src/stm32f1xx_hal_rcc.c ****       }
 501:Drivers/STM32F1xx_HAL_Driver/Src/stm32f1xx_hal_rcc.c ****       /*  To have a fully stabilized clock in the specified range, a software delay of 1ms
 502:Drivers/STM32F1xx_HAL_Driver/Src/stm32f1xx_hal_rcc.c ****           should be added.*/
 503:Drivers/STM32F1xx_HAL_Driver/Src/stm32f1xx_hal_rcc.c ****       RCC_Delay(1);
 504:Drivers/STM32F1xx_HAL_Driver/Src/stm32f1xx_hal_rcc.c ****     }
 505:Drivers/STM32F1xx_HAL_Driver/Src/stm32f1xx_hal_rcc.c ****     else
 506:Drivers/STM32F1xx_HAL_Driver/Src/stm32f1xx_hal_rcc.c ****     {
 507:Drivers/STM32F1xx_HAL_Driver/Src/stm32f1xx_hal_rcc.c ****       /* Disable the Internal Low Speed oscillator (LSI). */
 508:Drivers/STM32F1xx_HAL_Driver/Src/stm32f1xx_hal_rcc.c ****       __HAL_RCC_LSI_DISABLE();
 509:Drivers/STM32F1xx_HAL_Driver/Src/stm32f1xx_hal_rcc.c **** 
 510:Drivers/STM32F1xx_HAL_Driver/Src/stm32f1xx_hal_rcc.c ****       /* Get Start Tick */
 511:Drivers/STM32F1xx_HAL_Driver/Src/stm32f1xx_hal_rcc.c ****       tickstart = HAL_GetTick();
 512:Drivers/STM32F1xx_HAL_Driver/Src/stm32f1xx_hal_rcc.c **** 
 513:Drivers/STM32F1xx_HAL_Driver/Src/stm32f1xx_hal_rcc.c ****       /* Wait till LSI is disabled */
 514:Drivers/STM32F1xx_HAL_Driver/Src/stm32f1xx_hal_rcc.c ****       while (__HAL_RCC_GET_FLAG(RCC_FLAG_LSIRDY) != RESET)
 515:Drivers/STM32F1xx_HAL_Driver/Src/stm32f1xx_hal_rcc.c ****       {
 516:Drivers/STM32F1xx_HAL_Driver/Src/stm32f1xx_hal_rcc.c ****         if ((HAL_GetTick() - tickstart) > LSI_TIMEOUT_VALUE)
 517:Drivers/STM32F1xx_HAL_Driver/Src/stm32f1xx_hal_rcc.c ****         {
 518:Drivers/STM32F1xx_HAL_Driver/Src/stm32f1xx_hal_rcc.c ****           return HAL_TIMEOUT;
 519:Drivers/STM32F1xx_HAL_Driver/Src/stm32f1xx_hal_rcc.c ****         }
 520:Drivers/STM32F1xx_HAL_Driver/Src/stm32f1xx_hal_rcc.c ****       }
 521:Drivers/STM32F1xx_HAL_Driver/Src/stm32f1xx_hal_rcc.c ****     }
 522:Drivers/STM32F1xx_HAL_Driver/Src/stm32f1xx_hal_rcc.c ****   }
 523:Drivers/STM32F1xx_HAL_Driver/Src/stm32f1xx_hal_rcc.c ****   /*------------------------------ LSE Configuration -------------------------*/
 524:Drivers/STM32F1xx_HAL_Driver/Src/stm32f1xx_hal_rcc.c ****   if (((RCC_OscInitStruct->OscillatorType) & RCC_OSCILLATORTYPE_LSE) == RCC_OSCILLATORTYPE_LSE)
 525:Drivers/STM32F1xx_HAL_Driver/Src/stm32f1xx_hal_rcc.c ****   {
 526:Drivers/STM32F1xx_HAL_Driver/Src/stm32f1xx_hal_rcc.c ****     FlagStatus       pwrclkchanged = RESET;
 527:Drivers/STM32F1xx_HAL_Driver/Src/stm32f1xx_hal_rcc.c **** 
 528:Drivers/STM32F1xx_HAL_Driver/Src/stm32f1xx_hal_rcc.c ****     /* Check the parameters */
 529:Drivers/STM32F1xx_HAL_Driver/Src/stm32f1xx_hal_rcc.c ****     assert_param(IS_RCC_LSE(RCC_OscInitStruct->LSEState));
 530:Drivers/STM32F1xx_HAL_Driver/Src/stm32f1xx_hal_rcc.c **** 
 531:Drivers/STM32F1xx_HAL_Driver/Src/stm32f1xx_hal_rcc.c ****     /* Update LSE configuration in Backup Domain control register    */
 532:Drivers/STM32F1xx_HAL_Driver/Src/stm32f1xx_hal_rcc.c ****     /* Requires to enable write access to Backup Domain of necessary */
 533:Drivers/STM32F1xx_HAL_Driver/Src/stm32f1xx_hal_rcc.c ****     if (__HAL_RCC_PWR_IS_CLK_DISABLED())
 534:Drivers/STM32F1xx_HAL_Driver/Src/stm32f1xx_hal_rcc.c ****     {
 535:Drivers/STM32F1xx_HAL_Driver/Src/stm32f1xx_hal_rcc.c ****       __HAL_RCC_PWR_CLK_ENABLE();
 536:Drivers/STM32F1xx_HAL_Driver/Src/stm32f1xx_hal_rcc.c ****       pwrclkchanged = SET;
 537:Drivers/STM32F1xx_HAL_Driver/Src/stm32f1xx_hal_rcc.c ****     }
 538:Drivers/STM32F1xx_HAL_Driver/Src/stm32f1xx_hal_rcc.c **** 
 539:Drivers/STM32F1xx_HAL_Driver/Src/stm32f1xx_hal_rcc.c ****     if (HAL_IS_BIT_CLR(PWR->CR, PWR_CR_DBP))
 540:Drivers/STM32F1xx_HAL_Driver/Src/stm32f1xx_hal_rcc.c ****     {
 541:Drivers/STM32F1xx_HAL_Driver/Src/stm32f1xx_hal_rcc.c ****       /* Enable write access to Backup domain */
 542:Drivers/STM32F1xx_HAL_Driver/Src/stm32f1xx_hal_rcc.c ****       SET_BIT(PWR->CR, PWR_CR_DBP);
 543:Drivers/STM32F1xx_HAL_Driver/Src/stm32f1xx_hal_rcc.c **** 
 544:Drivers/STM32F1xx_HAL_Driver/Src/stm32f1xx_hal_rcc.c ****       /* Wait for Backup domain Write protection disable */
 545:Drivers/STM32F1xx_HAL_Driver/Src/stm32f1xx_hal_rcc.c ****       tickstart = HAL_GetTick();
ARM GAS  C:\Users\shado\AppData\Local\Temp\ccoIiB4i.s 			page 11


 546:Drivers/STM32F1xx_HAL_Driver/Src/stm32f1xx_hal_rcc.c **** 
 547:Drivers/STM32F1xx_HAL_Driver/Src/stm32f1xx_hal_rcc.c ****       while (HAL_IS_BIT_CLR(PWR->CR, PWR_CR_DBP))
 548:Drivers/STM32F1xx_HAL_Driver/Src/stm32f1xx_hal_rcc.c ****       {
 549:Drivers/STM32F1xx_HAL_Driver/Src/stm32f1xx_hal_rcc.c ****         if ((HAL_GetTick() - tickstart) > RCC_DBP_TIMEOUT_VALUE)
 550:Drivers/STM32F1xx_HAL_Driver/Src/stm32f1xx_hal_rcc.c ****         {
 551:Drivers/STM32F1xx_HAL_Driver/Src/stm32f1xx_hal_rcc.c ****           return HAL_TIMEOUT;
 552:Drivers/STM32F1xx_HAL_Driver/Src/stm32f1xx_hal_rcc.c ****         }
 553:Drivers/STM32F1xx_HAL_Driver/Src/stm32f1xx_hal_rcc.c ****       }
 554:Drivers/STM32F1xx_HAL_Driver/Src/stm32f1xx_hal_rcc.c ****     }
 555:Drivers/STM32F1xx_HAL_Driver/Src/stm32f1xx_hal_rcc.c **** 
 556:Drivers/STM32F1xx_HAL_Driver/Src/stm32f1xx_hal_rcc.c ****     /* Set the new LSE configuration -----------------------------------------*/
 557:Drivers/STM32F1xx_HAL_Driver/Src/stm32f1xx_hal_rcc.c ****     __HAL_RCC_LSE_CONFIG(RCC_OscInitStruct->LSEState);
 558:Drivers/STM32F1xx_HAL_Driver/Src/stm32f1xx_hal_rcc.c ****     /* Check the LSE State */
 559:Drivers/STM32F1xx_HAL_Driver/Src/stm32f1xx_hal_rcc.c ****     if (RCC_OscInitStruct->LSEState != RCC_LSE_OFF)
 560:Drivers/STM32F1xx_HAL_Driver/Src/stm32f1xx_hal_rcc.c ****     {
 561:Drivers/STM32F1xx_HAL_Driver/Src/stm32f1xx_hal_rcc.c ****       /* Get Start Tick */
 562:Drivers/STM32F1xx_HAL_Driver/Src/stm32f1xx_hal_rcc.c ****       tickstart = HAL_GetTick();
 563:Drivers/STM32F1xx_HAL_Driver/Src/stm32f1xx_hal_rcc.c **** 
 564:Drivers/STM32F1xx_HAL_Driver/Src/stm32f1xx_hal_rcc.c ****       /* Wait till LSE is ready */
 565:Drivers/STM32F1xx_HAL_Driver/Src/stm32f1xx_hal_rcc.c ****       while (__HAL_RCC_GET_FLAG(RCC_FLAG_LSERDY) == RESET)
 566:Drivers/STM32F1xx_HAL_Driver/Src/stm32f1xx_hal_rcc.c ****       {
 567:Drivers/STM32F1xx_HAL_Driver/Src/stm32f1xx_hal_rcc.c ****         if ((HAL_GetTick() - tickstart) > RCC_LSE_TIMEOUT_VALUE)
 568:Drivers/STM32F1xx_HAL_Driver/Src/stm32f1xx_hal_rcc.c ****         {
 569:Drivers/STM32F1xx_HAL_Driver/Src/stm32f1xx_hal_rcc.c ****           return HAL_TIMEOUT;
 570:Drivers/STM32F1xx_HAL_Driver/Src/stm32f1xx_hal_rcc.c ****         }
 571:Drivers/STM32F1xx_HAL_Driver/Src/stm32f1xx_hal_rcc.c ****       }
 572:Drivers/STM32F1xx_HAL_Driver/Src/stm32f1xx_hal_rcc.c ****     }
 573:Drivers/STM32F1xx_HAL_Driver/Src/stm32f1xx_hal_rcc.c ****     else
 574:Drivers/STM32F1xx_HAL_Driver/Src/stm32f1xx_hal_rcc.c ****     {
 575:Drivers/STM32F1xx_HAL_Driver/Src/stm32f1xx_hal_rcc.c ****       /* Get Start Tick */
 576:Drivers/STM32F1xx_HAL_Driver/Src/stm32f1xx_hal_rcc.c ****       tickstart = HAL_GetTick();
 577:Drivers/STM32F1xx_HAL_Driver/Src/stm32f1xx_hal_rcc.c **** 
 578:Drivers/STM32F1xx_HAL_Driver/Src/stm32f1xx_hal_rcc.c ****       /* Wait till LSE is disabled */
 579:Drivers/STM32F1xx_HAL_Driver/Src/stm32f1xx_hal_rcc.c ****       while (__HAL_RCC_GET_FLAG(RCC_FLAG_LSERDY) != RESET)
 580:Drivers/STM32F1xx_HAL_Driver/Src/stm32f1xx_hal_rcc.c ****       {
 581:Drivers/STM32F1xx_HAL_Driver/Src/stm32f1xx_hal_rcc.c ****         if ((HAL_GetTick() - tickstart) > RCC_LSE_TIMEOUT_VALUE)
 582:Drivers/STM32F1xx_HAL_Driver/Src/stm32f1xx_hal_rcc.c ****         {
 583:Drivers/STM32F1xx_HAL_Driver/Src/stm32f1xx_hal_rcc.c ****           return HAL_TIMEOUT;
 584:Drivers/STM32F1xx_HAL_Driver/Src/stm32f1xx_hal_rcc.c ****         }
 585:Drivers/STM32F1xx_HAL_Driver/Src/stm32f1xx_hal_rcc.c ****       }
 586:Drivers/STM32F1xx_HAL_Driver/Src/stm32f1xx_hal_rcc.c ****     }
 587:Drivers/STM32F1xx_HAL_Driver/Src/stm32f1xx_hal_rcc.c **** 
 588:Drivers/STM32F1xx_HAL_Driver/Src/stm32f1xx_hal_rcc.c ****     /* Require to disable power clock if necessary */
 589:Drivers/STM32F1xx_HAL_Driver/Src/stm32f1xx_hal_rcc.c ****     if (pwrclkchanged == SET)
 590:Drivers/STM32F1xx_HAL_Driver/Src/stm32f1xx_hal_rcc.c ****     {
 591:Drivers/STM32F1xx_HAL_Driver/Src/stm32f1xx_hal_rcc.c ****       __HAL_RCC_PWR_CLK_DISABLE();
 592:Drivers/STM32F1xx_HAL_Driver/Src/stm32f1xx_hal_rcc.c ****     }
 593:Drivers/STM32F1xx_HAL_Driver/Src/stm32f1xx_hal_rcc.c ****   }
 594:Drivers/STM32F1xx_HAL_Driver/Src/stm32f1xx_hal_rcc.c **** 
 595:Drivers/STM32F1xx_HAL_Driver/Src/stm32f1xx_hal_rcc.c **** #if defined(RCC_CR_PLL2ON)
 596:Drivers/STM32F1xx_HAL_Driver/Src/stm32f1xx_hal_rcc.c ****   /*-------------------------------- PLL2 Configuration -----------------------*/
 597:Drivers/STM32F1xx_HAL_Driver/Src/stm32f1xx_hal_rcc.c ****   /* Check the parameters */
 598:Drivers/STM32F1xx_HAL_Driver/Src/stm32f1xx_hal_rcc.c ****   assert_param(IS_RCC_PLL2(RCC_OscInitStruct->PLL2.PLL2State));
 599:Drivers/STM32F1xx_HAL_Driver/Src/stm32f1xx_hal_rcc.c ****   if ((RCC_OscInitStruct->PLL2.PLL2State) != RCC_PLL2_NONE)
 600:Drivers/STM32F1xx_HAL_Driver/Src/stm32f1xx_hal_rcc.c ****   {
 601:Drivers/STM32F1xx_HAL_Driver/Src/stm32f1xx_hal_rcc.c ****     /* This bit can not be cleared if the PLL2 clock is used indirectly as system
 602:Drivers/STM32F1xx_HAL_Driver/Src/stm32f1xx_hal_rcc.c ****       clock (i.e. it is used as PLL clock entry that is used as system clock). */
ARM GAS  C:\Users\shado\AppData\Local\Temp\ccoIiB4i.s 			page 12


 603:Drivers/STM32F1xx_HAL_Driver/Src/stm32f1xx_hal_rcc.c ****     if ((__HAL_RCC_GET_PLL_OSCSOURCE() == RCC_PLLSOURCE_HSE) && \
 604:Drivers/STM32F1xx_HAL_Driver/Src/stm32f1xx_hal_rcc.c ****         (__HAL_RCC_GET_SYSCLK_SOURCE() == RCC_SYSCLKSOURCE_STATUS_PLLCLK) && \
 605:Drivers/STM32F1xx_HAL_Driver/Src/stm32f1xx_hal_rcc.c ****         ((READ_BIT(RCC->CFGR2, RCC_CFGR2_PREDIV1SRC)) == RCC_CFGR2_PREDIV1SRC_PLL2))
 606:Drivers/STM32F1xx_HAL_Driver/Src/stm32f1xx_hal_rcc.c ****     {
 607:Drivers/STM32F1xx_HAL_Driver/Src/stm32f1xx_hal_rcc.c ****       return HAL_ERROR;
 608:Drivers/STM32F1xx_HAL_Driver/Src/stm32f1xx_hal_rcc.c ****     }
 609:Drivers/STM32F1xx_HAL_Driver/Src/stm32f1xx_hal_rcc.c ****     else
 610:Drivers/STM32F1xx_HAL_Driver/Src/stm32f1xx_hal_rcc.c ****     {
 611:Drivers/STM32F1xx_HAL_Driver/Src/stm32f1xx_hal_rcc.c ****       if ((RCC_OscInitStruct->PLL2.PLL2State) == RCC_PLL2_ON)
 612:Drivers/STM32F1xx_HAL_Driver/Src/stm32f1xx_hal_rcc.c ****       {
 613:Drivers/STM32F1xx_HAL_Driver/Src/stm32f1xx_hal_rcc.c ****         /* Check the parameters */
 614:Drivers/STM32F1xx_HAL_Driver/Src/stm32f1xx_hal_rcc.c ****         assert_param(IS_RCC_PLL2_MUL(RCC_OscInitStruct->PLL2.PLL2MUL));
 615:Drivers/STM32F1xx_HAL_Driver/Src/stm32f1xx_hal_rcc.c ****         assert_param(IS_RCC_HSE_PREDIV2(RCC_OscInitStruct->PLL2.HSEPrediv2Value));
 616:Drivers/STM32F1xx_HAL_Driver/Src/stm32f1xx_hal_rcc.c **** 
 617:Drivers/STM32F1xx_HAL_Driver/Src/stm32f1xx_hal_rcc.c ****         /* Prediv2 can be written only when the PLLI2S is disabled. */
 618:Drivers/STM32F1xx_HAL_Driver/Src/stm32f1xx_hal_rcc.c ****         /* Return an error only if new value is different from the programmed value */
 619:Drivers/STM32F1xx_HAL_Driver/Src/stm32f1xx_hal_rcc.c ****         if (HAL_IS_BIT_SET(RCC->CR, RCC_CR_PLL3ON) && \
 620:Drivers/STM32F1xx_HAL_Driver/Src/stm32f1xx_hal_rcc.c ****             (__HAL_RCC_HSE_GET_PREDIV2() != RCC_OscInitStruct->PLL2.HSEPrediv2Value))
 621:Drivers/STM32F1xx_HAL_Driver/Src/stm32f1xx_hal_rcc.c ****         {
 622:Drivers/STM32F1xx_HAL_Driver/Src/stm32f1xx_hal_rcc.c ****           return HAL_ERROR;
 623:Drivers/STM32F1xx_HAL_Driver/Src/stm32f1xx_hal_rcc.c ****         }
 624:Drivers/STM32F1xx_HAL_Driver/Src/stm32f1xx_hal_rcc.c **** 
 625:Drivers/STM32F1xx_HAL_Driver/Src/stm32f1xx_hal_rcc.c ****         /* Disable the main PLL2. */
 626:Drivers/STM32F1xx_HAL_Driver/Src/stm32f1xx_hal_rcc.c ****         __HAL_RCC_PLL2_DISABLE();
 627:Drivers/STM32F1xx_HAL_Driver/Src/stm32f1xx_hal_rcc.c **** 
 628:Drivers/STM32F1xx_HAL_Driver/Src/stm32f1xx_hal_rcc.c ****         /* Get Start Tick */
 629:Drivers/STM32F1xx_HAL_Driver/Src/stm32f1xx_hal_rcc.c ****         tickstart = HAL_GetTick();
 630:Drivers/STM32F1xx_HAL_Driver/Src/stm32f1xx_hal_rcc.c **** 
 631:Drivers/STM32F1xx_HAL_Driver/Src/stm32f1xx_hal_rcc.c ****         /* Wait till PLL2 is disabled */
 632:Drivers/STM32F1xx_HAL_Driver/Src/stm32f1xx_hal_rcc.c ****         while (__HAL_RCC_GET_FLAG(RCC_FLAG_PLL2RDY) != RESET)
 633:Drivers/STM32F1xx_HAL_Driver/Src/stm32f1xx_hal_rcc.c ****         {
 634:Drivers/STM32F1xx_HAL_Driver/Src/stm32f1xx_hal_rcc.c ****           if ((HAL_GetTick() - tickstart) > PLL2_TIMEOUT_VALUE)
 635:Drivers/STM32F1xx_HAL_Driver/Src/stm32f1xx_hal_rcc.c ****           {
 636:Drivers/STM32F1xx_HAL_Driver/Src/stm32f1xx_hal_rcc.c ****             return HAL_TIMEOUT;
 637:Drivers/STM32F1xx_HAL_Driver/Src/stm32f1xx_hal_rcc.c ****           }
 638:Drivers/STM32F1xx_HAL_Driver/Src/stm32f1xx_hal_rcc.c ****         }
 639:Drivers/STM32F1xx_HAL_Driver/Src/stm32f1xx_hal_rcc.c **** 
 640:Drivers/STM32F1xx_HAL_Driver/Src/stm32f1xx_hal_rcc.c ****         /* Configure the HSE prediv2 factor --------------------------------*/
 641:Drivers/STM32F1xx_HAL_Driver/Src/stm32f1xx_hal_rcc.c ****         __HAL_RCC_HSE_PREDIV2_CONFIG(RCC_OscInitStruct->PLL2.HSEPrediv2Value);
 642:Drivers/STM32F1xx_HAL_Driver/Src/stm32f1xx_hal_rcc.c **** 
 643:Drivers/STM32F1xx_HAL_Driver/Src/stm32f1xx_hal_rcc.c ****         /* Configure the main PLL2 multiplication factors. */
 644:Drivers/STM32F1xx_HAL_Driver/Src/stm32f1xx_hal_rcc.c ****         __HAL_RCC_PLL2_CONFIG(RCC_OscInitStruct->PLL2.PLL2MUL);
 645:Drivers/STM32F1xx_HAL_Driver/Src/stm32f1xx_hal_rcc.c **** 
 646:Drivers/STM32F1xx_HAL_Driver/Src/stm32f1xx_hal_rcc.c ****         /* Enable the main PLL2. */
 647:Drivers/STM32F1xx_HAL_Driver/Src/stm32f1xx_hal_rcc.c ****         __HAL_RCC_PLL2_ENABLE();
 648:Drivers/STM32F1xx_HAL_Driver/Src/stm32f1xx_hal_rcc.c **** 
 649:Drivers/STM32F1xx_HAL_Driver/Src/stm32f1xx_hal_rcc.c ****         /* Get Start Tick */
 650:Drivers/STM32F1xx_HAL_Driver/Src/stm32f1xx_hal_rcc.c ****         tickstart = HAL_GetTick();
 651:Drivers/STM32F1xx_HAL_Driver/Src/stm32f1xx_hal_rcc.c **** 
 652:Drivers/STM32F1xx_HAL_Driver/Src/stm32f1xx_hal_rcc.c ****         /* Wait till PLL2 is ready */
 653:Drivers/STM32F1xx_HAL_Driver/Src/stm32f1xx_hal_rcc.c ****         while (__HAL_RCC_GET_FLAG(RCC_FLAG_PLL2RDY)  == RESET)
 654:Drivers/STM32F1xx_HAL_Driver/Src/stm32f1xx_hal_rcc.c ****         {
 655:Drivers/STM32F1xx_HAL_Driver/Src/stm32f1xx_hal_rcc.c ****           if ((HAL_GetTick() - tickstart) > PLL2_TIMEOUT_VALUE)
 656:Drivers/STM32F1xx_HAL_Driver/Src/stm32f1xx_hal_rcc.c ****           {
 657:Drivers/STM32F1xx_HAL_Driver/Src/stm32f1xx_hal_rcc.c ****             return HAL_TIMEOUT;
 658:Drivers/STM32F1xx_HAL_Driver/Src/stm32f1xx_hal_rcc.c ****           }
 659:Drivers/STM32F1xx_HAL_Driver/Src/stm32f1xx_hal_rcc.c ****         }
ARM GAS  C:\Users\shado\AppData\Local\Temp\ccoIiB4i.s 			page 13


 660:Drivers/STM32F1xx_HAL_Driver/Src/stm32f1xx_hal_rcc.c ****       }
 661:Drivers/STM32F1xx_HAL_Driver/Src/stm32f1xx_hal_rcc.c ****       else
 662:Drivers/STM32F1xx_HAL_Driver/Src/stm32f1xx_hal_rcc.c ****       {
 663:Drivers/STM32F1xx_HAL_Driver/Src/stm32f1xx_hal_rcc.c ****         /* Set PREDIV1 source to HSE */
 664:Drivers/STM32F1xx_HAL_Driver/Src/stm32f1xx_hal_rcc.c ****         CLEAR_BIT(RCC->CFGR2, RCC_CFGR2_PREDIV1SRC);
 665:Drivers/STM32F1xx_HAL_Driver/Src/stm32f1xx_hal_rcc.c **** 
 666:Drivers/STM32F1xx_HAL_Driver/Src/stm32f1xx_hal_rcc.c ****         /* Disable the main PLL2. */
 667:Drivers/STM32F1xx_HAL_Driver/Src/stm32f1xx_hal_rcc.c ****         __HAL_RCC_PLL2_DISABLE();
 668:Drivers/STM32F1xx_HAL_Driver/Src/stm32f1xx_hal_rcc.c **** 
 669:Drivers/STM32F1xx_HAL_Driver/Src/stm32f1xx_hal_rcc.c ****         /* Get Start Tick */
 670:Drivers/STM32F1xx_HAL_Driver/Src/stm32f1xx_hal_rcc.c ****         tickstart = HAL_GetTick();
 671:Drivers/STM32F1xx_HAL_Driver/Src/stm32f1xx_hal_rcc.c **** 
 672:Drivers/STM32F1xx_HAL_Driver/Src/stm32f1xx_hal_rcc.c ****         /* Wait till PLL2 is disabled */
 673:Drivers/STM32F1xx_HAL_Driver/Src/stm32f1xx_hal_rcc.c ****         while (__HAL_RCC_GET_FLAG(RCC_FLAG_PLL2RDY)  != RESET)
 674:Drivers/STM32F1xx_HAL_Driver/Src/stm32f1xx_hal_rcc.c ****         {
 675:Drivers/STM32F1xx_HAL_Driver/Src/stm32f1xx_hal_rcc.c ****           if ((HAL_GetTick() - tickstart) > PLL2_TIMEOUT_VALUE)
 676:Drivers/STM32F1xx_HAL_Driver/Src/stm32f1xx_hal_rcc.c ****           {
 677:Drivers/STM32F1xx_HAL_Driver/Src/stm32f1xx_hal_rcc.c ****             return HAL_TIMEOUT;
 678:Drivers/STM32F1xx_HAL_Driver/Src/stm32f1xx_hal_rcc.c ****           }
 679:Drivers/STM32F1xx_HAL_Driver/Src/stm32f1xx_hal_rcc.c ****         }
 680:Drivers/STM32F1xx_HAL_Driver/Src/stm32f1xx_hal_rcc.c ****       }
 681:Drivers/STM32F1xx_HAL_Driver/Src/stm32f1xx_hal_rcc.c ****     }
 682:Drivers/STM32F1xx_HAL_Driver/Src/stm32f1xx_hal_rcc.c ****   }
 683:Drivers/STM32F1xx_HAL_Driver/Src/stm32f1xx_hal_rcc.c **** 
 684:Drivers/STM32F1xx_HAL_Driver/Src/stm32f1xx_hal_rcc.c **** #endif /* RCC_CR_PLL2ON */
 685:Drivers/STM32F1xx_HAL_Driver/Src/stm32f1xx_hal_rcc.c ****   /*-------------------------------- PLL Configuration -----------------------*/
 686:Drivers/STM32F1xx_HAL_Driver/Src/stm32f1xx_hal_rcc.c ****   /* Check the parameters */
 687:Drivers/STM32F1xx_HAL_Driver/Src/stm32f1xx_hal_rcc.c ****   assert_param(IS_RCC_PLL(RCC_OscInitStruct->PLL.PLLState));
 688:Drivers/STM32F1xx_HAL_Driver/Src/stm32f1xx_hal_rcc.c ****   if ((RCC_OscInitStruct->PLL.PLLState) != RCC_PLL_NONE)
 689:Drivers/STM32F1xx_HAL_Driver/Src/stm32f1xx_hal_rcc.c ****   {
 690:Drivers/STM32F1xx_HAL_Driver/Src/stm32f1xx_hal_rcc.c ****     /* Check if the PLL is used as system clock or not */
 691:Drivers/STM32F1xx_HAL_Driver/Src/stm32f1xx_hal_rcc.c ****     if (__HAL_RCC_GET_SYSCLK_SOURCE() != RCC_SYSCLKSOURCE_STATUS_PLLCLK)
 692:Drivers/STM32F1xx_HAL_Driver/Src/stm32f1xx_hal_rcc.c ****     {
 693:Drivers/STM32F1xx_HAL_Driver/Src/stm32f1xx_hal_rcc.c ****       if ((RCC_OscInitStruct->PLL.PLLState) == RCC_PLL_ON)
 694:Drivers/STM32F1xx_HAL_Driver/Src/stm32f1xx_hal_rcc.c ****       {
 695:Drivers/STM32F1xx_HAL_Driver/Src/stm32f1xx_hal_rcc.c ****         /* Check the parameters */
 696:Drivers/STM32F1xx_HAL_Driver/Src/stm32f1xx_hal_rcc.c ****         assert_param(IS_RCC_PLLSOURCE(RCC_OscInitStruct->PLL.PLLSource));
 697:Drivers/STM32F1xx_HAL_Driver/Src/stm32f1xx_hal_rcc.c ****         assert_param(IS_RCC_PLL_MUL(RCC_OscInitStruct->PLL.PLLMUL));
 698:Drivers/STM32F1xx_HAL_Driver/Src/stm32f1xx_hal_rcc.c **** 
 699:Drivers/STM32F1xx_HAL_Driver/Src/stm32f1xx_hal_rcc.c ****         /* Disable the main PLL. */
 700:Drivers/STM32F1xx_HAL_Driver/Src/stm32f1xx_hal_rcc.c ****         __HAL_RCC_PLL_DISABLE();
 701:Drivers/STM32F1xx_HAL_Driver/Src/stm32f1xx_hal_rcc.c **** 
 702:Drivers/STM32F1xx_HAL_Driver/Src/stm32f1xx_hal_rcc.c ****         /* Get Start Tick */
 703:Drivers/STM32F1xx_HAL_Driver/Src/stm32f1xx_hal_rcc.c ****         tickstart = HAL_GetTick();
 704:Drivers/STM32F1xx_HAL_Driver/Src/stm32f1xx_hal_rcc.c **** 
 705:Drivers/STM32F1xx_HAL_Driver/Src/stm32f1xx_hal_rcc.c ****         /* Wait till PLL is disabled */
 706:Drivers/STM32F1xx_HAL_Driver/Src/stm32f1xx_hal_rcc.c ****         while (__HAL_RCC_GET_FLAG(RCC_FLAG_PLLRDY)  != RESET)
 707:Drivers/STM32F1xx_HAL_Driver/Src/stm32f1xx_hal_rcc.c ****         {
 708:Drivers/STM32F1xx_HAL_Driver/Src/stm32f1xx_hal_rcc.c ****           if ((HAL_GetTick() - tickstart) > PLL_TIMEOUT_VALUE)
 709:Drivers/STM32F1xx_HAL_Driver/Src/stm32f1xx_hal_rcc.c ****           {
 710:Drivers/STM32F1xx_HAL_Driver/Src/stm32f1xx_hal_rcc.c ****             return HAL_TIMEOUT;
 711:Drivers/STM32F1xx_HAL_Driver/Src/stm32f1xx_hal_rcc.c ****           }
 712:Drivers/STM32F1xx_HAL_Driver/Src/stm32f1xx_hal_rcc.c ****         }
 713:Drivers/STM32F1xx_HAL_Driver/Src/stm32f1xx_hal_rcc.c **** 
 714:Drivers/STM32F1xx_HAL_Driver/Src/stm32f1xx_hal_rcc.c ****         /* Configure the HSE prediv factor --------------------------------*/
 715:Drivers/STM32F1xx_HAL_Driver/Src/stm32f1xx_hal_rcc.c ****         /* It can be written only when the PLL is disabled. Not used in PLL source is different tha
 716:Drivers/STM32F1xx_HAL_Driver/Src/stm32f1xx_hal_rcc.c ****         if (RCC_OscInitStruct->PLL.PLLSource == RCC_PLLSOURCE_HSE)
ARM GAS  C:\Users\shado\AppData\Local\Temp\ccoIiB4i.s 			page 14


 717:Drivers/STM32F1xx_HAL_Driver/Src/stm32f1xx_hal_rcc.c ****         {
 718:Drivers/STM32F1xx_HAL_Driver/Src/stm32f1xx_hal_rcc.c ****           /* Check the parameter */
 719:Drivers/STM32F1xx_HAL_Driver/Src/stm32f1xx_hal_rcc.c ****           assert_param(IS_RCC_HSE_PREDIV(RCC_OscInitStruct->HSEPredivValue));
 720:Drivers/STM32F1xx_HAL_Driver/Src/stm32f1xx_hal_rcc.c **** #if defined(RCC_CFGR2_PREDIV1SRC)
 721:Drivers/STM32F1xx_HAL_Driver/Src/stm32f1xx_hal_rcc.c ****           assert_param(IS_RCC_PREDIV1_SOURCE(RCC_OscInitStruct->Prediv1Source));
 722:Drivers/STM32F1xx_HAL_Driver/Src/stm32f1xx_hal_rcc.c **** 
 723:Drivers/STM32F1xx_HAL_Driver/Src/stm32f1xx_hal_rcc.c ****           /* Set PREDIV1 source */
 724:Drivers/STM32F1xx_HAL_Driver/Src/stm32f1xx_hal_rcc.c ****           SET_BIT(RCC->CFGR2, RCC_OscInitStruct->Prediv1Source);
 725:Drivers/STM32F1xx_HAL_Driver/Src/stm32f1xx_hal_rcc.c **** #endif /* RCC_CFGR2_PREDIV1SRC */
 726:Drivers/STM32F1xx_HAL_Driver/Src/stm32f1xx_hal_rcc.c **** 
 727:Drivers/STM32F1xx_HAL_Driver/Src/stm32f1xx_hal_rcc.c ****           /* Set PREDIV1 Value */
 728:Drivers/STM32F1xx_HAL_Driver/Src/stm32f1xx_hal_rcc.c ****           __HAL_RCC_HSE_PREDIV_CONFIG(RCC_OscInitStruct->HSEPredivValue);
 729:Drivers/STM32F1xx_HAL_Driver/Src/stm32f1xx_hal_rcc.c ****         }
 730:Drivers/STM32F1xx_HAL_Driver/Src/stm32f1xx_hal_rcc.c **** 
 731:Drivers/STM32F1xx_HAL_Driver/Src/stm32f1xx_hal_rcc.c ****         /* Configure the main PLL clock source and multiplication factors. */
 732:Drivers/STM32F1xx_HAL_Driver/Src/stm32f1xx_hal_rcc.c ****         __HAL_RCC_PLL_CONFIG(RCC_OscInitStruct->PLL.PLLSource,
 733:Drivers/STM32F1xx_HAL_Driver/Src/stm32f1xx_hal_rcc.c ****                              RCC_OscInitStruct->PLL.PLLMUL);
 734:Drivers/STM32F1xx_HAL_Driver/Src/stm32f1xx_hal_rcc.c ****         /* Enable the main PLL. */
 735:Drivers/STM32F1xx_HAL_Driver/Src/stm32f1xx_hal_rcc.c ****         __HAL_RCC_PLL_ENABLE();
 736:Drivers/STM32F1xx_HAL_Driver/Src/stm32f1xx_hal_rcc.c **** 
 737:Drivers/STM32F1xx_HAL_Driver/Src/stm32f1xx_hal_rcc.c ****         /* Get Start Tick */
 738:Drivers/STM32F1xx_HAL_Driver/Src/stm32f1xx_hal_rcc.c ****         tickstart = HAL_GetTick();
 739:Drivers/STM32F1xx_HAL_Driver/Src/stm32f1xx_hal_rcc.c **** 
 740:Drivers/STM32F1xx_HAL_Driver/Src/stm32f1xx_hal_rcc.c ****         /* Wait till PLL is ready */
 741:Drivers/STM32F1xx_HAL_Driver/Src/stm32f1xx_hal_rcc.c ****         while (__HAL_RCC_GET_FLAG(RCC_FLAG_PLLRDY)  == RESET)
 742:Drivers/STM32F1xx_HAL_Driver/Src/stm32f1xx_hal_rcc.c ****         {
 743:Drivers/STM32F1xx_HAL_Driver/Src/stm32f1xx_hal_rcc.c ****           if ((HAL_GetTick() - tickstart) > PLL_TIMEOUT_VALUE)
 744:Drivers/STM32F1xx_HAL_Driver/Src/stm32f1xx_hal_rcc.c ****           {
 745:Drivers/STM32F1xx_HAL_Driver/Src/stm32f1xx_hal_rcc.c ****             return HAL_TIMEOUT;
 746:Drivers/STM32F1xx_HAL_Driver/Src/stm32f1xx_hal_rcc.c ****           }
 747:Drivers/STM32F1xx_HAL_Driver/Src/stm32f1xx_hal_rcc.c ****         }
 748:Drivers/STM32F1xx_HAL_Driver/Src/stm32f1xx_hal_rcc.c ****       }
 749:Drivers/STM32F1xx_HAL_Driver/Src/stm32f1xx_hal_rcc.c ****       else
 750:Drivers/STM32F1xx_HAL_Driver/Src/stm32f1xx_hal_rcc.c ****       {
 751:Drivers/STM32F1xx_HAL_Driver/Src/stm32f1xx_hal_rcc.c ****         /* Disable the main PLL. */
 752:Drivers/STM32F1xx_HAL_Driver/Src/stm32f1xx_hal_rcc.c ****         __HAL_RCC_PLL_DISABLE();
 753:Drivers/STM32F1xx_HAL_Driver/Src/stm32f1xx_hal_rcc.c **** 
 754:Drivers/STM32F1xx_HAL_Driver/Src/stm32f1xx_hal_rcc.c ****         /* Get Start Tick */
 755:Drivers/STM32F1xx_HAL_Driver/Src/stm32f1xx_hal_rcc.c ****         tickstart = HAL_GetTick();
 756:Drivers/STM32F1xx_HAL_Driver/Src/stm32f1xx_hal_rcc.c **** 
 757:Drivers/STM32F1xx_HAL_Driver/Src/stm32f1xx_hal_rcc.c ****         /* Wait till PLL is disabled */
 758:Drivers/STM32F1xx_HAL_Driver/Src/stm32f1xx_hal_rcc.c ****         while (__HAL_RCC_GET_FLAG(RCC_FLAG_PLLRDY)  != RESET)
 759:Drivers/STM32F1xx_HAL_Driver/Src/stm32f1xx_hal_rcc.c ****         {
 760:Drivers/STM32F1xx_HAL_Driver/Src/stm32f1xx_hal_rcc.c ****           if ((HAL_GetTick() - tickstart) > PLL_TIMEOUT_VALUE)
 761:Drivers/STM32F1xx_HAL_Driver/Src/stm32f1xx_hal_rcc.c ****           {
 762:Drivers/STM32F1xx_HAL_Driver/Src/stm32f1xx_hal_rcc.c ****             return HAL_TIMEOUT;
 763:Drivers/STM32F1xx_HAL_Driver/Src/stm32f1xx_hal_rcc.c ****           }
 764:Drivers/STM32F1xx_HAL_Driver/Src/stm32f1xx_hal_rcc.c ****         }
 765:Drivers/STM32F1xx_HAL_Driver/Src/stm32f1xx_hal_rcc.c ****       }
 766:Drivers/STM32F1xx_HAL_Driver/Src/stm32f1xx_hal_rcc.c ****     }
 767:Drivers/STM32F1xx_HAL_Driver/Src/stm32f1xx_hal_rcc.c ****     else
 768:Drivers/STM32F1xx_HAL_Driver/Src/stm32f1xx_hal_rcc.c ****     {
 769:Drivers/STM32F1xx_HAL_Driver/Src/stm32f1xx_hal_rcc.c ****       /* Check if there is a request to disable the PLL used as System clock source */
 770:Drivers/STM32F1xx_HAL_Driver/Src/stm32f1xx_hal_rcc.c ****       if ((RCC_OscInitStruct->PLL.PLLState) == RCC_PLL_OFF)
 771:Drivers/STM32F1xx_HAL_Driver/Src/stm32f1xx_hal_rcc.c ****       {
 772:Drivers/STM32F1xx_HAL_Driver/Src/stm32f1xx_hal_rcc.c ****         return HAL_ERROR;
 773:Drivers/STM32F1xx_HAL_Driver/Src/stm32f1xx_hal_rcc.c ****       }
ARM GAS  C:\Users\shado\AppData\Local\Temp\ccoIiB4i.s 			page 15


 774:Drivers/STM32F1xx_HAL_Driver/Src/stm32f1xx_hal_rcc.c ****       else
 775:Drivers/STM32F1xx_HAL_Driver/Src/stm32f1xx_hal_rcc.c ****       {
 776:Drivers/STM32F1xx_HAL_Driver/Src/stm32f1xx_hal_rcc.c ****         /* Do not return HAL_ERROR if request repeats the current configuration */
 777:Drivers/STM32F1xx_HAL_Driver/Src/stm32f1xx_hal_rcc.c ****         pll_config = RCC->CFGR;
 778:Drivers/STM32F1xx_HAL_Driver/Src/stm32f1xx_hal_rcc.c ****         if ((READ_BIT(pll_config, RCC_CFGR_PLLSRC) != RCC_OscInitStruct->PLL.PLLSource) ||
 779:Drivers/STM32F1xx_HAL_Driver/Src/stm32f1xx_hal_rcc.c ****             (READ_BIT(pll_config, RCC_CFGR_PLLMULL) != RCC_OscInitStruct->PLL.PLLMUL))
 780:Drivers/STM32F1xx_HAL_Driver/Src/stm32f1xx_hal_rcc.c ****         {
 781:Drivers/STM32F1xx_HAL_Driver/Src/stm32f1xx_hal_rcc.c ****           return HAL_ERROR;
 782:Drivers/STM32F1xx_HAL_Driver/Src/stm32f1xx_hal_rcc.c ****         }
 783:Drivers/STM32F1xx_HAL_Driver/Src/stm32f1xx_hal_rcc.c ****       }
 784:Drivers/STM32F1xx_HAL_Driver/Src/stm32f1xx_hal_rcc.c ****     }
 785:Drivers/STM32F1xx_HAL_Driver/Src/stm32f1xx_hal_rcc.c ****   }
 786:Drivers/STM32F1xx_HAL_Driver/Src/stm32f1xx_hal_rcc.c **** 
 787:Drivers/STM32F1xx_HAL_Driver/Src/stm32f1xx_hal_rcc.c ****   return HAL_OK;
 788:Drivers/STM32F1xx_HAL_Driver/Src/stm32f1xx_hal_rcc.c **** }
 789:Drivers/STM32F1xx_HAL_Driver/Src/stm32f1xx_hal_rcc.c **** 
 790:Drivers/STM32F1xx_HAL_Driver/Src/stm32f1xx_hal_rcc.c **** /**
 791:Drivers/STM32F1xx_HAL_Driver/Src/stm32f1xx_hal_rcc.c ****   * @brief  Initializes the CPU, AHB and APB buses clocks according to the specified
 792:Drivers/STM32F1xx_HAL_Driver/Src/stm32f1xx_hal_rcc.c ****   *         parameters in the RCC_ClkInitStruct.
 793:Drivers/STM32F1xx_HAL_Driver/Src/stm32f1xx_hal_rcc.c ****   * @param  RCC_ClkInitStruct pointer to an RCC_OscInitTypeDef structure that
 794:Drivers/STM32F1xx_HAL_Driver/Src/stm32f1xx_hal_rcc.c ****   *         contains the configuration information for the RCC peripheral.
 795:Drivers/STM32F1xx_HAL_Driver/Src/stm32f1xx_hal_rcc.c ****   * @param  FLatency FLASH Latency
 796:Drivers/STM32F1xx_HAL_Driver/Src/stm32f1xx_hal_rcc.c ****   *          The value of this parameter depend on device used within the same series
 797:Drivers/STM32F1xx_HAL_Driver/Src/stm32f1xx_hal_rcc.c ****   * @note   The SystemCoreClock CMSIS variable is used to store System Clock Frequency
 798:Drivers/STM32F1xx_HAL_Driver/Src/stm32f1xx_hal_rcc.c ****   *         and updated by @ref HAL_RCC_GetHCLKFreq() function called within this function
 799:Drivers/STM32F1xx_HAL_Driver/Src/stm32f1xx_hal_rcc.c ****   *
 800:Drivers/STM32F1xx_HAL_Driver/Src/stm32f1xx_hal_rcc.c ****   * @note   The HSI is used (enabled by hardware) as system clock source after
 801:Drivers/STM32F1xx_HAL_Driver/Src/stm32f1xx_hal_rcc.c ****   *         start-up from Reset, wake-up from STOP and STANDBY mode, or in case
 802:Drivers/STM32F1xx_HAL_Driver/Src/stm32f1xx_hal_rcc.c ****   *         of failure of the HSE used directly or indirectly as system clock
 803:Drivers/STM32F1xx_HAL_Driver/Src/stm32f1xx_hal_rcc.c ****   *         (if the Clock Security System CSS is enabled).
 804:Drivers/STM32F1xx_HAL_Driver/Src/stm32f1xx_hal_rcc.c ****   *
 805:Drivers/STM32F1xx_HAL_Driver/Src/stm32f1xx_hal_rcc.c ****   * @note   A switch from one clock source to another occurs only if the target
 806:Drivers/STM32F1xx_HAL_Driver/Src/stm32f1xx_hal_rcc.c ****   *         clock source is ready (clock stable after start-up delay or PLL locked).
 807:Drivers/STM32F1xx_HAL_Driver/Src/stm32f1xx_hal_rcc.c ****   *         If a clock source which is not yet ready is selected, the switch will
 808:Drivers/STM32F1xx_HAL_Driver/Src/stm32f1xx_hal_rcc.c ****   *         occur when the clock source will be ready.
 809:Drivers/STM32F1xx_HAL_Driver/Src/stm32f1xx_hal_rcc.c ****   *         You can use @ref HAL_RCC_GetClockConfig() function to know which clock is
 810:Drivers/STM32F1xx_HAL_Driver/Src/stm32f1xx_hal_rcc.c ****   *         currently used as system clock source.
 811:Drivers/STM32F1xx_HAL_Driver/Src/stm32f1xx_hal_rcc.c ****   * @retval HAL status
 812:Drivers/STM32F1xx_HAL_Driver/Src/stm32f1xx_hal_rcc.c ****   */
 813:Drivers/STM32F1xx_HAL_Driver/Src/stm32f1xx_hal_rcc.c **** HAL_StatusTypeDef HAL_RCC_ClockConfig(RCC_ClkInitTypeDef  *RCC_ClkInitStruct, uint32_t FLatency)
 814:Drivers/STM32F1xx_HAL_Driver/Src/stm32f1xx_hal_rcc.c **** {
 815:Drivers/STM32F1xx_HAL_Driver/Src/stm32f1xx_hal_rcc.c ****   uint32_t tickstart;
 816:Drivers/STM32F1xx_HAL_Driver/Src/stm32f1xx_hal_rcc.c **** 
 817:Drivers/STM32F1xx_HAL_Driver/Src/stm32f1xx_hal_rcc.c ****   /* Check Null pointer */
 818:Drivers/STM32F1xx_HAL_Driver/Src/stm32f1xx_hal_rcc.c ****   if (RCC_ClkInitStruct == NULL)
 819:Drivers/STM32F1xx_HAL_Driver/Src/stm32f1xx_hal_rcc.c ****   {
 820:Drivers/STM32F1xx_HAL_Driver/Src/stm32f1xx_hal_rcc.c ****     return HAL_ERROR;
 821:Drivers/STM32F1xx_HAL_Driver/Src/stm32f1xx_hal_rcc.c ****   }
 822:Drivers/STM32F1xx_HAL_Driver/Src/stm32f1xx_hal_rcc.c **** 
 823:Drivers/STM32F1xx_HAL_Driver/Src/stm32f1xx_hal_rcc.c ****   /* Check the parameters */
 824:Drivers/STM32F1xx_HAL_Driver/Src/stm32f1xx_hal_rcc.c ****   assert_param(IS_RCC_CLOCKTYPE(RCC_ClkInitStruct->ClockType));
 825:Drivers/STM32F1xx_HAL_Driver/Src/stm32f1xx_hal_rcc.c ****   assert_param(IS_FLASH_LATENCY(FLatency));
 826:Drivers/STM32F1xx_HAL_Driver/Src/stm32f1xx_hal_rcc.c **** 
 827:Drivers/STM32F1xx_HAL_Driver/Src/stm32f1xx_hal_rcc.c ****   /* To correctly read data from FLASH memory, the number of wait states (LATENCY)
 828:Drivers/STM32F1xx_HAL_Driver/Src/stm32f1xx_hal_rcc.c ****   must be correctly programmed according to the frequency of the CPU clock
 829:Drivers/STM32F1xx_HAL_Driver/Src/stm32f1xx_hal_rcc.c ****     (HCLK) of the device. */
 830:Drivers/STM32F1xx_HAL_Driver/Src/stm32f1xx_hal_rcc.c **** 
ARM GAS  C:\Users\shado\AppData\Local\Temp\ccoIiB4i.s 			page 16


 831:Drivers/STM32F1xx_HAL_Driver/Src/stm32f1xx_hal_rcc.c **** #if defined(FLASH_ACR_LATENCY)
 832:Drivers/STM32F1xx_HAL_Driver/Src/stm32f1xx_hal_rcc.c ****   /* Increasing the number of wait states because of higher CPU frequency */
 833:Drivers/STM32F1xx_HAL_Driver/Src/stm32f1xx_hal_rcc.c ****   if (FLatency > __HAL_FLASH_GET_LATENCY())
 834:Drivers/STM32F1xx_HAL_Driver/Src/stm32f1xx_hal_rcc.c ****   {
 835:Drivers/STM32F1xx_HAL_Driver/Src/stm32f1xx_hal_rcc.c ****     /* Program the new number of wait states to the LATENCY bits in the FLASH_ACR register */
 836:Drivers/STM32F1xx_HAL_Driver/Src/stm32f1xx_hal_rcc.c ****     __HAL_FLASH_SET_LATENCY(FLatency);
 837:Drivers/STM32F1xx_HAL_Driver/Src/stm32f1xx_hal_rcc.c **** 
 838:Drivers/STM32F1xx_HAL_Driver/Src/stm32f1xx_hal_rcc.c ****     /* Check that the new number of wait states is taken into account to access the Flash
 839:Drivers/STM32F1xx_HAL_Driver/Src/stm32f1xx_hal_rcc.c ****     memory by reading the FLASH_ACR register */
 840:Drivers/STM32F1xx_HAL_Driver/Src/stm32f1xx_hal_rcc.c ****     if (__HAL_FLASH_GET_LATENCY() != FLatency)
 841:Drivers/STM32F1xx_HAL_Driver/Src/stm32f1xx_hal_rcc.c ****   {
 842:Drivers/STM32F1xx_HAL_Driver/Src/stm32f1xx_hal_rcc.c ****     return HAL_ERROR;
 843:Drivers/STM32F1xx_HAL_Driver/Src/stm32f1xx_hal_rcc.c ****   }
 844:Drivers/STM32F1xx_HAL_Driver/Src/stm32f1xx_hal_rcc.c **** }
 845:Drivers/STM32F1xx_HAL_Driver/Src/stm32f1xx_hal_rcc.c **** 
 846:Drivers/STM32F1xx_HAL_Driver/Src/stm32f1xx_hal_rcc.c **** #endif /* FLASH_ACR_LATENCY */
 847:Drivers/STM32F1xx_HAL_Driver/Src/stm32f1xx_hal_rcc.c **** /*-------------------------- HCLK Configuration --------------------------*/
 848:Drivers/STM32F1xx_HAL_Driver/Src/stm32f1xx_hal_rcc.c **** if (((RCC_ClkInitStruct->ClockType) & RCC_CLOCKTYPE_HCLK) == RCC_CLOCKTYPE_HCLK)
 849:Drivers/STM32F1xx_HAL_Driver/Src/stm32f1xx_hal_rcc.c ****   {
 850:Drivers/STM32F1xx_HAL_Driver/Src/stm32f1xx_hal_rcc.c ****     /* Set the highest APBx dividers in order to ensure that we do not go through
 851:Drivers/STM32F1xx_HAL_Driver/Src/stm32f1xx_hal_rcc.c ****     a non-spec phase whatever we decrease or increase HCLK. */
 852:Drivers/STM32F1xx_HAL_Driver/Src/stm32f1xx_hal_rcc.c ****     if (((RCC_ClkInitStruct->ClockType) & RCC_CLOCKTYPE_PCLK1) == RCC_CLOCKTYPE_PCLK1)
 853:Drivers/STM32F1xx_HAL_Driver/Src/stm32f1xx_hal_rcc.c ****     {
 854:Drivers/STM32F1xx_HAL_Driver/Src/stm32f1xx_hal_rcc.c ****       MODIFY_REG(RCC->CFGR, RCC_CFGR_PPRE1, RCC_HCLK_DIV16);
 855:Drivers/STM32F1xx_HAL_Driver/Src/stm32f1xx_hal_rcc.c ****     }
 856:Drivers/STM32F1xx_HAL_Driver/Src/stm32f1xx_hal_rcc.c **** 
 857:Drivers/STM32F1xx_HAL_Driver/Src/stm32f1xx_hal_rcc.c ****     if (((RCC_ClkInitStruct->ClockType) & RCC_CLOCKTYPE_PCLK2) == RCC_CLOCKTYPE_PCLK2)
 858:Drivers/STM32F1xx_HAL_Driver/Src/stm32f1xx_hal_rcc.c ****     {
 859:Drivers/STM32F1xx_HAL_Driver/Src/stm32f1xx_hal_rcc.c ****       MODIFY_REG(RCC->CFGR, RCC_CFGR_PPRE2, (RCC_HCLK_DIV16 << 3));
 860:Drivers/STM32F1xx_HAL_Driver/Src/stm32f1xx_hal_rcc.c ****     }
 861:Drivers/STM32F1xx_HAL_Driver/Src/stm32f1xx_hal_rcc.c **** 
 862:Drivers/STM32F1xx_HAL_Driver/Src/stm32f1xx_hal_rcc.c ****     /* Set the new HCLK clock divider */
 863:Drivers/STM32F1xx_HAL_Driver/Src/stm32f1xx_hal_rcc.c ****     assert_param(IS_RCC_HCLK(RCC_ClkInitStruct->AHBCLKDivider));
 864:Drivers/STM32F1xx_HAL_Driver/Src/stm32f1xx_hal_rcc.c ****     MODIFY_REG(RCC->CFGR, RCC_CFGR_HPRE, RCC_ClkInitStruct->AHBCLKDivider);
 865:Drivers/STM32F1xx_HAL_Driver/Src/stm32f1xx_hal_rcc.c ****   }
 866:Drivers/STM32F1xx_HAL_Driver/Src/stm32f1xx_hal_rcc.c **** 
 867:Drivers/STM32F1xx_HAL_Driver/Src/stm32f1xx_hal_rcc.c ****   /*------------------------- SYSCLK Configuration ---------------------------*/
 868:Drivers/STM32F1xx_HAL_Driver/Src/stm32f1xx_hal_rcc.c ****   if (((RCC_ClkInitStruct->ClockType) & RCC_CLOCKTYPE_SYSCLK) == RCC_CLOCKTYPE_SYSCLK)
 869:Drivers/STM32F1xx_HAL_Driver/Src/stm32f1xx_hal_rcc.c ****   {
 870:Drivers/STM32F1xx_HAL_Driver/Src/stm32f1xx_hal_rcc.c ****     assert_param(IS_RCC_SYSCLKSOURCE(RCC_ClkInitStruct->SYSCLKSource));
 871:Drivers/STM32F1xx_HAL_Driver/Src/stm32f1xx_hal_rcc.c **** 
 872:Drivers/STM32F1xx_HAL_Driver/Src/stm32f1xx_hal_rcc.c ****     /* HSE is selected as System Clock Source */
 873:Drivers/STM32F1xx_HAL_Driver/Src/stm32f1xx_hal_rcc.c ****     if (RCC_ClkInitStruct->SYSCLKSource == RCC_SYSCLKSOURCE_HSE)
 874:Drivers/STM32F1xx_HAL_Driver/Src/stm32f1xx_hal_rcc.c ****     {
 875:Drivers/STM32F1xx_HAL_Driver/Src/stm32f1xx_hal_rcc.c ****       /* Check the HSE ready flag */
 876:Drivers/STM32F1xx_HAL_Driver/Src/stm32f1xx_hal_rcc.c ****       if (__HAL_RCC_GET_FLAG(RCC_FLAG_HSERDY) == RESET)
 877:Drivers/STM32F1xx_HAL_Driver/Src/stm32f1xx_hal_rcc.c ****       {
 878:Drivers/STM32F1xx_HAL_Driver/Src/stm32f1xx_hal_rcc.c ****         return HAL_ERROR;
 879:Drivers/STM32F1xx_HAL_Driver/Src/stm32f1xx_hal_rcc.c ****       }
 880:Drivers/STM32F1xx_HAL_Driver/Src/stm32f1xx_hal_rcc.c ****     }
 881:Drivers/STM32F1xx_HAL_Driver/Src/stm32f1xx_hal_rcc.c ****     /* PLL is selected as System Clock Source */
 882:Drivers/STM32F1xx_HAL_Driver/Src/stm32f1xx_hal_rcc.c ****     else if (RCC_ClkInitStruct->SYSCLKSource == RCC_SYSCLKSOURCE_PLLCLK)
 883:Drivers/STM32F1xx_HAL_Driver/Src/stm32f1xx_hal_rcc.c ****     {
 884:Drivers/STM32F1xx_HAL_Driver/Src/stm32f1xx_hal_rcc.c ****       /* Check the PLL ready flag */
 885:Drivers/STM32F1xx_HAL_Driver/Src/stm32f1xx_hal_rcc.c ****       if (__HAL_RCC_GET_FLAG(RCC_FLAG_PLLRDY) == RESET)
 886:Drivers/STM32F1xx_HAL_Driver/Src/stm32f1xx_hal_rcc.c ****       {
 887:Drivers/STM32F1xx_HAL_Driver/Src/stm32f1xx_hal_rcc.c ****         return HAL_ERROR;
ARM GAS  C:\Users\shado\AppData\Local\Temp\ccoIiB4i.s 			page 17


 888:Drivers/STM32F1xx_HAL_Driver/Src/stm32f1xx_hal_rcc.c ****       }
 889:Drivers/STM32F1xx_HAL_Driver/Src/stm32f1xx_hal_rcc.c ****     }
 890:Drivers/STM32F1xx_HAL_Driver/Src/stm32f1xx_hal_rcc.c ****     /* HSI is selected as System Clock Source */
 891:Drivers/STM32F1xx_HAL_Driver/Src/stm32f1xx_hal_rcc.c ****     else
 892:Drivers/STM32F1xx_HAL_Driver/Src/stm32f1xx_hal_rcc.c ****     {
 893:Drivers/STM32F1xx_HAL_Driver/Src/stm32f1xx_hal_rcc.c ****       /* Check the HSI ready flag */
 894:Drivers/STM32F1xx_HAL_Driver/Src/stm32f1xx_hal_rcc.c ****       if (__HAL_RCC_GET_FLAG(RCC_FLAG_HSIRDY) == RESET)
 895:Drivers/STM32F1xx_HAL_Driver/Src/stm32f1xx_hal_rcc.c ****       {
 896:Drivers/STM32F1xx_HAL_Driver/Src/stm32f1xx_hal_rcc.c ****         return HAL_ERROR;
 897:Drivers/STM32F1xx_HAL_Driver/Src/stm32f1xx_hal_rcc.c ****       }
 898:Drivers/STM32F1xx_HAL_Driver/Src/stm32f1xx_hal_rcc.c ****     }
 899:Drivers/STM32F1xx_HAL_Driver/Src/stm32f1xx_hal_rcc.c ****     __HAL_RCC_SYSCLK_CONFIG(RCC_ClkInitStruct->SYSCLKSource);
 900:Drivers/STM32F1xx_HAL_Driver/Src/stm32f1xx_hal_rcc.c **** 
 901:Drivers/STM32F1xx_HAL_Driver/Src/stm32f1xx_hal_rcc.c ****     /* Get Start Tick */
 902:Drivers/STM32F1xx_HAL_Driver/Src/stm32f1xx_hal_rcc.c ****     tickstart = HAL_GetTick();
 903:Drivers/STM32F1xx_HAL_Driver/Src/stm32f1xx_hal_rcc.c **** 
 904:Drivers/STM32F1xx_HAL_Driver/Src/stm32f1xx_hal_rcc.c ****     while (__HAL_RCC_GET_SYSCLK_SOURCE() != (RCC_ClkInitStruct->SYSCLKSource << RCC_CFGR_SWS_Pos))
 905:Drivers/STM32F1xx_HAL_Driver/Src/stm32f1xx_hal_rcc.c ****     {
 906:Drivers/STM32F1xx_HAL_Driver/Src/stm32f1xx_hal_rcc.c ****       if ((HAL_GetTick() - tickstart) > CLOCKSWITCH_TIMEOUT_VALUE)
 907:Drivers/STM32F1xx_HAL_Driver/Src/stm32f1xx_hal_rcc.c ****       {
 908:Drivers/STM32F1xx_HAL_Driver/Src/stm32f1xx_hal_rcc.c ****         return HAL_TIMEOUT;
 909:Drivers/STM32F1xx_HAL_Driver/Src/stm32f1xx_hal_rcc.c ****       }
 910:Drivers/STM32F1xx_HAL_Driver/Src/stm32f1xx_hal_rcc.c ****     }
 911:Drivers/STM32F1xx_HAL_Driver/Src/stm32f1xx_hal_rcc.c ****   }
 912:Drivers/STM32F1xx_HAL_Driver/Src/stm32f1xx_hal_rcc.c **** 
 913:Drivers/STM32F1xx_HAL_Driver/Src/stm32f1xx_hal_rcc.c **** #if defined(FLASH_ACR_LATENCY)
 914:Drivers/STM32F1xx_HAL_Driver/Src/stm32f1xx_hal_rcc.c ****   /* Decreasing the number of wait states because of lower CPU frequency */
 915:Drivers/STM32F1xx_HAL_Driver/Src/stm32f1xx_hal_rcc.c ****   if (FLatency < __HAL_FLASH_GET_LATENCY())
 916:Drivers/STM32F1xx_HAL_Driver/Src/stm32f1xx_hal_rcc.c ****   {
 917:Drivers/STM32F1xx_HAL_Driver/Src/stm32f1xx_hal_rcc.c ****     /* Program the new number of wait states to the LATENCY bits in the FLASH_ACR register */
 918:Drivers/STM32F1xx_HAL_Driver/Src/stm32f1xx_hal_rcc.c ****     __HAL_FLASH_SET_LATENCY(FLatency);
 919:Drivers/STM32F1xx_HAL_Driver/Src/stm32f1xx_hal_rcc.c **** 
 920:Drivers/STM32F1xx_HAL_Driver/Src/stm32f1xx_hal_rcc.c ****     /* Check that the new number of wait states is taken into account to access the Flash
 921:Drivers/STM32F1xx_HAL_Driver/Src/stm32f1xx_hal_rcc.c ****     memory by reading the FLASH_ACR register */
 922:Drivers/STM32F1xx_HAL_Driver/Src/stm32f1xx_hal_rcc.c ****     if (__HAL_FLASH_GET_LATENCY() != FLatency)
 923:Drivers/STM32F1xx_HAL_Driver/Src/stm32f1xx_hal_rcc.c ****   {
 924:Drivers/STM32F1xx_HAL_Driver/Src/stm32f1xx_hal_rcc.c ****     return HAL_ERROR;
 925:Drivers/STM32F1xx_HAL_Driver/Src/stm32f1xx_hal_rcc.c ****   }
 926:Drivers/STM32F1xx_HAL_Driver/Src/stm32f1xx_hal_rcc.c **** }
 927:Drivers/STM32F1xx_HAL_Driver/Src/stm32f1xx_hal_rcc.c **** #endif /* FLASH_ACR_LATENCY */
 928:Drivers/STM32F1xx_HAL_Driver/Src/stm32f1xx_hal_rcc.c **** 
 929:Drivers/STM32F1xx_HAL_Driver/Src/stm32f1xx_hal_rcc.c **** /*-------------------------- PCLK1 Configuration ---------------------------*/
 930:Drivers/STM32F1xx_HAL_Driver/Src/stm32f1xx_hal_rcc.c **** if (((RCC_ClkInitStruct->ClockType) & RCC_CLOCKTYPE_PCLK1) == RCC_CLOCKTYPE_PCLK1)
 931:Drivers/STM32F1xx_HAL_Driver/Src/stm32f1xx_hal_rcc.c ****   {
 932:Drivers/STM32F1xx_HAL_Driver/Src/stm32f1xx_hal_rcc.c ****     assert_param(IS_RCC_PCLK(RCC_ClkInitStruct->APB1CLKDivider));
 933:Drivers/STM32F1xx_HAL_Driver/Src/stm32f1xx_hal_rcc.c ****     MODIFY_REG(RCC->CFGR, RCC_CFGR_PPRE1, RCC_ClkInitStruct->APB1CLKDivider);
 934:Drivers/STM32F1xx_HAL_Driver/Src/stm32f1xx_hal_rcc.c ****   }
 935:Drivers/STM32F1xx_HAL_Driver/Src/stm32f1xx_hal_rcc.c **** 
 936:Drivers/STM32F1xx_HAL_Driver/Src/stm32f1xx_hal_rcc.c ****   /*-------------------------- PCLK2 Configuration ---------------------------*/
 937:Drivers/STM32F1xx_HAL_Driver/Src/stm32f1xx_hal_rcc.c ****   if (((RCC_ClkInitStruct->ClockType) & RCC_CLOCKTYPE_PCLK2) == RCC_CLOCKTYPE_PCLK2)
 938:Drivers/STM32F1xx_HAL_Driver/Src/stm32f1xx_hal_rcc.c ****   {
 939:Drivers/STM32F1xx_HAL_Driver/Src/stm32f1xx_hal_rcc.c ****     assert_param(IS_RCC_PCLK(RCC_ClkInitStruct->APB2CLKDivider));
 940:Drivers/STM32F1xx_HAL_Driver/Src/stm32f1xx_hal_rcc.c ****     MODIFY_REG(RCC->CFGR, RCC_CFGR_PPRE2, ((RCC_ClkInitStruct->APB2CLKDivider) << 3));
 941:Drivers/STM32F1xx_HAL_Driver/Src/stm32f1xx_hal_rcc.c ****   }
 942:Drivers/STM32F1xx_HAL_Driver/Src/stm32f1xx_hal_rcc.c **** 
 943:Drivers/STM32F1xx_HAL_Driver/Src/stm32f1xx_hal_rcc.c ****   /* Update the SystemCoreClock global variable */
 944:Drivers/STM32F1xx_HAL_Driver/Src/stm32f1xx_hal_rcc.c ****   SystemCoreClock = HAL_RCC_GetSysClockFreq() >> AHBPrescTable[(RCC->CFGR & RCC_CFGR_HPRE) >> RCC_C
ARM GAS  C:\Users\shado\AppData\Local\Temp\ccoIiB4i.s 			page 18


 945:Drivers/STM32F1xx_HAL_Driver/Src/stm32f1xx_hal_rcc.c **** 
 946:Drivers/STM32F1xx_HAL_Driver/Src/stm32f1xx_hal_rcc.c ****   /* Configure the source of time base considering new system clocks settings*/
 947:Drivers/STM32F1xx_HAL_Driver/Src/stm32f1xx_hal_rcc.c ****   HAL_InitTick(uwTickPrio);
 948:Drivers/STM32F1xx_HAL_Driver/Src/stm32f1xx_hal_rcc.c **** 
 949:Drivers/STM32F1xx_HAL_Driver/Src/stm32f1xx_hal_rcc.c ****   return HAL_OK;
 950:Drivers/STM32F1xx_HAL_Driver/Src/stm32f1xx_hal_rcc.c **** }
 951:Drivers/STM32F1xx_HAL_Driver/Src/stm32f1xx_hal_rcc.c **** 
 952:Drivers/STM32F1xx_HAL_Driver/Src/stm32f1xx_hal_rcc.c **** /**
 953:Drivers/STM32F1xx_HAL_Driver/Src/stm32f1xx_hal_rcc.c ****   * @}
 954:Drivers/STM32F1xx_HAL_Driver/Src/stm32f1xx_hal_rcc.c ****   */
 955:Drivers/STM32F1xx_HAL_Driver/Src/stm32f1xx_hal_rcc.c **** 
 956:Drivers/STM32F1xx_HAL_Driver/Src/stm32f1xx_hal_rcc.c **** /** @defgroup RCC_Exported_Functions_Group2 Peripheral Control functions
 957:Drivers/STM32F1xx_HAL_Driver/Src/stm32f1xx_hal_rcc.c ****   *  @brief   RCC clocks control functions
 958:Drivers/STM32F1xx_HAL_Driver/Src/stm32f1xx_hal_rcc.c ****   *
 959:Drivers/STM32F1xx_HAL_Driver/Src/stm32f1xx_hal_rcc.c ****   @verbatim
 960:Drivers/STM32F1xx_HAL_Driver/Src/stm32f1xx_hal_rcc.c ****   ===============================================================================
 961:Drivers/STM32F1xx_HAL_Driver/Src/stm32f1xx_hal_rcc.c ****                   ##### Peripheral Control functions #####
 962:Drivers/STM32F1xx_HAL_Driver/Src/stm32f1xx_hal_rcc.c ****   ===============================================================================
 963:Drivers/STM32F1xx_HAL_Driver/Src/stm32f1xx_hal_rcc.c ****     [..]
 964:Drivers/STM32F1xx_HAL_Driver/Src/stm32f1xx_hal_rcc.c ****     This subsection provides a set of functions allowing to control the RCC Clocks
 965:Drivers/STM32F1xx_HAL_Driver/Src/stm32f1xx_hal_rcc.c ****     frequencies.
 966:Drivers/STM32F1xx_HAL_Driver/Src/stm32f1xx_hal_rcc.c **** 
 967:Drivers/STM32F1xx_HAL_Driver/Src/stm32f1xx_hal_rcc.c ****   @endverbatim
 968:Drivers/STM32F1xx_HAL_Driver/Src/stm32f1xx_hal_rcc.c ****   * @{
 969:Drivers/STM32F1xx_HAL_Driver/Src/stm32f1xx_hal_rcc.c ****   */
 970:Drivers/STM32F1xx_HAL_Driver/Src/stm32f1xx_hal_rcc.c **** 
 971:Drivers/STM32F1xx_HAL_Driver/Src/stm32f1xx_hal_rcc.c **** /**
 972:Drivers/STM32F1xx_HAL_Driver/Src/stm32f1xx_hal_rcc.c ****   * @brief  Selects the clock source to output on MCO pin.
 973:Drivers/STM32F1xx_HAL_Driver/Src/stm32f1xx_hal_rcc.c ****   * @note   MCO pin should be configured in alternate function mode.
 974:Drivers/STM32F1xx_HAL_Driver/Src/stm32f1xx_hal_rcc.c ****   * @param  RCC_MCOx specifies the output direction for the clock source.
 975:Drivers/STM32F1xx_HAL_Driver/Src/stm32f1xx_hal_rcc.c ****   *          This parameter can be one of the following values:
 976:Drivers/STM32F1xx_HAL_Driver/Src/stm32f1xx_hal_rcc.c ****   *            @arg @ref RCC_MCO1 Clock source to output on MCO1 pin(PA8).
 977:Drivers/STM32F1xx_HAL_Driver/Src/stm32f1xx_hal_rcc.c ****   * @param  RCC_MCOSource specifies the clock source to output.
 978:Drivers/STM32F1xx_HAL_Driver/Src/stm32f1xx_hal_rcc.c ****   *          This parameter can be one of the following values:
 979:Drivers/STM32F1xx_HAL_Driver/Src/stm32f1xx_hal_rcc.c ****   *            @arg @ref RCC_MCO1SOURCE_NOCLOCK     No clock selected as MCO clock
 980:Drivers/STM32F1xx_HAL_Driver/Src/stm32f1xx_hal_rcc.c ****   *            @arg @ref RCC_MCO1SOURCE_SYSCLK      System clock selected as MCO clock
 981:Drivers/STM32F1xx_HAL_Driver/Src/stm32f1xx_hal_rcc.c ****   *            @arg @ref RCC_MCO1SOURCE_HSI         HSI selected as MCO clock
 982:Drivers/STM32F1xx_HAL_Driver/Src/stm32f1xx_hal_rcc.c ****   *            @arg @ref RCC_MCO1SOURCE_HSE         HSE selected as MCO clock
 983:Drivers/STM32F1xx_HAL_Driver/Src/stm32f1xx_hal_rcc.c ****   @if STM32F105xC
 984:Drivers/STM32F1xx_HAL_Driver/Src/stm32f1xx_hal_rcc.c ****   *            @arg @ref RCC_MCO1SOURCE_PLLCLK       PLL clock divided by 2 selected as MCO source
 985:Drivers/STM32F1xx_HAL_Driver/Src/stm32f1xx_hal_rcc.c ****   *            @arg @ref RCC_MCO1SOURCE_PLL2CLK      PLL2 clock selected as MCO source
 986:Drivers/STM32F1xx_HAL_Driver/Src/stm32f1xx_hal_rcc.c ****   *            @arg @ref RCC_MCO1SOURCE_PLL3CLK_DIV2 PLL3 clock divided by 2 selected as MCO source
 987:Drivers/STM32F1xx_HAL_Driver/Src/stm32f1xx_hal_rcc.c ****   *            @arg @ref RCC_MCO1SOURCE_EXT_HSE      XT1 external 3-25 MHz oscillator clock selecte
 988:Drivers/STM32F1xx_HAL_Driver/Src/stm32f1xx_hal_rcc.c ****   *            @arg @ref RCC_MCO1SOURCE_PLL3CLK      PLL3 clock selected as MCO source
 989:Drivers/STM32F1xx_HAL_Driver/Src/stm32f1xx_hal_rcc.c ****   @endif
 990:Drivers/STM32F1xx_HAL_Driver/Src/stm32f1xx_hal_rcc.c ****   @if STM32F107xC
 991:Drivers/STM32F1xx_HAL_Driver/Src/stm32f1xx_hal_rcc.c ****   *            @arg @ref RCC_MCO1SOURCE_PLLCLK       PLL clock divided by 2 selected as MCO source
 992:Drivers/STM32F1xx_HAL_Driver/Src/stm32f1xx_hal_rcc.c ****   *            @arg @ref RCC_MCO1SOURCE_PLL2CLK      PLL2 clock selected as MCO source
 993:Drivers/STM32F1xx_HAL_Driver/Src/stm32f1xx_hal_rcc.c ****   *            @arg @ref RCC_MCO1SOURCE_PLL3CLK_DIV2 PLL3 clock divided by 2 selected as MCO source
 994:Drivers/STM32F1xx_HAL_Driver/Src/stm32f1xx_hal_rcc.c ****   *            @arg @ref RCC_MCO1SOURCE_EXT_HSE XT1  external 3-25 MHz oscillator clock selected as
 995:Drivers/STM32F1xx_HAL_Driver/Src/stm32f1xx_hal_rcc.c ****   *            @arg @ref RCC_MCO1SOURCE_PLL3CLK      PLL3 clock selected as MCO source
 996:Drivers/STM32F1xx_HAL_Driver/Src/stm32f1xx_hal_rcc.c ****   @endif
 997:Drivers/STM32F1xx_HAL_Driver/Src/stm32f1xx_hal_rcc.c ****   * @param  RCC_MCODiv specifies the MCO DIV.
 998:Drivers/STM32F1xx_HAL_Driver/Src/stm32f1xx_hal_rcc.c ****   *          This parameter can be one of the following values:
 999:Drivers/STM32F1xx_HAL_Driver/Src/stm32f1xx_hal_rcc.c ****   *            @arg @ref RCC_MCODIV_1 no division applied to MCO clock
1000:Drivers/STM32F1xx_HAL_Driver/Src/stm32f1xx_hal_rcc.c ****   * @retval None
1001:Drivers/STM32F1xx_HAL_Driver/Src/stm32f1xx_hal_rcc.c ****   */
ARM GAS  C:\Users\shado\AppData\Local\Temp\ccoIiB4i.s 			page 19


1002:Drivers/STM32F1xx_HAL_Driver/Src/stm32f1xx_hal_rcc.c **** void HAL_RCC_MCOConfig(uint32_t RCC_MCOx, uint32_t RCC_MCOSource, uint32_t RCC_MCODiv)
1003:Drivers/STM32F1xx_HAL_Driver/Src/stm32f1xx_hal_rcc.c **** {
1004:Drivers/STM32F1xx_HAL_Driver/Src/stm32f1xx_hal_rcc.c ****   GPIO_InitTypeDef gpio = {0U};
1005:Drivers/STM32F1xx_HAL_Driver/Src/stm32f1xx_hal_rcc.c **** 
1006:Drivers/STM32F1xx_HAL_Driver/Src/stm32f1xx_hal_rcc.c ****   /* Check the parameters */
1007:Drivers/STM32F1xx_HAL_Driver/Src/stm32f1xx_hal_rcc.c ****   assert_param(IS_RCC_MCO(RCC_MCOx));
1008:Drivers/STM32F1xx_HAL_Driver/Src/stm32f1xx_hal_rcc.c ****   assert_param(IS_RCC_MCODIV(RCC_MCODiv));
1009:Drivers/STM32F1xx_HAL_Driver/Src/stm32f1xx_hal_rcc.c ****   assert_param(IS_RCC_MCO1SOURCE(RCC_MCOSource));
1010:Drivers/STM32F1xx_HAL_Driver/Src/stm32f1xx_hal_rcc.c **** 
1011:Drivers/STM32F1xx_HAL_Driver/Src/stm32f1xx_hal_rcc.c ****   /* Prevent unused argument(s) compilation warning */
1012:Drivers/STM32F1xx_HAL_Driver/Src/stm32f1xx_hal_rcc.c ****   UNUSED(RCC_MCOx);
1013:Drivers/STM32F1xx_HAL_Driver/Src/stm32f1xx_hal_rcc.c ****   UNUSED(RCC_MCODiv);
1014:Drivers/STM32F1xx_HAL_Driver/Src/stm32f1xx_hal_rcc.c **** 
1015:Drivers/STM32F1xx_HAL_Driver/Src/stm32f1xx_hal_rcc.c ****   /* Configure the MCO1 pin in alternate function mode */
1016:Drivers/STM32F1xx_HAL_Driver/Src/stm32f1xx_hal_rcc.c ****   gpio.Mode      = GPIO_MODE_AF_PP;
1017:Drivers/STM32F1xx_HAL_Driver/Src/stm32f1xx_hal_rcc.c ****   gpio.Speed     = GPIO_SPEED_FREQ_HIGH;
1018:Drivers/STM32F1xx_HAL_Driver/Src/stm32f1xx_hal_rcc.c ****   gpio.Pull      = GPIO_NOPULL;
1019:Drivers/STM32F1xx_HAL_Driver/Src/stm32f1xx_hal_rcc.c ****   gpio.Pin       = MCO1_PIN;
1020:Drivers/STM32F1xx_HAL_Driver/Src/stm32f1xx_hal_rcc.c **** 
1021:Drivers/STM32F1xx_HAL_Driver/Src/stm32f1xx_hal_rcc.c ****   /* MCO1 Clock Enable */
1022:Drivers/STM32F1xx_HAL_Driver/Src/stm32f1xx_hal_rcc.c ****   MCO1_CLK_ENABLE();
1023:Drivers/STM32F1xx_HAL_Driver/Src/stm32f1xx_hal_rcc.c **** 
1024:Drivers/STM32F1xx_HAL_Driver/Src/stm32f1xx_hal_rcc.c ****   HAL_GPIO_Init(MCO1_GPIO_PORT, &gpio);
1025:Drivers/STM32F1xx_HAL_Driver/Src/stm32f1xx_hal_rcc.c **** 
1026:Drivers/STM32F1xx_HAL_Driver/Src/stm32f1xx_hal_rcc.c ****   /* Configure the MCO clock source */
1027:Drivers/STM32F1xx_HAL_Driver/Src/stm32f1xx_hal_rcc.c ****   __HAL_RCC_MCO1_CONFIG(RCC_MCOSource, RCC_MCODiv);
1028:Drivers/STM32F1xx_HAL_Driver/Src/stm32f1xx_hal_rcc.c **** }
1029:Drivers/STM32F1xx_HAL_Driver/Src/stm32f1xx_hal_rcc.c **** 
1030:Drivers/STM32F1xx_HAL_Driver/Src/stm32f1xx_hal_rcc.c **** /**
1031:Drivers/STM32F1xx_HAL_Driver/Src/stm32f1xx_hal_rcc.c ****   * @brief  Enables the Clock Security System.
1032:Drivers/STM32F1xx_HAL_Driver/Src/stm32f1xx_hal_rcc.c ****   * @note   If a failure is detected on the HSE oscillator clock, this oscillator
1033:Drivers/STM32F1xx_HAL_Driver/Src/stm32f1xx_hal_rcc.c ****   *         is automatically disabled and an interrupt is generated to inform the
1034:Drivers/STM32F1xx_HAL_Driver/Src/stm32f1xx_hal_rcc.c ****   *         software about the failure (Clock Security System Interrupt, CSSI),
1035:Drivers/STM32F1xx_HAL_Driver/Src/stm32f1xx_hal_rcc.c ****   *         allowing the MCU to perform rescue operations. The CSSI is linked to
1036:Drivers/STM32F1xx_HAL_Driver/Src/stm32f1xx_hal_rcc.c ****   *         the Cortex-M3 NMI (Non-Maskable Interrupt) exception vector.
1037:Drivers/STM32F1xx_HAL_Driver/Src/stm32f1xx_hal_rcc.c ****   * @retval None
1038:Drivers/STM32F1xx_HAL_Driver/Src/stm32f1xx_hal_rcc.c ****   */
1039:Drivers/STM32F1xx_HAL_Driver/Src/stm32f1xx_hal_rcc.c **** void HAL_RCC_EnableCSS(void)
1040:Drivers/STM32F1xx_HAL_Driver/Src/stm32f1xx_hal_rcc.c **** {
1041:Drivers/STM32F1xx_HAL_Driver/Src/stm32f1xx_hal_rcc.c ****   *(__IO uint32_t *) RCC_CR_CSSON_BB = (uint32_t)ENABLE;
1042:Drivers/STM32F1xx_HAL_Driver/Src/stm32f1xx_hal_rcc.c **** }
1043:Drivers/STM32F1xx_HAL_Driver/Src/stm32f1xx_hal_rcc.c **** 
1044:Drivers/STM32F1xx_HAL_Driver/Src/stm32f1xx_hal_rcc.c **** /**
1045:Drivers/STM32F1xx_HAL_Driver/Src/stm32f1xx_hal_rcc.c ****   * @brief  Disables the Clock Security System.
1046:Drivers/STM32F1xx_HAL_Driver/Src/stm32f1xx_hal_rcc.c ****   * @retval None
1047:Drivers/STM32F1xx_HAL_Driver/Src/stm32f1xx_hal_rcc.c ****   */
1048:Drivers/STM32F1xx_HAL_Driver/Src/stm32f1xx_hal_rcc.c **** void HAL_RCC_DisableCSS(void)
1049:Drivers/STM32F1xx_HAL_Driver/Src/stm32f1xx_hal_rcc.c **** {
1050:Drivers/STM32F1xx_HAL_Driver/Src/stm32f1xx_hal_rcc.c ****   *(__IO uint32_t *) RCC_CR_CSSON_BB = (uint32_t)DISABLE;
1051:Drivers/STM32F1xx_HAL_Driver/Src/stm32f1xx_hal_rcc.c **** }
1052:Drivers/STM32F1xx_HAL_Driver/Src/stm32f1xx_hal_rcc.c **** 
1053:Drivers/STM32F1xx_HAL_Driver/Src/stm32f1xx_hal_rcc.c **** /**
1054:Drivers/STM32F1xx_HAL_Driver/Src/stm32f1xx_hal_rcc.c ****   * @brief  Returns the SYSCLK frequency
1055:Drivers/STM32F1xx_HAL_Driver/Src/stm32f1xx_hal_rcc.c ****   * @note   The system frequency computed by this function is not the real
1056:Drivers/STM32F1xx_HAL_Driver/Src/stm32f1xx_hal_rcc.c ****   *         frequency in the chip. It is calculated based on the predefined
1057:Drivers/STM32F1xx_HAL_Driver/Src/stm32f1xx_hal_rcc.c ****   *         constant and the selected clock source:
1058:Drivers/STM32F1xx_HAL_Driver/Src/stm32f1xx_hal_rcc.c ****   * @note     If SYSCLK source is HSI, function returns values based on HSI_VALUE(*)
ARM GAS  C:\Users\shado\AppData\Local\Temp\ccoIiB4i.s 			page 20


1059:Drivers/STM32F1xx_HAL_Driver/Src/stm32f1xx_hal_rcc.c ****   * @note     If SYSCLK source is HSE, function returns a value based on HSE_VALUE
1060:Drivers/STM32F1xx_HAL_Driver/Src/stm32f1xx_hal_rcc.c ****   *           divided by PREDIV factor(**)
1061:Drivers/STM32F1xx_HAL_Driver/Src/stm32f1xx_hal_rcc.c ****   * @note     If SYSCLK source is PLL, function returns a value based on HSE_VALUE
1062:Drivers/STM32F1xx_HAL_Driver/Src/stm32f1xx_hal_rcc.c ****   *           divided by PREDIV factor(**) or HSI_VALUE(*) multiplied by the PLL factor.
1063:Drivers/STM32F1xx_HAL_Driver/Src/stm32f1xx_hal_rcc.c ****   * @note     (*) HSI_VALUE is a constant defined in stm32f1xx_hal_conf.h file (default value
1064:Drivers/STM32F1xx_HAL_Driver/Src/stm32f1xx_hal_rcc.c ****   *               8 MHz) but the real value may vary depending on the variations
1065:Drivers/STM32F1xx_HAL_Driver/Src/stm32f1xx_hal_rcc.c ****   *               in voltage and temperature.
1066:Drivers/STM32F1xx_HAL_Driver/Src/stm32f1xx_hal_rcc.c ****   * @note     (**) HSE_VALUE is a constant defined in stm32f1xx_hal_conf.h file (default value
1067:Drivers/STM32F1xx_HAL_Driver/Src/stm32f1xx_hal_rcc.c ****   *                8 MHz), user has to ensure that HSE_VALUE is same as the real
1068:Drivers/STM32F1xx_HAL_Driver/Src/stm32f1xx_hal_rcc.c ****   *                frequency of the crystal used. Otherwise, this function may
1069:Drivers/STM32F1xx_HAL_Driver/Src/stm32f1xx_hal_rcc.c ****   *                have wrong result.
1070:Drivers/STM32F1xx_HAL_Driver/Src/stm32f1xx_hal_rcc.c ****   *
1071:Drivers/STM32F1xx_HAL_Driver/Src/stm32f1xx_hal_rcc.c ****   * @note   The result of this function could be not correct when using fractional
1072:Drivers/STM32F1xx_HAL_Driver/Src/stm32f1xx_hal_rcc.c ****   *         value for HSE crystal.
1073:Drivers/STM32F1xx_HAL_Driver/Src/stm32f1xx_hal_rcc.c ****   *
1074:Drivers/STM32F1xx_HAL_Driver/Src/stm32f1xx_hal_rcc.c ****   * @note   This function can be used by the user application to compute the
1075:Drivers/STM32F1xx_HAL_Driver/Src/stm32f1xx_hal_rcc.c ****   *         baud-rate for the communication peripherals or configure other parameters.
1076:Drivers/STM32F1xx_HAL_Driver/Src/stm32f1xx_hal_rcc.c ****   *
1077:Drivers/STM32F1xx_HAL_Driver/Src/stm32f1xx_hal_rcc.c ****   * @note   Each time SYSCLK changes, this function must be called to update the
1078:Drivers/STM32F1xx_HAL_Driver/Src/stm32f1xx_hal_rcc.c ****   *         right SYSCLK value. Otherwise, any configuration based on this function will be incorre
1079:Drivers/STM32F1xx_HAL_Driver/Src/stm32f1xx_hal_rcc.c ****   *
1080:Drivers/STM32F1xx_HAL_Driver/Src/stm32f1xx_hal_rcc.c ****   * @retval SYSCLK frequency
1081:Drivers/STM32F1xx_HAL_Driver/Src/stm32f1xx_hal_rcc.c ****   */
1082:Drivers/STM32F1xx_HAL_Driver/Src/stm32f1xx_hal_rcc.c **** uint32_t HAL_RCC_GetSysClockFreq(void)
1083:Drivers/STM32F1xx_HAL_Driver/Src/stm32f1xx_hal_rcc.c **** {
1084:Drivers/STM32F1xx_HAL_Driver/Src/stm32f1xx_hal_rcc.c **** #if defined(RCC_CFGR2_PREDIV1SRC)
1085:Drivers/STM32F1xx_HAL_Driver/Src/stm32f1xx_hal_rcc.c ****   const uint8_t aPLLMULFactorTable[14] = {0, 0, 4, 5, 6, 7, 8, 9, 0, 0, 0, 0, 0, 13};
1086:Drivers/STM32F1xx_HAL_Driver/Src/stm32f1xx_hal_rcc.c ****   const uint8_t aPredivFactorTable[16] = {1, 2, 3, 4, 5, 6, 7, 8, 9, 10, 11, 12, 13, 14, 15, 16};
1087:Drivers/STM32F1xx_HAL_Driver/Src/stm32f1xx_hal_rcc.c **** #else
1088:Drivers/STM32F1xx_HAL_Driver/Src/stm32f1xx_hal_rcc.c ****   const uint8_t aPLLMULFactorTable[16] = {2, 3, 4, 5, 6, 7, 8, 9, 10, 11, 12, 13, 14, 15, 16, 16};
1089:Drivers/STM32F1xx_HAL_Driver/Src/stm32f1xx_hal_rcc.c **** #if defined(RCC_CFGR2_PREDIV1)
1090:Drivers/STM32F1xx_HAL_Driver/Src/stm32f1xx_hal_rcc.c ****   const uint8_t aPredivFactorTable[16] = {1, 2, 3, 4, 5, 6, 7, 8, 9, 10, 11, 12, 13, 14, 15, 16};
1091:Drivers/STM32F1xx_HAL_Driver/Src/stm32f1xx_hal_rcc.c **** #else
1092:Drivers/STM32F1xx_HAL_Driver/Src/stm32f1xx_hal_rcc.c ****   const uint8_t aPredivFactorTable[2] = {1, 2};
1093:Drivers/STM32F1xx_HAL_Driver/Src/stm32f1xx_hal_rcc.c **** #endif /*RCC_CFGR2_PREDIV1*/
1094:Drivers/STM32F1xx_HAL_Driver/Src/stm32f1xx_hal_rcc.c **** 
1095:Drivers/STM32F1xx_HAL_Driver/Src/stm32f1xx_hal_rcc.c **** #endif
1096:Drivers/STM32F1xx_HAL_Driver/Src/stm32f1xx_hal_rcc.c ****   uint32_t tmpreg = 0U, prediv = 0U, pllclk = 0U, pllmul = 0U;
1097:Drivers/STM32F1xx_HAL_Driver/Src/stm32f1xx_hal_rcc.c ****   uint32_t sysclockfreq = 0U;
1098:Drivers/STM32F1xx_HAL_Driver/Src/stm32f1xx_hal_rcc.c **** #if defined(RCC_CFGR2_PREDIV1SRC)
1099:Drivers/STM32F1xx_HAL_Driver/Src/stm32f1xx_hal_rcc.c ****   uint32_t prediv2 = 0U, pll2mul = 0U;
1100:Drivers/STM32F1xx_HAL_Driver/Src/stm32f1xx_hal_rcc.c **** #endif /*RCC_CFGR2_PREDIV1SRC*/
1101:Drivers/STM32F1xx_HAL_Driver/Src/stm32f1xx_hal_rcc.c **** 
1102:Drivers/STM32F1xx_HAL_Driver/Src/stm32f1xx_hal_rcc.c ****   tmpreg = RCC->CFGR;
1103:Drivers/STM32F1xx_HAL_Driver/Src/stm32f1xx_hal_rcc.c **** 
1104:Drivers/STM32F1xx_HAL_Driver/Src/stm32f1xx_hal_rcc.c ****   /* Get SYSCLK source -------------------------------------------------------*/
1105:Drivers/STM32F1xx_HAL_Driver/Src/stm32f1xx_hal_rcc.c ****   switch (tmpreg & RCC_CFGR_SWS)
1106:Drivers/STM32F1xx_HAL_Driver/Src/stm32f1xx_hal_rcc.c ****   {
1107:Drivers/STM32F1xx_HAL_Driver/Src/stm32f1xx_hal_rcc.c ****     case RCC_SYSCLKSOURCE_STATUS_HSE:  /* HSE used as system clock */
1108:Drivers/STM32F1xx_HAL_Driver/Src/stm32f1xx_hal_rcc.c ****     {
1109:Drivers/STM32F1xx_HAL_Driver/Src/stm32f1xx_hal_rcc.c ****       sysclockfreq = HSE_VALUE;
1110:Drivers/STM32F1xx_HAL_Driver/Src/stm32f1xx_hal_rcc.c ****       break;
1111:Drivers/STM32F1xx_HAL_Driver/Src/stm32f1xx_hal_rcc.c ****     }
1112:Drivers/STM32F1xx_HAL_Driver/Src/stm32f1xx_hal_rcc.c ****     case RCC_SYSCLKSOURCE_STATUS_PLLCLK:  /* PLL used as system clock */
1113:Drivers/STM32F1xx_HAL_Driver/Src/stm32f1xx_hal_rcc.c ****     {
1114:Drivers/STM32F1xx_HAL_Driver/Src/stm32f1xx_hal_rcc.c ****       pllmul = aPLLMULFactorTable[(uint32_t)(tmpreg & RCC_CFGR_PLLMULL) >> RCC_CFGR_PLLMULL_Pos];
1115:Drivers/STM32F1xx_HAL_Driver/Src/stm32f1xx_hal_rcc.c ****       if ((tmpreg & RCC_CFGR_PLLSRC) != RCC_PLLSOURCE_HSI_DIV2)
ARM GAS  C:\Users\shado\AppData\Local\Temp\ccoIiB4i.s 			page 21


1116:Drivers/STM32F1xx_HAL_Driver/Src/stm32f1xx_hal_rcc.c ****       {
1117:Drivers/STM32F1xx_HAL_Driver/Src/stm32f1xx_hal_rcc.c **** #if defined(RCC_CFGR2_PREDIV1)
1118:Drivers/STM32F1xx_HAL_Driver/Src/stm32f1xx_hal_rcc.c ****         prediv = aPredivFactorTable[(uint32_t)(RCC->CFGR2 & RCC_CFGR2_PREDIV1) >> RCC_CFGR2_PREDIV1
1119:Drivers/STM32F1xx_HAL_Driver/Src/stm32f1xx_hal_rcc.c **** #else
1120:Drivers/STM32F1xx_HAL_Driver/Src/stm32f1xx_hal_rcc.c ****         prediv = aPredivFactorTable[(uint32_t)(RCC->CFGR & RCC_CFGR_PLLXTPRE) >> RCC_CFGR_PLLXTPRE_
1121:Drivers/STM32F1xx_HAL_Driver/Src/stm32f1xx_hal_rcc.c **** #endif /*RCC_CFGR2_PREDIV1*/
1122:Drivers/STM32F1xx_HAL_Driver/Src/stm32f1xx_hal_rcc.c **** #if defined(RCC_CFGR2_PREDIV1SRC)
1123:Drivers/STM32F1xx_HAL_Driver/Src/stm32f1xx_hal_rcc.c **** 
1124:Drivers/STM32F1xx_HAL_Driver/Src/stm32f1xx_hal_rcc.c ****         if (HAL_IS_BIT_SET(RCC->CFGR2, RCC_CFGR2_PREDIV1SRC))
1125:Drivers/STM32F1xx_HAL_Driver/Src/stm32f1xx_hal_rcc.c ****         {
1126:Drivers/STM32F1xx_HAL_Driver/Src/stm32f1xx_hal_rcc.c ****           /* PLL2 selected as Prediv1 source */
1127:Drivers/STM32F1xx_HAL_Driver/Src/stm32f1xx_hal_rcc.c ****           /* PLLCLK = PLL2CLK / PREDIV1 * PLLMUL with PLL2CLK = HSE/PREDIV2 * PLL2MUL */
1128:Drivers/STM32F1xx_HAL_Driver/Src/stm32f1xx_hal_rcc.c ****           prediv2 = ((RCC->CFGR2 & RCC_CFGR2_PREDIV2) >> RCC_CFGR2_PREDIV2_Pos) + 1;
1129:Drivers/STM32F1xx_HAL_Driver/Src/stm32f1xx_hal_rcc.c ****           pll2mul = ((RCC->CFGR2 & RCC_CFGR2_PLL2MUL) >> RCC_CFGR2_PLL2MUL_Pos) + 2;
1130:Drivers/STM32F1xx_HAL_Driver/Src/stm32f1xx_hal_rcc.c ****           pllclk = (uint32_t)(((uint64_t)HSE_VALUE * (uint64_t)pll2mul * (uint64_t)pllmul) / ((uint
1131:Drivers/STM32F1xx_HAL_Driver/Src/stm32f1xx_hal_rcc.c ****         }
1132:Drivers/STM32F1xx_HAL_Driver/Src/stm32f1xx_hal_rcc.c ****         else
1133:Drivers/STM32F1xx_HAL_Driver/Src/stm32f1xx_hal_rcc.c ****         {
1134:Drivers/STM32F1xx_HAL_Driver/Src/stm32f1xx_hal_rcc.c ****           /* HSE used as PLL clock source : PLLCLK = HSE/PREDIV1 * PLLMUL */
1135:Drivers/STM32F1xx_HAL_Driver/Src/stm32f1xx_hal_rcc.c ****           pllclk = (uint32_t)((HSE_VALUE * pllmul) / prediv);
1136:Drivers/STM32F1xx_HAL_Driver/Src/stm32f1xx_hal_rcc.c ****         }
1137:Drivers/STM32F1xx_HAL_Driver/Src/stm32f1xx_hal_rcc.c **** 
1138:Drivers/STM32F1xx_HAL_Driver/Src/stm32f1xx_hal_rcc.c ****         /* If PLLMUL was set to 13 means that it was to cover the case PLLMUL 6.5 (avoid using floa
1139:Drivers/STM32F1xx_HAL_Driver/Src/stm32f1xx_hal_rcc.c ****         /* In this case need to divide pllclk by 2 */
1140:Drivers/STM32F1xx_HAL_Driver/Src/stm32f1xx_hal_rcc.c ****         if (pllmul == aPLLMULFactorTable[(uint32_t)(RCC_CFGR_PLLMULL6_5) >> RCC_CFGR_PLLMULL_Pos])
1141:Drivers/STM32F1xx_HAL_Driver/Src/stm32f1xx_hal_rcc.c ****         {
1142:Drivers/STM32F1xx_HAL_Driver/Src/stm32f1xx_hal_rcc.c ****           pllclk = pllclk / 2;
1143:Drivers/STM32F1xx_HAL_Driver/Src/stm32f1xx_hal_rcc.c ****         }
1144:Drivers/STM32F1xx_HAL_Driver/Src/stm32f1xx_hal_rcc.c **** #else
1145:Drivers/STM32F1xx_HAL_Driver/Src/stm32f1xx_hal_rcc.c ****         /* HSE used as PLL clock source : PLLCLK = HSE/PREDIV1 * PLLMUL */
1146:Drivers/STM32F1xx_HAL_Driver/Src/stm32f1xx_hal_rcc.c ****         pllclk = (uint32_t)((HSE_VALUE  * pllmul) / prediv);
1147:Drivers/STM32F1xx_HAL_Driver/Src/stm32f1xx_hal_rcc.c **** #endif /*RCC_CFGR2_PREDIV1SRC*/
1148:Drivers/STM32F1xx_HAL_Driver/Src/stm32f1xx_hal_rcc.c ****       }
1149:Drivers/STM32F1xx_HAL_Driver/Src/stm32f1xx_hal_rcc.c ****       else
1150:Drivers/STM32F1xx_HAL_Driver/Src/stm32f1xx_hal_rcc.c ****       {
1151:Drivers/STM32F1xx_HAL_Driver/Src/stm32f1xx_hal_rcc.c ****         /* HSI used as PLL clock source : PLLCLK = HSI/2 * PLLMUL */
1152:Drivers/STM32F1xx_HAL_Driver/Src/stm32f1xx_hal_rcc.c ****         pllclk = (uint32_t)((HSI_VALUE >> 1) * pllmul);
1153:Drivers/STM32F1xx_HAL_Driver/Src/stm32f1xx_hal_rcc.c ****       }
1154:Drivers/STM32F1xx_HAL_Driver/Src/stm32f1xx_hal_rcc.c ****       sysclockfreq = pllclk;
1155:Drivers/STM32F1xx_HAL_Driver/Src/stm32f1xx_hal_rcc.c ****       break;
1156:Drivers/STM32F1xx_HAL_Driver/Src/stm32f1xx_hal_rcc.c ****     }
1157:Drivers/STM32F1xx_HAL_Driver/Src/stm32f1xx_hal_rcc.c ****     case RCC_SYSCLKSOURCE_STATUS_HSI:  /* HSI used as system clock source */
1158:Drivers/STM32F1xx_HAL_Driver/Src/stm32f1xx_hal_rcc.c ****     default: /* HSI used as system clock */
1159:Drivers/STM32F1xx_HAL_Driver/Src/stm32f1xx_hal_rcc.c ****     {
1160:Drivers/STM32F1xx_HAL_Driver/Src/stm32f1xx_hal_rcc.c ****       sysclockfreq = HSI_VALUE;
1161:Drivers/STM32F1xx_HAL_Driver/Src/stm32f1xx_hal_rcc.c ****       break;
1162:Drivers/STM32F1xx_HAL_Driver/Src/stm32f1xx_hal_rcc.c ****     }
1163:Drivers/STM32F1xx_HAL_Driver/Src/stm32f1xx_hal_rcc.c ****   }
1164:Drivers/STM32F1xx_HAL_Driver/Src/stm32f1xx_hal_rcc.c ****   return sysclockfreq;
1165:Drivers/STM32F1xx_HAL_Driver/Src/stm32f1xx_hal_rcc.c **** }
1166:Drivers/STM32F1xx_HAL_Driver/Src/stm32f1xx_hal_rcc.c **** 
1167:Drivers/STM32F1xx_HAL_Driver/Src/stm32f1xx_hal_rcc.c **** /**
1168:Drivers/STM32F1xx_HAL_Driver/Src/stm32f1xx_hal_rcc.c ****   * @brief  Returns the HCLK frequency
1169:Drivers/STM32F1xx_HAL_Driver/Src/stm32f1xx_hal_rcc.c ****   * @note   Each time HCLK changes, this function must be called to update the
1170:Drivers/STM32F1xx_HAL_Driver/Src/stm32f1xx_hal_rcc.c ****   *         right HCLK value. Otherwise, any configuration based on this function will be incorrect
1171:Drivers/STM32F1xx_HAL_Driver/Src/stm32f1xx_hal_rcc.c ****   *
1172:Drivers/STM32F1xx_HAL_Driver/Src/stm32f1xx_hal_rcc.c ****   * @note   The SystemCoreClock CMSIS variable is used to store System Clock Frequency
ARM GAS  C:\Users\shado\AppData\Local\Temp\ccoIiB4i.s 			page 22


1173:Drivers/STM32F1xx_HAL_Driver/Src/stm32f1xx_hal_rcc.c ****   *         and updated within this function
1174:Drivers/STM32F1xx_HAL_Driver/Src/stm32f1xx_hal_rcc.c ****   * @retval HCLK frequency
1175:Drivers/STM32F1xx_HAL_Driver/Src/stm32f1xx_hal_rcc.c ****   */
1176:Drivers/STM32F1xx_HAL_Driver/Src/stm32f1xx_hal_rcc.c **** uint32_t HAL_RCC_GetHCLKFreq(void)
1177:Drivers/STM32F1xx_HAL_Driver/Src/stm32f1xx_hal_rcc.c **** {
1178:Drivers/STM32F1xx_HAL_Driver/Src/stm32f1xx_hal_rcc.c ****   return SystemCoreClock;
1179:Drivers/STM32F1xx_HAL_Driver/Src/stm32f1xx_hal_rcc.c **** }
1180:Drivers/STM32F1xx_HAL_Driver/Src/stm32f1xx_hal_rcc.c **** 
1181:Drivers/STM32F1xx_HAL_Driver/Src/stm32f1xx_hal_rcc.c **** /**
1182:Drivers/STM32F1xx_HAL_Driver/Src/stm32f1xx_hal_rcc.c ****   * @brief  Returns the PCLK1 frequency
1183:Drivers/STM32F1xx_HAL_Driver/Src/stm32f1xx_hal_rcc.c ****   * @note   Each time PCLK1 changes, this function must be called to update the
1184:Drivers/STM32F1xx_HAL_Driver/Src/stm32f1xx_hal_rcc.c ****   *         right PCLK1 value. Otherwise, any configuration based on this function will be incorrec
1185:Drivers/STM32F1xx_HAL_Driver/Src/stm32f1xx_hal_rcc.c ****   * @retval PCLK1 frequency
1186:Drivers/STM32F1xx_HAL_Driver/Src/stm32f1xx_hal_rcc.c ****   */
1187:Drivers/STM32F1xx_HAL_Driver/Src/stm32f1xx_hal_rcc.c **** uint32_t HAL_RCC_GetPCLK1Freq(void)
1188:Drivers/STM32F1xx_HAL_Driver/Src/stm32f1xx_hal_rcc.c **** {
1189:Drivers/STM32F1xx_HAL_Driver/Src/stm32f1xx_hal_rcc.c ****   /* Get HCLK source and Compute PCLK1 frequency ---------------------------*/
1190:Drivers/STM32F1xx_HAL_Driver/Src/stm32f1xx_hal_rcc.c ****   return (HAL_RCC_GetHCLKFreq() >> APBPrescTable[(RCC->CFGR & RCC_CFGR_PPRE1) >> RCC_CFGR_PPRE1_Pos
1191:Drivers/STM32F1xx_HAL_Driver/Src/stm32f1xx_hal_rcc.c **** }
1192:Drivers/STM32F1xx_HAL_Driver/Src/stm32f1xx_hal_rcc.c **** 
1193:Drivers/STM32F1xx_HAL_Driver/Src/stm32f1xx_hal_rcc.c **** /**
1194:Drivers/STM32F1xx_HAL_Driver/Src/stm32f1xx_hal_rcc.c ****   * @brief  Returns the PCLK2 frequency
1195:Drivers/STM32F1xx_HAL_Driver/Src/stm32f1xx_hal_rcc.c ****   * @note   Each time PCLK2 changes, this function must be called to update the
1196:Drivers/STM32F1xx_HAL_Driver/Src/stm32f1xx_hal_rcc.c ****   *         right PCLK2 value. Otherwise, any configuration based on this function will be incorrec
1197:Drivers/STM32F1xx_HAL_Driver/Src/stm32f1xx_hal_rcc.c ****   * @retval PCLK2 frequency
1198:Drivers/STM32F1xx_HAL_Driver/Src/stm32f1xx_hal_rcc.c ****   */
1199:Drivers/STM32F1xx_HAL_Driver/Src/stm32f1xx_hal_rcc.c **** uint32_t HAL_RCC_GetPCLK2Freq(void)
1200:Drivers/STM32F1xx_HAL_Driver/Src/stm32f1xx_hal_rcc.c **** {
1201:Drivers/STM32F1xx_HAL_Driver/Src/stm32f1xx_hal_rcc.c ****   /* Get HCLK source and Compute PCLK2 frequency ---------------------------*/
1202:Drivers/STM32F1xx_HAL_Driver/Src/stm32f1xx_hal_rcc.c ****   return (HAL_RCC_GetHCLKFreq() >> APBPrescTable[(RCC->CFGR & RCC_CFGR_PPRE2) >> RCC_CFGR_PPRE2_Pos
1203:Drivers/STM32F1xx_HAL_Driver/Src/stm32f1xx_hal_rcc.c **** }
1204:Drivers/STM32F1xx_HAL_Driver/Src/stm32f1xx_hal_rcc.c **** 
1205:Drivers/STM32F1xx_HAL_Driver/Src/stm32f1xx_hal_rcc.c **** /**
1206:Drivers/STM32F1xx_HAL_Driver/Src/stm32f1xx_hal_rcc.c ****   * @brief  Configures the RCC_OscInitStruct according to the internal
1207:Drivers/STM32F1xx_HAL_Driver/Src/stm32f1xx_hal_rcc.c ****   * RCC configuration registers.
1208:Drivers/STM32F1xx_HAL_Driver/Src/stm32f1xx_hal_rcc.c ****   * @param  RCC_OscInitStruct pointer to an RCC_OscInitTypeDef structure that
1209:Drivers/STM32F1xx_HAL_Driver/Src/stm32f1xx_hal_rcc.c ****   * will be configured.
1210:Drivers/STM32F1xx_HAL_Driver/Src/stm32f1xx_hal_rcc.c ****   * @retval None
1211:Drivers/STM32F1xx_HAL_Driver/Src/stm32f1xx_hal_rcc.c ****   */
1212:Drivers/STM32F1xx_HAL_Driver/Src/stm32f1xx_hal_rcc.c **** void HAL_RCC_GetOscConfig(RCC_OscInitTypeDef  *RCC_OscInitStruct)
1213:Drivers/STM32F1xx_HAL_Driver/Src/stm32f1xx_hal_rcc.c **** {
1214:Drivers/STM32F1xx_HAL_Driver/Src/stm32f1xx_hal_rcc.c ****   /* Check the parameters */
1215:Drivers/STM32F1xx_HAL_Driver/Src/stm32f1xx_hal_rcc.c ****   assert_param(RCC_OscInitStruct != NULL);
1216:Drivers/STM32F1xx_HAL_Driver/Src/stm32f1xx_hal_rcc.c **** 
1217:Drivers/STM32F1xx_HAL_Driver/Src/stm32f1xx_hal_rcc.c ****   /* Set all possible values for the Oscillator type parameter ---------------*/
1218:Drivers/STM32F1xx_HAL_Driver/Src/stm32f1xx_hal_rcc.c ****   RCC_OscInitStruct->OscillatorType = RCC_OSCILLATORTYPE_HSE | RCC_OSCILLATORTYPE_HSI  \
1219:Drivers/STM32F1xx_HAL_Driver/Src/stm32f1xx_hal_rcc.c ****                                       | RCC_OSCILLATORTYPE_LSE | RCC_OSCILLATORTYPE_LSI;
1220:Drivers/STM32F1xx_HAL_Driver/Src/stm32f1xx_hal_rcc.c **** 
1221:Drivers/STM32F1xx_HAL_Driver/Src/stm32f1xx_hal_rcc.c **** #if defined(RCC_CFGR2_PREDIV1SRC)
1222:Drivers/STM32F1xx_HAL_Driver/Src/stm32f1xx_hal_rcc.c ****   /* Get the Prediv1 source --------------------------------------------------*/
1223:Drivers/STM32F1xx_HAL_Driver/Src/stm32f1xx_hal_rcc.c ****   RCC_OscInitStruct->Prediv1Source = READ_BIT(RCC->CFGR2, RCC_CFGR2_PREDIV1SRC);
1224:Drivers/STM32F1xx_HAL_Driver/Src/stm32f1xx_hal_rcc.c **** #endif /* RCC_CFGR2_PREDIV1SRC */
1225:Drivers/STM32F1xx_HAL_Driver/Src/stm32f1xx_hal_rcc.c **** 
1226:Drivers/STM32F1xx_HAL_Driver/Src/stm32f1xx_hal_rcc.c ****   /* Get the HSE configuration -----------------------------------------------*/
1227:Drivers/STM32F1xx_HAL_Driver/Src/stm32f1xx_hal_rcc.c ****   if ((RCC->CR & RCC_CR_HSEBYP) == RCC_CR_HSEBYP)
1228:Drivers/STM32F1xx_HAL_Driver/Src/stm32f1xx_hal_rcc.c ****   {
1229:Drivers/STM32F1xx_HAL_Driver/Src/stm32f1xx_hal_rcc.c ****     RCC_OscInitStruct->HSEState = RCC_HSE_BYPASS;
ARM GAS  C:\Users\shado\AppData\Local\Temp\ccoIiB4i.s 			page 23


1230:Drivers/STM32F1xx_HAL_Driver/Src/stm32f1xx_hal_rcc.c ****   }
1231:Drivers/STM32F1xx_HAL_Driver/Src/stm32f1xx_hal_rcc.c ****   else if ((RCC->CR & RCC_CR_HSEON) == RCC_CR_HSEON)
1232:Drivers/STM32F1xx_HAL_Driver/Src/stm32f1xx_hal_rcc.c ****   {
1233:Drivers/STM32F1xx_HAL_Driver/Src/stm32f1xx_hal_rcc.c ****     RCC_OscInitStruct->HSEState = RCC_HSE_ON;
1234:Drivers/STM32F1xx_HAL_Driver/Src/stm32f1xx_hal_rcc.c ****   }
1235:Drivers/STM32F1xx_HAL_Driver/Src/stm32f1xx_hal_rcc.c ****   else
1236:Drivers/STM32F1xx_HAL_Driver/Src/stm32f1xx_hal_rcc.c ****   {
1237:Drivers/STM32F1xx_HAL_Driver/Src/stm32f1xx_hal_rcc.c ****     RCC_OscInitStruct->HSEState = RCC_HSE_OFF;
1238:Drivers/STM32F1xx_HAL_Driver/Src/stm32f1xx_hal_rcc.c ****   }
1239:Drivers/STM32F1xx_HAL_Driver/Src/stm32f1xx_hal_rcc.c ****   RCC_OscInitStruct->HSEPredivValue = __HAL_RCC_HSE_GET_PREDIV();
1240:Drivers/STM32F1xx_HAL_Driver/Src/stm32f1xx_hal_rcc.c **** 
1241:Drivers/STM32F1xx_HAL_Driver/Src/stm32f1xx_hal_rcc.c ****   /* Get the HSI configuration -----------------------------------------------*/
1242:Drivers/STM32F1xx_HAL_Driver/Src/stm32f1xx_hal_rcc.c ****   if ((RCC->CR & RCC_CR_HSION) == RCC_CR_HSION)
1243:Drivers/STM32F1xx_HAL_Driver/Src/stm32f1xx_hal_rcc.c ****   {
1244:Drivers/STM32F1xx_HAL_Driver/Src/stm32f1xx_hal_rcc.c ****     RCC_OscInitStruct->HSIState = RCC_HSI_ON;
1245:Drivers/STM32F1xx_HAL_Driver/Src/stm32f1xx_hal_rcc.c ****   }
1246:Drivers/STM32F1xx_HAL_Driver/Src/stm32f1xx_hal_rcc.c ****   else
1247:Drivers/STM32F1xx_HAL_Driver/Src/stm32f1xx_hal_rcc.c ****   {
1248:Drivers/STM32F1xx_HAL_Driver/Src/stm32f1xx_hal_rcc.c ****     RCC_OscInitStruct->HSIState = RCC_HSI_OFF;
1249:Drivers/STM32F1xx_HAL_Driver/Src/stm32f1xx_hal_rcc.c ****   }
1250:Drivers/STM32F1xx_HAL_Driver/Src/stm32f1xx_hal_rcc.c **** 
1251:Drivers/STM32F1xx_HAL_Driver/Src/stm32f1xx_hal_rcc.c ****   RCC_OscInitStruct->HSICalibrationValue = (uint32_t)((RCC->CR & RCC_CR_HSITRIM) >> RCC_CR_HSITRIM_
1252:Drivers/STM32F1xx_HAL_Driver/Src/stm32f1xx_hal_rcc.c **** 
1253:Drivers/STM32F1xx_HAL_Driver/Src/stm32f1xx_hal_rcc.c ****   /* Get the LSE configuration -----------------------------------------------*/
1254:Drivers/STM32F1xx_HAL_Driver/Src/stm32f1xx_hal_rcc.c ****   if ((RCC->BDCR & RCC_BDCR_LSEBYP) == RCC_BDCR_LSEBYP)
1255:Drivers/STM32F1xx_HAL_Driver/Src/stm32f1xx_hal_rcc.c ****   {
1256:Drivers/STM32F1xx_HAL_Driver/Src/stm32f1xx_hal_rcc.c ****     RCC_OscInitStruct->LSEState = RCC_LSE_BYPASS;
1257:Drivers/STM32F1xx_HAL_Driver/Src/stm32f1xx_hal_rcc.c ****   }
1258:Drivers/STM32F1xx_HAL_Driver/Src/stm32f1xx_hal_rcc.c ****   else if ((RCC->BDCR & RCC_BDCR_LSEON) == RCC_BDCR_LSEON)
1259:Drivers/STM32F1xx_HAL_Driver/Src/stm32f1xx_hal_rcc.c ****   {
1260:Drivers/STM32F1xx_HAL_Driver/Src/stm32f1xx_hal_rcc.c ****     RCC_OscInitStruct->LSEState = RCC_LSE_ON;
1261:Drivers/STM32F1xx_HAL_Driver/Src/stm32f1xx_hal_rcc.c ****   }
1262:Drivers/STM32F1xx_HAL_Driver/Src/stm32f1xx_hal_rcc.c ****   else
1263:Drivers/STM32F1xx_HAL_Driver/Src/stm32f1xx_hal_rcc.c ****   {
1264:Drivers/STM32F1xx_HAL_Driver/Src/stm32f1xx_hal_rcc.c ****     RCC_OscInitStruct->LSEState = RCC_LSE_OFF;
1265:Drivers/STM32F1xx_HAL_Driver/Src/stm32f1xx_hal_rcc.c ****   }
1266:Drivers/STM32F1xx_HAL_Driver/Src/stm32f1xx_hal_rcc.c **** 
1267:Drivers/STM32F1xx_HAL_Driver/Src/stm32f1xx_hal_rcc.c ****   /* Get the LSI configuration -----------------------------------------------*/
1268:Drivers/STM32F1xx_HAL_Driver/Src/stm32f1xx_hal_rcc.c ****   if ((RCC->CSR & RCC_CSR_LSION) == RCC_CSR_LSION)
1269:Drivers/STM32F1xx_HAL_Driver/Src/stm32f1xx_hal_rcc.c ****   {
1270:Drivers/STM32F1xx_HAL_Driver/Src/stm32f1xx_hal_rcc.c ****     RCC_OscInitStruct->LSIState = RCC_LSI_ON;
1271:Drivers/STM32F1xx_HAL_Driver/Src/stm32f1xx_hal_rcc.c ****   }
1272:Drivers/STM32F1xx_HAL_Driver/Src/stm32f1xx_hal_rcc.c ****   else
1273:Drivers/STM32F1xx_HAL_Driver/Src/stm32f1xx_hal_rcc.c ****   {
1274:Drivers/STM32F1xx_HAL_Driver/Src/stm32f1xx_hal_rcc.c ****     RCC_OscInitStruct->LSIState = RCC_LSI_OFF;
1275:Drivers/STM32F1xx_HAL_Driver/Src/stm32f1xx_hal_rcc.c ****   }
1276:Drivers/STM32F1xx_HAL_Driver/Src/stm32f1xx_hal_rcc.c **** 
1277:Drivers/STM32F1xx_HAL_Driver/Src/stm32f1xx_hal_rcc.c **** 
1278:Drivers/STM32F1xx_HAL_Driver/Src/stm32f1xx_hal_rcc.c ****   /* Get the PLL configuration -----------------------------------------------*/
1279:Drivers/STM32F1xx_HAL_Driver/Src/stm32f1xx_hal_rcc.c ****   if ((RCC->CR & RCC_CR_PLLON) == RCC_CR_PLLON)
1280:Drivers/STM32F1xx_HAL_Driver/Src/stm32f1xx_hal_rcc.c ****   {
1281:Drivers/STM32F1xx_HAL_Driver/Src/stm32f1xx_hal_rcc.c ****     RCC_OscInitStruct->PLL.PLLState = RCC_PLL_ON;
1282:Drivers/STM32F1xx_HAL_Driver/Src/stm32f1xx_hal_rcc.c ****   }
1283:Drivers/STM32F1xx_HAL_Driver/Src/stm32f1xx_hal_rcc.c ****   else
1284:Drivers/STM32F1xx_HAL_Driver/Src/stm32f1xx_hal_rcc.c ****   {
1285:Drivers/STM32F1xx_HAL_Driver/Src/stm32f1xx_hal_rcc.c ****     RCC_OscInitStruct->PLL.PLLState = RCC_PLL_OFF;
1286:Drivers/STM32F1xx_HAL_Driver/Src/stm32f1xx_hal_rcc.c ****   }
ARM GAS  C:\Users\shado\AppData\Local\Temp\ccoIiB4i.s 			page 24


1287:Drivers/STM32F1xx_HAL_Driver/Src/stm32f1xx_hal_rcc.c ****   RCC_OscInitStruct->PLL.PLLSource = (uint32_t)(RCC->CFGR & RCC_CFGR_PLLSRC);
1288:Drivers/STM32F1xx_HAL_Driver/Src/stm32f1xx_hal_rcc.c ****   RCC_OscInitStruct->PLL.PLLMUL = (uint32_t)(RCC->CFGR & RCC_CFGR_PLLMULL);
1289:Drivers/STM32F1xx_HAL_Driver/Src/stm32f1xx_hal_rcc.c **** #if defined(RCC_CR_PLL2ON)
1290:Drivers/STM32F1xx_HAL_Driver/Src/stm32f1xx_hal_rcc.c ****   /* Get the PLL2 configuration -----------------------------------------------*/
1291:Drivers/STM32F1xx_HAL_Driver/Src/stm32f1xx_hal_rcc.c ****   if ((RCC->CR & RCC_CR_PLL2ON) == RCC_CR_PLL2ON)
1292:Drivers/STM32F1xx_HAL_Driver/Src/stm32f1xx_hal_rcc.c ****   {
1293:Drivers/STM32F1xx_HAL_Driver/Src/stm32f1xx_hal_rcc.c ****     RCC_OscInitStruct->PLL2.PLL2State = RCC_PLL2_ON;
1294:Drivers/STM32F1xx_HAL_Driver/Src/stm32f1xx_hal_rcc.c ****   }
1295:Drivers/STM32F1xx_HAL_Driver/Src/stm32f1xx_hal_rcc.c ****   else
1296:Drivers/STM32F1xx_HAL_Driver/Src/stm32f1xx_hal_rcc.c ****   {
1297:Drivers/STM32F1xx_HAL_Driver/Src/stm32f1xx_hal_rcc.c ****     RCC_OscInitStruct->PLL2.PLL2State = RCC_PLL2_OFF;
1298:Drivers/STM32F1xx_HAL_Driver/Src/stm32f1xx_hal_rcc.c ****   }
1299:Drivers/STM32F1xx_HAL_Driver/Src/stm32f1xx_hal_rcc.c ****   RCC_OscInitStruct->PLL2.HSEPrediv2Value = __HAL_RCC_HSE_GET_PREDIV2();
1300:Drivers/STM32F1xx_HAL_Driver/Src/stm32f1xx_hal_rcc.c ****   RCC_OscInitStruct->PLL2.PLL2MUL = (uint32_t)(RCC->CFGR2 & RCC_CFGR2_PLL2MUL);
1301:Drivers/STM32F1xx_HAL_Driver/Src/stm32f1xx_hal_rcc.c **** #endif /* RCC_CR_PLL2ON */
1302:Drivers/STM32F1xx_HAL_Driver/Src/stm32f1xx_hal_rcc.c **** }
1303:Drivers/STM32F1xx_HAL_Driver/Src/stm32f1xx_hal_rcc.c **** 
1304:Drivers/STM32F1xx_HAL_Driver/Src/stm32f1xx_hal_rcc.c **** /**
1305:Drivers/STM32F1xx_HAL_Driver/Src/stm32f1xx_hal_rcc.c ****   * @brief  Get the RCC_ClkInitStruct according to the internal
1306:Drivers/STM32F1xx_HAL_Driver/Src/stm32f1xx_hal_rcc.c ****   * RCC configuration registers.
1307:Drivers/STM32F1xx_HAL_Driver/Src/stm32f1xx_hal_rcc.c ****   * @param  RCC_ClkInitStruct pointer to an RCC_ClkInitTypeDef structure that
1308:Drivers/STM32F1xx_HAL_Driver/Src/stm32f1xx_hal_rcc.c ****   * contains the current clock configuration.
1309:Drivers/STM32F1xx_HAL_Driver/Src/stm32f1xx_hal_rcc.c ****   * @param  pFLatency Pointer on the Flash Latency.
1310:Drivers/STM32F1xx_HAL_Driver/Src/stm32f1xx_hal_rcc.c ****   * @retval None
1311:Drivers/STM32F1xx_HAL_Driver/Src/stm32f1xx_hal_rcc.c ****   */
1312:Drivers/STM32F1xx_HAL_Driver/Src/stm32f1xx_hal_rcc.c **** void HAL_RCC_GetClockConfig(RCC_ClkInitTypeDef  *RCC_ClkInitStruct, uint32_t *pFLatency)
1313:Drivers/STM32F1xx_HAL_Driver/Src/stm32f1xx_hal_rcc.c **** {
1314:Drivers/STM32F1xx_HAL_Driver/Src/stm32f1xx_hal_rcc.c ****   /* Check the parameters */
1315:Drivers/STM32F1xx_HAL_Driver/Src/stm32f1xx_hal_rcc.c ****   assert_param(RCC_ClkInitStruct != NULL);
1316:Drivers/STM32F1xx_HAL_Driver/Src/stm32f1xx_hal_rcc.c ****   assert_param(pFLatency != NULL);
1317:Drivers/STM32F1xx_HAL_Driver/Src/stm32f1xx_hal_rcc.c **** 
1318:Drivers/STM32F1xx_HAL_Driver/Src/stm32f1xx_hal_rcc.c ****   /* Set all possible values for the Clock type parameter --------------------*/
1319:Drivers/STM32F1xx_HAL_Driver/Src/stm32f1xx_hal_rcc.c ****   RCC_ClkInitStruct->ClockType = RCC_CLOCKTYPE_SYSCLK | RCC_CLOCKTYPE_HCLK | RCC_CLOCKTYPE_PCLK1 | 
1320:Drivers/STM32F1xx_HAL_Driver/Src/stm32f1xx_hal_rcc.c **** 
1321:Drivers/STM32F1xx_HAL_Driver/Src/stm32f1xx_hal_rcc.c ****   /* Get the SYSCLK configuration --------------------------------------------*/
1322:Drivers/STM32F1xx_HAL_Driver/Src/stm32f1xx_hal_rcc.c ****   RCC_ClkInitStruct->SYSCLKSource = (uint32_t)(RCC->CFGR & RCC_CFGR_SW);
1323:Drivers/STM32F1xx_HAL_Driver/Src/stm32f1xx_hal_rcc.c **** 
1324:Drivers/STM32F1xx_HAL_Driver/Src/stm32f1xx_hal_rcc.c ****   /* Get the HCLK configuration ----------------------------------------------*/
1325:Drivers/STM32F1xx_HAL_Driver/Src/stm32f1xx_hal_rcc.c ****   RCC_ClkInitStruct->AHBCLKDivider = (uint32_t)(RCC->CFGR & RCC_CFGR_HPRE);
1326:Drivers/STM32F1xx_HAL_Driver/Src/stm32f1xx_hal_rcc.c **** 
1327:Drivers/STM32F1xx_HAL_Driver/Src/stm32f1xx_hal_rcc.c ****   /* Get the APB1 configuration ----------------------------------------------*/
1328:Drivers/STM32F1xx_HAL_Driver/Src/stm32f1xx_hal_rcc.c ****   RCC_ClkInitStruct->APB1CLKDivider = (uint32_t)(RCC->CFGR & RCC_CFGR_PPRE1);
1329:Drivers/STM32F1xx_HAL_Driver/Src/stm32f1xx_hal_rcc.c **** 
1330:Drivers/STM32F1xx_HAL_Driver/Src/stm32f1xx_hal_rcc.c ****   /* Get the APB2 configuration ----------------------------------------------*/
1331:Drivers/STM32F1xx_HAL_Driver/Src/stm32f1xx_hal_rcc.c ****   RCC_ClkInitStruct->APB2CLKDivider = (uint32_t)((RCC->CFGR & RCC_CFGR_PPRE2) >> 3);
1332:Drivers/STM32F1xx_HAL_Driver/Src/stm32f1xx_hal_rcc.c **** 
1333:Drivers/STM32F1xx_HAL_Driver/Src/stm32f1xx_hal_rcc.c **** #if   defined(FLASH_ACR_LATENCY)
1334:Drivers/STM32F1xx_HAL_Driver/Src/stm32f1xx_hal_rcc.c ****   /* Get the Flash Wait State (Latency) configuration ------------------------*/
1335:Drivers/STM32F1xx_HAL_Driver/Src/stm32f1xx_hal_rcc.c ****   *pFLatency = (uint32_t)(FLASH->ACR & FLASH_ACR_LATENCY);
1336:Drivers/STM32F1xx_HAL_Driver/Src/stm32f1xx_hal_rcc.c **** #else
1337:Drivers/STM32F1xx_HAL_Driver/Src/stm32f1xx_hal_rcc.c ****   /* For VALUE lines devices, only LATENCY_0 can be set*/
1338:Drivers/STM32F1xx_HAL_Driver/Src/stm32f1xx_hal_rcc.c ****   *pFLatency = (uint32_t)FLASH_LATENCY_0;
1339:Drivers/STM32F1xx_HAL_Driver/Src/stm32f1xx_hal_rcc.c **** #endif
1340:Drivers/STM32F1xx_HAL_Driver/Src/stm32f1xx_hal_rcc.c **** }
1341:Drivers/STM32F1xx_HAL_Driver/Src/stm32f1xx_hal_rcc.c **** 
1342:Drivers/STM32F1xx_HAL_Driver/Src/stm32f1xx_hal_rcc.c **** /**
1343:Drivers/STM32F1xx_HAL_Driver/Src/stm32f1xx_hal_rcc.c ****   * @brief This function handles the RCC CSS interrupt request.
ARM GAS  C:\Users\shado\AppData\Local\Temp\ccoIiB4i.s 			page 25


1344:Drivers/STM32F1xx_HAL_Driver/Src/stm32f1xx_hal_rcc.c ****   * @note This API should be called under the NMI_Handler().
1345:Drivers/STM32F1xx_HAL_Driver/Src/stm32f1xx_hal_rcc.c ****   * @retval None
1346:Drivers/STM32F1xx_HAL_Driver/Src/stm32f1xx_hal_rcc.c ****   */
1347:Drivers/STM32F1xx_HAL_Driver/Src/stm32f1xx_hal_rcc.c **** void HAL_RCC_NMI_IRQHandler(void)
1348:Drivers/STM32F1xx_HAL_Driver/Src/stm32f1xx_hal_rcc.c **** {
1349:Drivers/STM32F1xx_HAL_Driver/Src/stm32f1xx_hal_rcc.c ****   /* Check RCC CSSF flag  */
1350:Drivers/STM32F1xx_HAL_Driver/Src/stm32f1xx_hal_rcc.c ****   if (__HAL_RCC_GET_IT(RCC_IT_CSS))
1351:Drivers/STM32F1xx_HAL_Driver/Src/stm32f1xx_hal_rcc.c ****   {
1352:Drivers/STM32F1xx_HAL_Driver/Src/stm32f1xx_hal_rcc.c ****     /* RCC Clock Security System interrupt user callback */
1353:Drivers/STM32F1xx_HAL_Driver/Src/stm32f1xx_hal_rcc.c ****     HAL_RCC_CSSCallback();
1354:Drivers/STM32F1xx_HAL_Driver/Src/stm32f1xx_hal_rcc.c **** 
1355:Drivers/STM32F1xx_HAL_Driver/Src/stm32f1xx_hal_rcc.c ****     /* Clear RCC CSS pending bit */
1356:Drivers/STM32F1xx_HAL_Driver/Src/stm32f1xx_hal_rcc.c ****     __HAL_RCC_CLEAR_IT(RCC_IT_CSS);
1357:Drivers/STM32F1xx_HAL_Driver/Src/stm32f1xx_hal_rcc.c ****   }
1358:Drivers/STM32F1xx_HAL_Driver/Src/stm32f1xx_hal_rcc.c **** }
1359:Drivers/STM32F1xx_HAL_Driver/Src/stm32f1xx_hal_rcc.c **** 
1360:Drivers/STM32F1xx_HAL_Driver/Src/stm32f1xx_hal_rcc.c **** /**
1361:Drivers/STM32F1xx_HAL_Driver/Src/stm32f1xx_hal_rcc.c ****   * @brief  This function provides delay (in milliseconds) based on CPU cycles method.
1362:Drivers/STM32F1xx_HAL_Driver/Src/stm32f1xx_hal_rcc.c ****   * @param  mdelay: specifies the delay time length, in milliseconds.
1363:Drivers/STM32F1xx_HAL_Driver/Src/stm32f1xx_hal_rcc.c ****   * @retval None
1364:Drivers/STM32F1xx_HAL_Driver/Src/stm32f1xx_hal_rcc.c ****   */
1365:Drivers/STM32F1xx_HAL_Driver/Src/stm32f1xx_hal_rcc.c **** static void RCC_Delay(uint32_t mdelay)
1366:Drivers/STM32F1xx_HAL_Driver/Src/stm32f1xx_hal_rcc.c **** {
  27              		.loc 1 1366 1 view -0
  28              		.cfi_startproc
  29              		@ args = 0, pretend = 0, frame = 8
  30              		@ frame_needed = 0, uses_anonymous_args = 0
  31              		@ link register save eliminated.
  32              		.loc 1 1366 1 is_stmt 0 view .LVU1
  33 0000 82B0     		sub	sp, sp, #8
  34              	.LCFI0:
  35              		.cfi_def_cfa_offset 8
1367:Drivers/STM32F1xx_HAL_Driver/Src/stm32f1xx_hal_rcc.c ****   __IO uint32_t Delay = mdelay * (SystemCoreClock / 8U / 1000U);
  36              		.loc 1 1367 3 is_stmt 1 view .LVU2
  37              		.loc 1 1367 56 is_stmt 0 view .LVU3
  38 0002 084B     		ldr	r3, .L4
  39 0004 1B68     		ldr	r3, [r3]
  40 0006 084A     		ldr	r2, .L4+4
  41 0008 A2FB0323 		umull	r2, r3, r2, r3
  42 000c 5B0A     		lsrs	r3, r3, #9
  43              		.loc 1 1367 32 view .LVU4
  44 000e 00FB03F3 		mul	r3, r0, r3
  45              		.loc 1 1367 17 view .LVU5
  46 0012 0193     		str	r3, [sp, #4]
  47              	.L2:
1368:Drivers/STM32F1xx_HAL_Driver/Src/stm32f1xx_hal_rcc.c ****   do
  48              		.loc 1 1368 3 is_stmt 1 discriminator 1 view .LVU6
1369:Drivers/STM32F1xx_HAL_Driver/Src/stm32f1xx_hal_rcc.c ****   {
1370:Drivers/STM32F1xx_HAL_Driver/Src/stm32f1xx_hal_rcc.c ****     __NOP();
  49              		.loc 1 1370 5 discriminator 1 view .LVU7
  50              		.syntax unified
  51              	@ 1370 "Drivers/STM32F1xx_HAL_Driver/Src/stm32f1xx_hal_rcc.c" 1
  52 0014 00BF     		nop
  53              	@ 0 "" 2
1371:Drivers/STM32F1xx_HAL_Driver/Src/stm32f1xx_hal_rcc.c ****   }
1372:Drivers/STM32F1xx_HAL_Driver/Src/stm32f1xx_hal_rcc.c ****   while (Delay --);
  54              		.loc 1 1372 9 discriminator 1 view .LVU8
ARM GAS  C:\Users\shado\AppData\Local\Temp\ccoIiB4i.s 			page 26


  55              		.loc 1 1372 16 is_stmt 0 discriminator 1 view .LVU9
  56              		.thumb
  57              		.syntax unified
  58 0016 019B     		ldr	r3, [sp, #4]
  59 0018 5A1E     		subs	r2, r3, #1
  60 001a 0192     		str	r2, [sp, #4]
  61              		.loc 1 1372 3 discriminator 1 view .LVU10
  62 001c 002B     		cmp	r3, #0
  63 001e F9D1     		bne	.L2
1373:Drivers/STM32F1xx_HAL_Driver/Src/stm32f1xx_hal_rcc.c **** }
  64              		.loc 1 1373 1 view .LVU11
  65 0020 02B0     		add	sp, sp, #8
  66              	.LCFI1:
  67              		.cfi_def_cfa_offset 0
  68              		@ sp needed
  69 0022 7047     		bx	lr
  70              	.L5:
  71              		.align	2
  72              	.L4:
  73 0024 00000000 		.word	SystemCoreClock
  74 0028 D34D6210 		.word	274877907
  75              		.cfi_endproc
  76              	.LFE78:
  78              		.section	.text.HAL_RCC_DeInit,"ax",%progbits
  79              		.align	1
  80              		.global	HAL_RCC_DeInit
  81              		.syntax unified
  82              		.thumb
  83              		.thumb_func
  84              		.fpu softvfp
  86              	HAL_RCC_DeInit:
  87              	.LFB65:
 203:Drivers/STM32F1xx_HAL_Driver/Src/stm32f1xx_hal_rcc.c ****   uint32_t tickstart;
  88              		.loc 1 203 1 is_stmt 1 view -0
  89              		.cfi_startproc
  90              		@ args = 0, pretend = 0, frame = 0
  91              		@ frame_needed = 0, uses_anonymous_args = 0
  92 0000 70B5     		push	{r4, r5, r6, lr}
  93              	.LCFI2:
  94              		.cfi_def_cfa_offset 16
  95              		.cfi_offset 4, -16
  96              		.cfi_offset 5, -12
  97              		.cfi_offset 6, -8
  98              		.cfi_offset 14, -4
 204:Drivers/STM32F1xx_HAL_Driver/Src/stm32f1xx_hal_rcc.c **** 
  99              		.loc 1 204 3 view .LVU13
 207:Drivers/STM32F1xx_HAL_Driver/Src/stm32f1xx_hal_rcc.c **** 
 100              		.loc 1 207 3 view .LVU14
 207:Drivers/STM32F1xx_HAL_Driver/Src/stm32f1xx_hal_rcc.c **** 
 101              		.loc 1 207 15 is_stmt 0 view .LVU15
 102 0002 FFF7FEFF 		bl	HAL_GetTick
 103              	.LVL1:
 104 0006 0446     		mov	r4, r0
 105              	.LVL2:
 210:Drivers/STM32F1xx_HAL_Driver/Src/stm32f1xx_hal_rcc.c **** 
 106              		.loc 1 210 3 is_stmt 1 view .LVU16
 107 0008 364A     		ldr	r2, .L27
ARM GAS  C:\Users\shado\AppData\Local\Temp\ccoIiB4i.s 			page 27


 108 000a 1368     		ldr	r3, [r2]
 109 000c 43F00103 		orr	r3, r3, #1
 110 0010 1360     		str	r3, [r2]
 213:Drivers/STM32F1xx_HAL_Driver/Src/stm32f1xx_hal_rcc.c ****   {
 111              		.loc 1 213 3 view .LVU17
 112              	.LVL3:
 113              	.L7:
 213:Drivers/STM32F1xx_HAL_Driver/Src/stm32f1xx_hal_rcc.c ****   {
 114              		.loc 1 213 9 view .LVU18
 213:Drivers/STM32F1xx_HAL_Driver/Src/stm32f1xx_hal_rcc.c ****   {
 115              		.loc 1 213 10 is_stmt 0 view .LVU19
 116 0012 344B     		ldr	r3, .L27
 117 0014 1B68     		ldr	r3, [r3]
 213:Drivers/STM32F1xx_HAL_Driver/Src/stm32f1xx_hal_rcc.c ****   {
 118              		.loc 1 213 9 view .LVU20
 119 0016 13F0020F 		tst	r3, #2
 120 001a 07D1     		bne	.L22
 215:Drivers/STM32F1xx_HAL_Driver/Src/stm32f1xx_hal_rcc.c ****     {
 121              		.loc 1 215 5 is_stmt 1 view .LVU21
 215:Drivers/STM32F1xx_HAL_Driver/Src/stm32f1xx_hal_rcc.c ****     {
 122              		.loc 1 215 10 is_stmt 0 view .LVU22
 123 001c FFF7FEFF 		bl	HAL_GetTick
 124              	.LVL4:
 215:Drivers/STM32F1xx_HAL_Driver/Src/stm32f1xx_hal_rcc.c ****     {
 125              		.loc 1 215 24 view .LVU23
 126 0020 001B     		subs	r0, r0, r4
 215:Drivers/STM32F1xx_HAL_Driver/Src/stm32f1xx_hal_rcc.c ****     {
 127              		.loc 1 215 8 view .LVU24
 128 0022 0228     		cmp	r0, #2
 129 0024 F5D9     		bls	.L7
 217:Drivers/STM32F1xx_HAL_Driver/Src/stm32f1xx_hal_rcc.c ****     }
 130              		.loc 1 217 14 view .LVU25
 131 0026 0324     		movs	r4, #3
 132              	.LVL5:
 133              	.L8:
 330:Drivers/STM32F1xx_HAL_Driver/Src/stm32f1xx_hal_rcc.c **** 
 134              		.loc 1 330 1 view .LVU26
 135 0028 2046     		mov	r0, r4
 136 002a 70BD     		pop	{r4, r5, r6, pc}
 137              	.LVL6:
 138              	.L22:
 222:Drivers/STM32F1xx_HAL_Driver/Src/stm32f1xx_hal_rcc.c **** 
 139              		.loc 1 222 3 is_stmt 1 view .LVU27
 140 002c 2D4D     		ldr	r5, .L27
 141 002e 2B68     		ldr	r3, [r5]
 142 0030 23F0F803 		bic	r3, r3, #248
 143 0034 43F08003 		orr	r3, r3, #128
 144 0038 2B60     		str	r3, [r5]
 225:Drivers/STM32F1xx_HAL_Driver/Src/stm32f1xx_hal_rcc.c **** 
 145              		.loc 1 225 3 view .LVU28
 225:Drivers/STM32F1xx_HAL_Driver/Src/stm32f1xx_hal_rcc.c **** 
 146              		.loc 1 225 15 is_stmt 0 view .LVU29
 147 003a FFF7FEFF 		bl	HAL_GetTick
 148              	.LVL7:
 149 003e 0446     		mov	r4, r0
 150              	.LVL8:
 228:Drivers/STM32F1xx_HAL_Driver/Src/stm32f1xx_hal_rcc.c **** 
ARM GAS  C:\Users\shado\AppData\Local\Temp\ccoIiB4i.s 			page 28


 151              		.loc 1 228 3 is_stmt 1 view .LVU30
 152 0040 0023     		movs	r3, #0
 153 0042 6B60     		str	r3, [r5, #4]
 231:Drivers/STM32F1xx_HAL_Driver/Src/stm32f1xx_hal_rcc.c ****   {
 154              		.loc 1 231 3 view .LVU31
 155              	.LVL9:
 156              	.L10:
 231:Drivers/STM32F1xx_HAL_Driver/Src/stm32f1xx_hal_rcc.c ****   {
 157              		.loc 1 231 9 view .LVU32
 231:Drivers/STM32F1xx_HAL_Driver/Src/stm32f1xx_hal_rcc.c ****   {
 158              		.loc 1 231 10 is_stmt 0 view .LVU33
 159 0044 274B     		ldr	r3, .L27
 160 0046 5B68     		ldr	r3, [r3, #4]
 231:Drivers/STM32F1xx_HAL_Driver/Src/stm32f1xx_hal_rcc.c ****   {
 161              		.loc 1 231 9 view .LVU34
 162 0048 13F00C0F 		tst	r3, #12
 163 004c 08D0     		beq	.L23
 233:Drivers/STM32F1xx_HAL_Driver/Src/stm32f1xx_hal_rcc.c ****     {
 164              		.loc 1 233 5 is_stmt 1 view .LVU35
 233:Drivers/STM32F1xx_HAL_Driver/Src/stm32f1xx_hal_rcc.c ****     {
 165              		.loc 1 233 10 is_stmt 0 view .LVU36
 166 004e FFF7FEFF 		bl	HAL_GetTick
 167              	.LVL10:
 233:Drivers/STM32F1xx_HAL_Driver/Src/stm32f1xx_hal_rcc.c ****     {
 168              		.loc 1 233 24 view .LVU37
 169 0052 001B     		subs	r0, r0, r4
 233:Drivers/STM32F1xx_HAL_Driver/Src/stm32f1xx_hal_rcc.c ****     {
 170              		.loc 1 233 8 view .LVU38
 171 0054 41F28833 		movw	r3, #5000
 172 0058 9842     		cmp	r0, r3
 173 005a F3D9     		bls	.L10
 235:Drivers/STM32F1xx_HAL_Driver/Src/stm32f1xx_hal_rcc.c ****     }
 174              		.loc 1 235 14 view .LVU39
 175 005c 0324     		movs	r4, #3
 176              	.LVL11:
 235:Drivers/STM32F1xx_HAL_Driver/Src/stm32f1xx_hal_rcc.c ****     }
 177              		.loc 1 235 14 view .LVU40
 178 005e E3E7     		b	.L8
 179              	.LVL12:
 180              	.L23:
 240:Drivers/STM32F1xx_HAL_Driver/Src/stm32f1xx_hal_rcc.c **** 
 181              		.loc 1 240 3 is_stmt 1 view .LVU41
 240:Drivers/STM32F1xx_HAL_Driver/Src/stm32f1xx_hal_rcc.c **** 
 182              		.loc 1 240 19 is_stmt 0 view .LVU42
 183 0060 214B     		ldr	r3, .L27+4
 184 0062 224A     		ldr	r2, .L27+8
 185 0064 1A60     		str	r2, [r3]
 243:Drivers/STM32F1xx_HAL_Driver/Src/stm32f1xx_hal_rcc.c ****   {
 186              		.loc 1 243 3 is_stmt 1 view .LVU43
 243:Drivers/STM32F1xx_HAL_Driver/Src/stm32f1xx_hal_rcc.c ****   {
 187              		.loc 1 243 7 is_stmt 0 view .LVU44
 188 0066 224B     		ldr	r3, .L27+12
 189 0068 1868     		ldr	r0, [r3]
 190 006a FFF7FEFF 		bl	HAL_InitTick
 191              	.LVL13:
 243:Drivers/STM32F1xx_HAL_Driver/Src/stm32f1xx_hal_rcc.c ****   {
 192              		.loc 1 243 6 view .LVU45
ARM GAS  C:\Users\shado\AppData\Local\Temp\ccoIiB4i.s 			page 29


 193 006e 0446     		mov	r4, r0
 194              	.LVL14:
 243:Drivers/STM32F1xx_HAL_Driver/Src/stm32f1xx_hal_rcc.c ****   {
 195              		.loc 1 243 6 view .LVU46
 196 0070 08B1     		cbz	r0, .L24
 245:Drivers/STM32F1xx_HAL_Driver/Src/stm32f1xx_hal_rcc.c ****   }
 197              		.loc 1 245 12 view .LVU47
 198 0072 0124     		movs	r4, #1
 199 0074 D8E7     		b	.L8
 200              	.L24:
 249:Drivers/STM32F1xx_HAL_Driver/Src/stm32f1xx_hal_rcc.c **** 
 201              		.loc 1 249 3 is_stmt 1 view .LVU48
 249:Drivers/STM32F1xx_HAL_Driver/Src/stm32f1xx_hal_rcc.c **** 
 202              		.loc 1 249 15 is_stmt 0 view .LVU49
 203 0076 FFF7FEFF 		bl	HAL_GetTick
 204              	.LVL15:
 205 007a 0546     		mov	r5, r0
 206              	.LVL16:
 252:Drivers/STM32F1xx_HAL_Driver/Src/stm32f1xx_hal_rcc.c **** 
 207              		.loc 1 252 3 is_stmt 1 view .LVU50
 208 007c 194A     		ldr	r2, .L27
 209 007e 1368     		ldr	r3, [r2]
 210 0080 23F08073 		bic	r3, r3, #16777216
 211 0084 1360     		str	r3, [r2]
 255:Drivers/STM32F1xx_HAL_Driver/Src/stm32f1xx_hal_rcc.c ****   {
 212              		.loc 1 255 3 view .LVU51
 213              	.LVL17:
 214              	.L12:
 255:Drivers/STM32F1xx_HAL_Driver/Src/stm32f1xx_hal_rcc.c ****   {
 215              		.loc 1 255 9 view .LVU52
 255:Drivers/STM32F1xx_HAL_Driver/Src/stm32f1xx_hal_rcc.c ****   {
 216              		.loc 1 255 10 is_stmt 0 view .LVU53
 217 0086 174B     		ldr	r3, .L27
 218 0088 1B68     		ldr	r3, [r3]
 255:Drivers/STM32F1xx_HAL_Driver/Src/stm32f1xx_hal_rcc.c ****   {
 219              		.loc 1 255 9 view .LVU54
 220 008a 13F0007F 		tst	r3, #33554432
 221 008e 06D0     		beq	.L25
 257:Drivers/STM32F1xx_HAL_Driver/Src/stm32f1xx_hal_rcc.c ****     {
 222              		.loc 1 257 5 is_stmt 1 view .LVU55
 257:Drivers/STM32F1xx_HAL_Driver/Src/stm32f1xx_hal_rcc.c ****     {
 223              		.loc 1 257 10 is_stmt 0 view .LVU56
 224 0090 FFF7FEFF 		bl	HAL_GetTick
 225              	.LVL18:
 257:Drivers/STM32F1xx_HAL_Driver/Src/stm32f1xx_hal_rcc.c ****     {
 226              		.loc 1 257 24 view .LVU57
 227 0094 401B     		subs	r0, r0, r5
 257:Drivers/STM32F1xx_HAL_Driver/Src/stm32f1xx_hal_rcc.c ****     {
 228              		.loc 1 257 8 view .LVU58
 229 0096 0228     		cmp	r0, #2
 230 0098 F5D9     		bls	.L12
 259:Drivers/STM32F1xx_HAL_Driver/Src/stm32f1xx_hal_rcc.c ****     }
 231              		.loc 1 259 14 view .LVU59
 232 009a 0324     		movs	r4, #3
 233 009c C4E7     		b	.L8
 234              	.L25:
 264:Drivers/STM32F1xx_HAL_Driver/Src/stm32f1xx_hal_rcc.c **** 
ARM GAS  C:\Users\shado\AppData\Local\Temp\ccoIiB4i.s 			page 30


 235              		.loc 1 264 3 is_stmt 1 view .LVU60
 236 009e 114E     		ldr	r6, .L27
 237 00a0 0023     		movs	r3, #0
 238 00a2 7360     		str	r3, [r6, #4]
 267:Drivers/STM32F1xx_HAL_Driver/Src/stm32f1xx_hal_rcc.c **** 
 239              		.loc 1 267 3 view .LVU61
 267:Drivers/STM32F1xx_HAL_Driver/Src/stm32f1xx_hal_rcc.c **** 
 240              		.loc 1 267 15 is_stmt 0 view .LVU62
 241 00a4 FFF7FEFF 		bl	HAL_GetTick
 242              	.LVL19:
 243 00a8 0546     		mov	r5, r0
 244              	.LVL20:
 270:Drivers/STM32F1xx_HAL_Driver/Src/stm32f1xx_hal_rcc.c **** 
 245              		.loc 1 270 3 is_stmt 1 view .LVU63
 246 00aa 3368     		ldr	r3, [r6]
 247 00ac 23F41023 		bic	r3, r3, #589824
 248 00b0 3360     		str	r3, [r6]
 273:Drivers/STM32F1xx_HAL_Driver/Src/stm32f1xx_hal_rcc.c ****   {
 249              		.loc 1 273 3 view .LVU64
 250              	.LVL21:
 251              	.L14:
 273:Drivers/STM32F1xx_HAL_Driver/Src/stm32f1xx_hal_rcc.c ****   {
 252              		.loc 1 273 9 view .LVU65
 273:Drivers/STM32F1xx_HAL_Driver/Src/stm32f1xx_hal_rcc.c ****   {
 253              		.loc 1 273 10 is_stmt 0 view .LVU66
 254 00b2 0C4B     		ldr	r3, .L27
 255 00b4 1B68     		ldr	r3, [r3]
 273:Drivers/STM32F1xx_HAL_Driver/Src/stm32f1xx_hal_rcc.c ****   {
 256              		.loc 1 273 9 view .LVU67
 257 00b6 13F4003F 		tst	r3, #131072
 258 00ba 06D0     		beq	.L26
 275:Drivers/STM32F1xx_HAL_Driver/Src/stm32f1xx_hal_rcc.c ****     {
 259              		.loc 1 275 5 is_stmt 1 view .LVU68
 275:Drivers/STM32F1xx_HAL_Driver/Src/stm32f1xx_hal_rcc.c ****     {
 260              		.loc 1 275 10 is_stmt 0 view .LVU69
 261 00bc FFF7FEFF 		bl	HAL_GetTick
 262              	.LVL22:
 275:Drivers/STM32F1xx_HAL_Driver/Src/stm32f1xx_hal_rcc.c ****     {
 263              		.loc 1 275 24 view .LVU70
 264 00c0 401B     		subs	r0, r0, r5
 275:Drivers/STM32F1xx_HAL_Driver/Src/stm32f1xx_hal_rcc.c ****     {
 265              		.loc 1 275 8 view .LVU71
 266 00c2 6428     		cmp	r0, #100
 267 00c4 F5D9     		bls	.L14
 277:Drivers/STM32F1xx_HAL_Driver/Src/stm32f1xx_hal_rcc.c ****     }
 268              		.loc 1 277 14 view .LVU72
 269 00c6 0324     		movs	r4, #3
 270 00c8 AEE7     		b	.L8
 271              	.L26:
 282:Drivers/STM32F1xx_HAL_Driver/Src/stm32f1xx_hal_rcc.c **** 
 272              		.loc 1 282 3 is_stmt 1 view .LVU73
 273 00ca 064B     		ldr	r3, .L27
 274 00cc 1A68     		ldr	r2, [r3]
 275 00ce 22F48022 		bic	r2, r2, #262144
 276 00d2 1A60     		str	r2, [r3]
 324:Drivers/STM32F1xx_HAL_Driver/Src/stm32f1xx_hal_rcc.c **** 
 277              		.loc 1 324 3 view .LVU74
ARM GAS  C:\Users\shado\AppData\Local\Temp\ccoIiB4i.s 			page 31


 278 00d4 5A6A     		ldr	r2, [r3, #36]
 279 00d6 42F08072 		orr	r2, r2, #16777216
 280 00da 5A62     		str	r2, [r3, #36]
 327:Drivers/STM32F1xx_HAL_Driver/Src/stm32f1xx_hal_rcc.c **** 
 281              		.loc 1 327 3 view .LVU75
 282 00dc 0022     		movs	r2, #0
 283 00de 9A60     		str	r2, [r3, #8]
 329:Drivers/STM32F1xx_HAL_Driver/Src/stm32f1xx_hal_rcc.c **** }
 284              		.loc 1 329 3 view .LVU76
 329:Drivers/STM32F1xx_HAL_Driver/Src/stm32f1xx_hal_rcc.c **** }
 285              		.loc 1 329 10 is_stmt 0 view .LVU77
 286 00e0 A2E7     		b	.L8
 287              	.L28:
 288 00e2 00BF     		.align	2
 289              	.L27:
 290 00e4 00100240 		.word	1073876992
 291 00e8 00000000 		.word	SystemCoreClock
 292 00ec 00127A00 		.word	8000000
 293 00f0 00000000 		.word	uwTickPrio
 294              		.cfi_endproc
 295              	.LFE65:
 297              		.section	.text.HAL_RCC_OscConfig,"ax",%progbits
 298              		.align	1
 299              		.global	HAL_RCC_OscConfig
 300              		.syntax unified
 301              		.thumb
 302              		.thumb_func
 303              		.fpu softvfp
 305              	HAL_RCC_OscConfig:
 306              	.LVL23:
 307              	.LFB66:
 348:Drivers/STM32F1xx_HAL_Driver/Src/stm32f1xx_hal_rcc.c ****   uint32_t tickstart;
 308              		.loc 1 348 1 is_stmt 1 view -0
 309              		.cfi_startproc
 310              		@ args = 0, pretend = 0, frame = 8
 311              		@ frame_needed = 0, uses_anonymous_args = 0
 349:Drivers/STM32F1xx_HAL_Driver/Src/stm32f1xx_hal_rcc.c ****   uint32_t pll_config;
 312              		.loc 1 349 3 view .LVU79
 350:Drivers/STM32F1xx_HAL_Driver/Src/stm32f1xx_hal_rcc.c **** 
 313              		.loc 1 350 3 view .LVU80
 353:Drivers/STM32F1xx_HAL_Driver/Src/stm32f1xx_hal_rcc.c ****   {
 314              		.loc 1 353 3 view .LVU81
 353:Drivers/STM32F1xx_HAL_Driver/Src/stm32f1xx_hal_rcc.c ****   {
 315              		.loc 1 353 6 is_stmt 0 view .LVU82
 316 0000 0028     		cmp	r0, #0
 317 0002 00F0F181 		beq	.L82
 348:Drivers/STM32F1xx_HAL_Driver/Src/stm32f1xx_hal_rcc.c ****   uint32_t tickstart;
 318              		.loc 1 348 1 view .LVU83
 319 0006 70B5     		push	{r4, r5, r6, lr}
 320              	.LCFI3:
 321              		.cfi_def_cfa_offset 16
 322              		.cfi_offset 4, -16
 323              		.cfi_offset 5, -12
 324              		.cfi_offset 6, -8
 325              		.cfi_offset 14, -4
 326 0008 82B0     		sub	sp, sp, #8
 327              	.LCFI4:
ARM GAS  C:\Users\shado\AppData\Local\Temp\ccoIiB4i.s 			page 32


 328              		.cfi_def_cfa_offset 24
 329 000a 0446     		mov	r4, r0
 359:Drivers/STM32F1xx_HAL_Driver/Src/stm32f1xx_hal_rcc.c **** 
 330              		.loc 1 359 3 is_stmt 1 view .LVU84
 362:Drivers/STM32F1xx_HAL_Driver/Src/stm32f1xx_hal_rcc.c ****   {
 331              		.loc 1 362 3 view .LVU85
 362:Drivers/STM32F1xx_HAL_Driver/Src/stm32f1xx_hal_rcc.c ****   {
 332              		.loc 1 362 26 is_stmt 0 view .LVU86
 333 000c 0368     		ldr	r3, [r0]
 362:Drivers/STM32F1xx_HAL_Driver/Src/stm32f1xx_hal_rcc.c ****   {
 334              		.loc 1 362 6 view .LVU87
 335 000e 13F0010F 		tst	r3, #1
 336 0012 2CD0     		beq	.L31
 365:Drivers/STM32F1xx_HAL_Driver/Src/stm32f1xx_hal_rcc.c **** 
 337              		.loc 1 365 5 is_stmt 1 view .LVU88
 368:Drivers/STM32F1xx_HAL_Driver/Src/stm32f1xx_hal_rcc.c ****         || ((__HAL_RCC_GET_SYSCLK_SOURCE() == RCC_SYSCLKSOURCE_STATUS_PLLCLK) && (__HAL_RCC_GET_PLL
 338              		.loc 1 368 5 view .LVU89
 368:Drivers/STM32F1xx_HAL_Driver/Src/stm32f1xx_hal_rcc.c ****         || ((__HAL_RCC_GET_SYSCLK_SOURCE() == RCC_SYSCLKSOURCE_STATUS_PLLCLK) && (__HAL_RCC_GET_PLL
 339              		.loc 1 368 10 is_stmt 0 view .LVU90
 340 0014 994B     		ldr	r3, .L122
 341 0016 5B68     		ldr	r3, [r3, #4]
 342 0018 03F00C03 		and	r3, r3, #12
 368:Drivers/STM32F1xx_HAL_Driver/Src/stm32f1xx_hal_rcc.c ****         || ((__HAL_RCC_GET_SYSCLK_SOURCE() == RCC_SYSCLKSOURCE_STATUS_PLLCLK) && (__HAL_RCC_GET_PLL
 343              		.loc 1 368 8 view .LVU91
 344 001c 042B     		cmp	r3, #4
 345 001e 1DD0     		beq	.L32
 369:Drivers/STM32F1xx_HAL_Driver/Src/stm32f1xx_hal_rcc.c ****     {
 346              		.loc 1 369 14 view .LVU92
 347 0020 964B     		ldr	r3, .L122
 348 0022 5B68     		ldr	r3, [r3, #4]
 349 0024 03F00C03 		and	r3, r3, #12
 369:Drivers/STM32F1xx_HAL_Driver/Src/stm32f1xx_hal_rcc.c ****     {
 350              		.loc 1 369 9 view .LVU93
 351 0028 082B     		cmp	r3, #8
 352 002a 12D0     		beq	.L106
 353              	.L33:
 379:Drivers/STM32F1xx_HAL_Driver/Src/stm32f1xx_hal_rcc.c **** 
 354              		.loc 1 379 7 is_stmt 1 view .LVU94
 379:Drivers/STM32F1xx_HAL_Driver/Src/stm32f1xx_hal_rcc.c **** 
 355              		.loc 1 379 7 view .LVU95
 356 002c 6368     		ldr	r3, [r4, #4]
 357 002e B3F5803F 		cmp	r3, #65536
 358 0032 41D0     		beq	.L107
 379:Drivers/STM32F1xx_HAL_Driver/Src/stm32f1xx_hal_rcc.c **** 
 359              		.loc 1 379 7 discriminator 2 view .LVU96
 360 0034 002B     		cmp	r3, #0
 361 0036 55D1     		bne	.L36
 379:Drivers/STM32F1xx_HAL_Driver/Src/stm32f1xx_hal_rcc.c **** 
 362              		.loc 1 379 7 discriminator 4 view .LVU97
 363 0038 03F18043 		add	r3, r3, #1073741824
 364 003c 03F50433 		add	r3, r3, #135168
 365 0040 1A68     		ldr	r2, [r3]
 366 0042 22F48032 		bic	r2, r2, #65536
 367 0046 1A60     		str	r2, [r3]
 379:Drivers/STM32F1xx_HAL_Driver/Src/stm32f1xx_hal_rcc.c **** 
 368              		.loc 1 379 7 discriminator 4 view .LVU98
 369 0048 1A68     		ldr	r2, [r3]
ARM GAS  C:\Users\shado\AppData\Local\Temp\ccoIiB4i.s 			page 33


 370 004a 22F48022 		bic	r2, r2, #262144
 371 004e 1A60     		str	r2, [r3]
 372 0050 37E0     		b	.L35
 373              	.L106:
 369:Drivers/STM32F1xx_HAL_Driver/Src/stm32f1xx_hal_rcc.c ****     {
 374              		.loc 1 369 83 is_stmt 0 discriminator 1 view .LVU99
 375 0052 8A4B     		ldr	r3, .L122
 376 0054 5B68     		ldr	r3, [r3, #4]
 369:Drivers/STM32F1xx_HAL_Driver/Src/stm32f1xx_hal_rcc.c ****     {
 377              		.loc 1 369 79 discriminator 1 view .LVU100
 378 0056 13F4803F 		tst	r3, #65536
 379 005a E7D0     		beq	.L33
 380              	.L32:
 371:Drivers/STM32F1xx_HAL_Driver/Src/stm32f1xx_hal_rcc.c ****       {
 381              		.loc 1 371 7 is_stmt 1 view .LVU101
 371:Drivers/STM32F1xx_HAL_Driver/Src/stm32f1xx_hal_rcc.c ****       {
 382              		.loc 1 371 12 is_stmt 0 view .LVU102
 383 005c 874B     		ldr	r3, .L122
 384 005e 1B68     		ldr	r3, [r3]
 371:Drivers/STM32F1xx_HAL_Driver/Src/stm32f1xx_hal_rcc.c ****       {
 385              		.loc 1 371 10 view .LVU103
 386 0060 13F4003F 		tst	r3, #131072
 387 0064 03D0     		beq	.L31
 371:Drivers/STM32F1xx_HAL_Driver/Src/stm32f1xx_hal_rcc.c ****       {
 388              		.loc 1 371 79 discriminator 1 view .LVU104
 389 0066 6368     		ldr	r3, [r4, #4]
 371:Drivers/STM32F1xx_HAL_Driver/Src/stm32f1xx_hal_rcc.c ****       {
 390              		.loc 1 371 58 discriminator 1 view .LVU105
 391 0068 002B     		cmp	r3, #0
 392 006a 00F0BF81 		beq	.L108
 393              	.LVL24:
 394              	.L31:
 414:Drivers/STM32F1xx_HAL_Driver/Src/stm32f1xx_hal_rcc.c ****   {
 395              		.loc 1 414 3 is_stmt 1 view .LVU106
 414:Drivers/STM32F1xx_HAL_Driver/Src/stm32f1xx_hal_rcc.c ****   {
 396              		.loc 1 414 26 is_stmt 0 view .LVU107
 397 006e 2368     		ldr	r3, [r4]
 414:Drivers/STM32F1xx_HAL_Driver/Src/stm32f1xx_hal_rcc.c ****   {
 398              		.loc 1 414 6 view .LVU108
 399 0070 13F0020F 		tst	r3, #2
 400 0074 75D0     		beq	.L43
 417:Drivers/STM32F1xx_HAL_Driver/Src/stm32f1xx_hal_rcc.c ****     assert_param(IS_RCC_CALIBRATION_VALUE(RCC_OscInitStruct->HSICalibrationValue));
 401              		.loc 1 417 5 is_stmt 1 view .LVU109
 418:Drivers/STM32F1xx_HAL_Driver/Src/stm32f1xx_hal_rcc.c **** 
 402              		.loc 1 418 5 view .LVU110
 421:Drivers/STM32F1xx_HAL_Driver/Src/stm32f1xx_hal_rcc.c ****         || ((__HAL_RCC_GET_SYSCLK_SOURCE() == RCC_SYSCLKSOURCE_STATUS_PLLCLK) && (__HAL_RCC_GET_PLL
 403              		.loc 1 421 5 view .LVU111
 421:Drivers/STM32F1xx_HAL_Driver/Src/stm32f1xx_hal_rcc.c ****         || ((__HAL_RCC_GET_SYSCLK_SOURCE() == RCC_SYSCLKSOURCE_STATUS_PLLCLK) && (__HAL_RCC_GET_PLL
 404              		.loc 1 421 10 is_stmt 0 view .LVU112
 405 0076 814B     		ldr	r3, .L122
 406 0078 5B68     		ldr	r3, [r3, #4]
 421:Drivers/STM32F1xx_HAL_Driver/Src/stm32f1xx_hal_rcc.c ****         || ((__HAL_RCC_GET_SYSCLK_SOURCE() == RCC_SYSCLKSOURCE_STATUS_PLLCLK) && (__HAL_RCC_GET_PLL
 407              		.loc 1 421 8 view .LVU113
 408 007a 13F00C0F 		tst	r3, #12
 409 007e 5FD0     		beq	.L44
 422:Drivers/STM32F1xx_HAL_Driver/Src/stm32f1xx_hal_rcc.c ****     {
 410              		.loc 1 422 14 view .LVU114
ARM GAS  C:\Users\shado\AppData\Local\Temp\ccoIiB4i.s 			page 34


 411 0080 7E4B     		ldr	r3, .L122
 412 0082 5B68     		ldr	r3, [r3, #4]
 413 0084 03F00C03 		and	r3, r3, #12
 422:Drivers/STM32F1xx_HAL_Driver/Src/stm32f1xx_hal_rcc.c ****     {
 414              		.loc 1 422 9 view .LVU115
 415 0088 082B     		cmp	r3, #8
 416 008a 54D0     		beq	.L109
 417              	.L45:
 439:Drivers/STM32F1xx_HAL_Driver/Src/stm32f1xx_hal_rcc.c ****       {
 418              		.loc 1 439 7 is_stmt 1 view .LVU116
 439:Drivers/STM32F1xx_HAL_Driver/Src/stm32f1xx_hal_rcc.c ****       {
 419              		.loc 1 439 28 is_stmt 0 view .LVU117
 420 008c 2369     		ldr	r3, [r4, #16]
 439:Drivers/STM32F1xx_HAL_Driver/Src/stm32f1xx_hal_rcc.c ****       {
 421              		.loc 1 439 10 view .LVU118
 422 008e 002B     		cmp	r3, #0
 423 0090 00F08A80 		beq	.L47
 442:Drivers/STM32F1xx_HAL_Driver/Src/stm32f1xx_hal_rcc.c **** 
 424              		.loc 1 442 9 is_stmt 1 view .LVU119
 425 0094 7A4B     		ldr	r3, .L122+4
 426 0096 0122     		movs	r2, #1
 427 0098 1A60     		str	r2, [r3]
 445:Drivers/STM32F1xx_HAL_Driver/Src/stm32f1xx_hal_rcc.c **** 
 428              		.loc 1 445 9 view .LVU120
 445:Drivers/STM32F1xx_HAL_Driver/Src/stm32f1xx_hal_rcc.c **** 
 429              		.loc 1 445 21 is_stmt 0 view .LVU121
 430 009a FFF7FEFF 		bl	HAL_GetTick
 431              	.LVL25:
 432 009e 0546     		mov	r5, r0
 433              	.LVL26:
 448:Drivers/STM32F1xx_HAL_Driver/Src/stm32f1xx_hal_rcc.c ****         {
 434              		.loc 1 448 9 is_stmt 1 view .LVU122
 435              	.L48:
 448:Drivers/STM32F1xx_HAL_Driver/Src/stm32f1xx_hal_rcc.c ****         {
 436              		.loc 1 448 15 view .LVU123
 448:Drivers/STM32F1xx_HAL_Driver/Src/stm32f1xx_hal_rcc.c ****         {
 437              		.loc 1 448 16 is_stmt 0 view .LVU124
 438 00a0 764B     		ldr	r3, .L122
 439 00a2 1B68     		ldr	r3, [r3]
 448:Drivers/STM32F1xx_HAL_Driver/Src/stm32f1xx_hal_rcc.c ****         {
 440              		.loc 1 448 15 view .LVU125
 441 00a4 13F0020F 		tst	r3, #2
 442 00a8 75D1     		bne	.L110
 450:Drivers/STM32F1xx_HAL_Driver/Src/stm32f1xx_hal_rcc.c ****           {
 443              		.loc 1 450 11 is_stmt 1 view .LVU126
 450:Drivers/STM32F1xx_HAL_Driver/Src/stm32f1xx_hal_rcc.c ****           {
 444              		.loc 1 450 16 is_stmt 0 view .LVU127
 445 00aa FFF7FEFF 		bl	HAL_GetTick
 446              	.LVL27:
 450:Drivers/STM32F1xx_HAL_Driver/Src/stm32f1xx_hal_rcc.c ****           {
 447              		.loc 1 450 30 view .LVU128
 448 00ae 401B     		subs	r0, r0, r5
 450:Drivers/STM32F1xx_HAL_Driver/Src/stm32f1xx_hal_rcc.c ****           {
 449              		.loc 1 450 14 view .LVU129
 450 00b0 0228     		cmp	r0, #2
 451 00b2 F5D9     		bls	.L48
 452:Drivers/STM32F1xx_HAL_Driver/Src/stm32f1xx_hal_rcc.c ****           }
ARM GAS  C:\Users\shado\AppData\Local\Temp\ccoIiB4i.s 			page 35


 452              		.loc 1 452 20 view .LVU130
 453 00b4 0320     		movs	r0, #3
 454 00b6 9EE1     		b	.L30
 455              	.LVL28:
 456              	.L107:
 379:Drivers/STM32F1xx_HAL_Driver/Src/stm32f1xx_hal_rcc.c **** 
 457              		.loc 1 379 7 is_stmt 1 discriminator 1 view .LVU131
 458 00b8 704A     		ldr	r2, .L122
 459 00ba 1368     		ldr	r3, [r2]
 460 00bc 43F48033 		orr	r3, r3, #65536
 461 00c0 1360     		str	r3, [r2]
 462              	.L35:
 379:Drivers/STM32F1xx_HAL_Driver/Src/stm32f1xx_hal_rcc.c **** 
 463              		.loc 1 379 7 discriminator 10 view .LVU132
 383:Drivers/STM32F1xx_HAL_Driver/Src/stm32f1xx_hal_rcc.c ****       {
 464              		.loc 1 383 7 discriminator 10 view .LVU133
 383:Drivers/STM32F1xx_HAL_Driver/Src/stm32f1xx_hal_rcc.c ****       {
 465              		.loc 1 383 28 is_stmt 0 discriminator 10 view .LVU134
 466 00c2 6368     		ldr	r3, [r4, #4]
 383:Drivers/STM32F1xx_HAL_Driver/Src/stm32f1xx_hal_rcc.c ****       {
 467              		.loc 1 383 10 discriminator 10 view .LVU135
 468 00c4 43B3     		cbz	r3, .L38
 386:Drivers/STM32F1xx_HAL_Driver/Src/stm32f1xx_hal_rcc.c **** 
 469              		.loc 1 386 9 is_stmt 1 view .LVU136
 386:Drivers/STM32F1xx_HAL_Driver/Src/stm32f1xx_hal_rcc.c **** 
 470              		.loc 1 386 21 is_stmt 0 view .LVU137
 471 00c6 FFF7FEFF 		bl	HAL_GetTick
 472              	.LVL29:
 386:Drivers/STM32F1xx_HAL_Driver/Src/stm32f1xx_hal_rcc.c **** 
 473              		.loc 1 386 21 view .LVU138
 474 00ca 0546     		mov	r5, r0
 475              	.LVL30:
 389:Drivers/STM32F1xx_HAL_Driver/Src/stm32f1xx_hal_rcc.c ****         {
 476              		.loc 1 389 9 is_stmt 1 view .LVU139
 477              	.L39:
 389:Drivers/STM32F1xx_HAL_Driver/Src/stm32f1xx_hal_rcc.c ****         {
 478              		.loc 1 389 15 view .LVU140
 389:Drivers/STM32F1xx_HAL_Driver/Src/stm32f1xx_hal_rcc.c ****         {
 479              		.loc 1 389 16 is_stmt 0 view .LVU141
 480 00cc 6B4B     		ldr	r3, .L122
 481 00ce 1B68     		ldr	r3, [r3]
 389:Drivers/STM32F1xx_HAL_Driver/Src/stm32f1xx_hal_rcc.c ****         {
 482              		.loc 1 389 15 view .LVU142
 483 00d0 13F4003F 		tst	r3, #131072
 484 00d4 CBD1     		bne	.L31
 391:Drivers/STM32F1xx_HAL_Driver/Src/stm32f1xx_hal_rcc.c ****           {
 485              		.loc 1 391 11 is_stmt 1 view .LVU143
 391:Drivers/STM32F1xx_HAL_Driver/Src/stm32f1xx_hal_rcc.c ****           {
 486              		.loc 1 391 16 is_stmt 0 view .LVU144
 487 00d6 FFF7FEFF 		bl	HAL_GetTick
 488              	.LVL31:
 391:Drivers/STM32F1xx_HAL_Driver/Src/stm32f1xx_hal_rcc.c ****           {
 489              		.loc 1 391 30 view .LVU145
 490 00da 401B     		subs	r0, r0, r5
 391:Drivers/STM32F1xx_HAL_Driver/Src/stm32f1xx_hal_rcc.c ****           {
 491              		.loc 1 391 14 view .LVU146
 492 00dc 6428     		cmp	r0, #100
ARM GAS  C:\Users\shado\AppData\Local\Temp\ccoIiB4i.s 			page 36


 493 00de F5D9     		bls	.L39
 393:Drivers/STM32F1xx_HAL_Driver/Src/stm32f1xx_hal_rcc.c ****           }
 494              		.loc 1 393 20 view .LVU147
 495 00e0 0320     		movs	r0, #3
 496 00e2 88E1     		b	.L30
 497              	.LVL32:
 498              	.L36:
 379:Drivers/STM32F1xx_HAL_Driver/Src/stm32f1xx_hal_rcc.c **** 
 499              		.loc 1 379 7 is_stmt 1 discriminator 5 view .LVU148
 500 00e4 B3F5A02F 		cmp	r3, #327680
 501 00e8 09D0     		beq	.L111
 379:Drivers/STM32F1xx_HAL_Driver/Src/stm32f1xx_hal_rcc.c **** 
 502              		.loc 1 379 7 discriminator 8 view .LVU149
 503 00ea 644B     		ldr	r3, .L122
 504 00ec 1A68     		ldr	r2, [r3]
 505 00ee 22F48032 		bic	r2, r2, #65536
 506 00f2 1A60     		str	r2, [r3]
 379:Drivers/STM32F1xx_HAL_Driver/Src/stm32f1xx_hal_rcc.c **** 
 507              		.loc 1 379 7 discriminator 8 view .LVU150
 508 00f4 1A68     		ldr	r2, [r3]
 509 00f6 22F48022 		bic	r2, r2, #262144
 510 00fa 1A60     		str	r2, [r3]
 511 00fc E1E7     		b	.L35
 512              	.L111:
 379:Drivers/STM32F1xx_HAL_Driver/Src/stm32f1xx_hal_rcc.c **** 
 513              		.loc 1 379 7 discriminator 7 view .LVU151
 514 00fe 03F18043 		add	r3, r3, #1073741824
 515 0102 A3F53C33 		sub	r3, r3, #192512
 516 0106 1A68     		ldr	r2, [r3]
 517 0108 42F48022 		orr	r2, r2, #262144
 518 010c 1A60     		str	r2, [r3]
 379:Drivers/STM32F1xx_HAL_Driver/Src/stm32f1xx_hal_rcc.c **** 
 519              		.loc 1 379 7 discriminator 7 view .LVU152
 520 010e 1A68     		ldr	r2, [r3]
 521 0110 42F48032 		orr	r2, r2, #65536
 522 0114 1A60     		str	r2, [r3]
 523 0116 D4E7     		b	.L35
 524              	.L38:
 400:Drivers/STM32F1xx_HAL_Driver/Src/stm32f1xx_hal_rcc.c **** 
 525              		.loc 1 400 9 view .LVU153
 400:Drivers/STM32F1xx_HAL_Driver/Src/stm32f1xx_hal_rcc.c **** 
 526              		.loc 1 400 21 is_stmt 0 view .LVU154
 527 0118 FFF7FEFF 		bl	HAL_GetTick
 528              	.LVL33:
 400:Drivers/STM32F1xx_HAL_Driver/Src/stm32f1xx_hal_rcc.c **** 
 529              		.loc 1 400 21 view .LVU155
 530 011c 0546     		mov	r5, r0
 531              	.LVL34:
 403:Drivers/STM32F1xx_HAL_Driver/Src/stm32f1xx_hal_rcc.c ****         {
 532              		.loc 1 403 9 is_stmt 1 view .LVU156
 533              	.L41:
 403:Drivers/STM32F1xx_HAL_Driver/Src/stm32f1xx_hal_rcc.c ****         {
 534              		.loc 1 403 15 view .LVU157
 403:Drivers/STM32F1xx_HAL_Driver/Src/stm32f1xx_hal_rcc.c ****         {
 535              		.loc 1 403 16 is_stmt 0 view .LVU158
 536 011e 574B     		ldr	r3, .L122
 537 0120 1B68     		ldr	r3, [r3]
ARM GAS  C:\Users\shado\AppData\Local\Temp\ccoIiB4i.s 			page 37


 403:Drivers/STM32F1xx_HAL_Driver/Src/stm32f1xx_hal_rcc.c ****         {
 538              		.loc 1 403 15 view .LVU159
 539 0122 13F4003F 		tst	r3, #131072
 540 0126 A2D0     		beq	.L31
 405:Drivers/STM32F1xx_HAL_Driver/Src/stm32f1xx_hal_rcc.c ****           {
 541              		.loc 1 405 11 is_stmt 1 view .LVU160
 405:Drivers/STM32F1xx_HAL_Driver/Src/stm32f1xx_hal_rcc.c ****           {
 542              		.loc 1 405 16 is_stmt 0 view .LVU161
 543 0128 FFF7FEFF 		bl	HAL_GetTick
 544              	.LVL35:
 405:Drivers/STM32F1xx_HAL_Driver/Src/stm32f1xx_hal_rcc.c ****           {
 545              		.loc 1 405 30 view .LVU162
 546 012c 401B     		subs	r0, r0, r5
 405:Drivers/STM32F1xx_HAL_Driver/Src/stm32f1xx_hal_rcc.c ****           {
 547              		.loc 1 405 14 view .LVU163
 548 012e 6428     		cmp	r0, #100
 549 0130 F5D9     		bls	.L41
 407:Drivers/STM32F1xx_HAL_Driver/Src/stm32f1xx_hal_rcc.c ****           }
 550              		.loc 1 407 20 view .LVU164
 551 0132 0320     		movs	r0, #3
 552 0134 5FE1     		b	.L30
 553              	.LVL36:
 554              	.L109:
 422:Drivers/STM32F1xx_HAL_Driver/Src/stm32f1xx_hal_rcc.c ****     {
 555              		.loc 1 422 83 discriminator 1 view .LVU165
 556 0136 514B     		ldr	r3, .L122
 557 0138 5B68     		ldr	r3, [r3, #4]
 422:Drivers/STM32F1xx_HAL_Driver/Src/stm32f1xx_hal_rcc.c ****     {
 558              		.loc 1 422 79 discriminator 1 view .LVU166
 559 013a 13F4803F 		tst	r3, #65536
 560 013e A5D1     		bne	.L45
 561              	.L44:
 425:Drivers/STM32F1xx_HAL_Driver/Src/stm32f1xx_hal_rcc.c ****       {
 562              		.loc 1 425 7 is_stmt 1 view .LVU167
 425:Drivers/STM32F1xx_HAL_Driver/Src/stm32f1xx_hal_rcc.c ****       {
 563              		.loc 1 425 12 is_stmt 0 view .LVU168
 564 0140 4E4B     		ldr	r3, .L122
 565 0142 1B68     		ldr	r3, [r3]
 425:Drivers/STM32F1xx_HAL_Driver/Src/stm32f1xx_hal_rcc.c ****       {
 566              		.loc 1 425 10 view .LVU169
 567 0144 13F0020F 		tst	r3, #2
 568 0148 03D0     		beq	.L46
 425:Drivers/STM32F1xx_HAL_Driver/Src/stm32f1xx_hal_rcc.c ****       {
 569              		.loc 1 425 79 discriminator 1 view .LVU170
 570 014a 2369     		ldr	r3, [r4, #16]
 425:Drivers/STM32F1xx_HAL_Driver/Src/stm32f1xx_hal_rcc.c ****       {
 571              		.loc 1 425 58 discriminator 1 view .LVU171
 572 014c 012B     		cmp	r3, #1
 573 014e 40F04F81 		bne	.L86
 574              	.L46:
 433:Drivers/STM32F1xx_HAL_Driver/Src/stm32f1xx_hal_rcc.c ****       }
 575              		.loc 1 433 9 is_stmt 1 view .LVU172
 576 0152 4A4A     		ldr	r2, .L122
 577 0154 1368     		ldr	r3, [r2]
 578 0156 23F0F803 		bic	r3, r3, #248
 579 015a 6169     		ldr	r1, [r4, #20]
 580 015c 43EAC103 		orr	r3, r3, r1, lsl #3
ARM GAS  C:\Users\shado\AppData\Local\Temp\ccoIiB4i.s 			page 38


 581 0160 1360     		str	r3, [r2]
 582              	.L43:
 479:Drivers/STM32F1xx_HAL_Driver/Src/stm32f1xx_hal_rcc.c ****   {
 583              		.loc 1 479 3 view .LVU173
 479:Drivers/STM32F1xx_HAL_Driver/Src/stm32f1xx_hal_rcc.c ****   {
 584              		.loc 1 479 26 is_stmt 0 view .LVU174
 585 0162 2368     		ldr	r3, [r4]
 479:Drivers/STM32F1xx_HAL_Driver/Src/stm32f1xx_hal_rcc.c ****   {
 586              		.loc 1 479 6 view .LVU175
 587 0164 13F0080F 		tst	r3, #8
 588 0168 33D0     		beq	.L52
 482:Drivers/STM32F1xx_HAL_Driver/Src/stm32f1xx_hal_rcc.c **** 
 589              		.loc 1 482 5 is_stmt 1 view .LVU176
 485:Drivers/STM32F1xx_HAL_Driver/Src/stm32f1xx_hal_rcc.c ****     {
 590              		.loc 1 485 5 view .LVU177
 485:Drivers/STM32F1xx_HAL_Driver/Src/stm32f1xx_hal_rcc.c ****     {
 591              		.loc 1 485 26 is_stmt 0 view .LVU178
 592 016a A369     		ldr	r3, [r4, #24]
 485:Drivers/STM32F1xx_HAL_Driver/Src/stm32f1xx_hal_rcc.c ****     {
 593              		.loc 1 485 8 view .LVU179
 594 016c 002B     		cmp	r3, #0
 595 016e 5CD0     		beq	.L53
 488:Drivers/STM32F1xx_HAL_Driver/Src/stm32f1xx_hal_rcc.c **** 
 596              		.loc 1 488 7 is_stmt 1 view .LVU180
 597 0170 434B     		ldr	r3, .L122+4
 598 0172 0122     		movs	r2, #1
 599 0174 C3F88024 		str	r2, [r3, #1152]
 491:Drivers/STM32F1xx_HAL_Driver/Src/stm32f1xx_hal_rcc.c **** 
 600              		.loc 1 491 7 view .LVU181
 491:Drivers/STM32F1xx_HAL_Driver/Src/stm32f1xx_hal_rcc.c **** 
 601              		.loc 1 491 19 is_stmt 0 view .LVU182
 602 0178 FFF7FEFF 		bl	HAL_GetTick
 603              	.LVL37:
 604 017c 0546     		mov	r5, r0
 605              	.LVL38:
 494:Drivers/STM32F1xx_HAL_Driver/Src/stm32f1xx_hal_rcc.c ****       {
 606              		.loc 1 494 7 is_stmt 1 view .LVU183
 607              	.L54:
 494:Drivers/STM32F1xx_HAL_Driver/Src/stm32f1xx_hal_rcc.c ****       {
 608              		.loc 1 494 13 view .LVU184
 494:Drivers/STM32F1xx_HAL_Driver/Src/stm32f1xx_hal_rcc.c ****       {
 609              		.loc 1 494 14 is_stmt 0 view .LVU185
 610 017e 3F4B     		ldr	r3, .L122
 611 0180 5B6A     		ldr	r3, [r3, #36]
 494:Drivers/STM32F1xx_HAL_Driver/Src/stm32f1xx_hal_rcc.c ****       {
 612              		.loc 1 494 13 view .LVU186
 613 0182 13F0020F 		tst	r3, #2
 614 0186 21D1     		bne	.L112
 496:Drivers/STM32F1xx_HAL_Driver/Src/stm32f1xx_hal_rcc.c ****         {
 615              		.loc 1 496 9 is_stmt 1 view .LVU187
 496:Drivers/STM32F1xx_HAL_Driver/Src/stm32f1xx_hal_rcc.c ****         {
 616              		.loc 1 496 14 is_stmt 0 view .LVU188
 617 0188 FFF7FEFF 		bl	HAL_GetTick
 618              	.LVL39:
 496:Drivers/STM32F1xx_HAL_Driver/Src/stm32f1xx_hal_rcc.c ****         {
 619              		.loc 1 496 28 view .LVU189
 620 018c 401B     		subs	r0, r0, r5
ARM GAS  C:\Users\shado\AppData\Local\Temp\ccoIiB4i.s 			page 39


 496:Drivers/STM32F1xx_HAL_Driver/Src/stm32f1xx_hal_rcc.c ****         {
 621              		.loc 1 496 12 view .LVU190
 622 018e 0228     		cmp	r0, #2
 623 0190 F5D9     		bls	.L54
 498:Drivers/STM32F1xx_HAL_Driver/Src/stm32f1xx_hal_rcc.c ****         }
 624              		.loc 1 498 18 view .LVU191
 625 0192 0320     		movs	r0, #3
 626 0194 2FE1     		b	.L30
 627              	.L110:
 457:Drivers/STM32F1xx_HAL_Driver/Src/stm32f1xx_hal_rcc.c ****       }
 628              		.loc 1 457 9 is_stmt 1 view .LVU192
 629 0196 394A     		ldr	r2, .L122
 630 0198 1368     		ldr	r3, [r2]
 631 019a 23F0F803 		bic	r3, r3, #248
 632 019e 6169     		ldr	r1, [r4, #20]
 633 01a0 43EAC103 		orr	r3, r3, r1, lsl #3
 634 01a4 1360     		str	r3, [r2]
 635 01a6 DCE7     		b	.L43
 636              	.LVL40:
 637              	.L47:
 462:Drivers/STM32F1xx_HAL_Driver/Src/stm32f1xx_hal_rcc.c **** 
 638              		.loc 1 462 9 view .LVU193
 639 01a8 354B     		ldr	r3, .L122+4
 640 01aa 0022     		movs	r2, #0
 641 01ac 1A60     		str	r2, [r3]
 465:Drivers/STM32F1xx_HAL_Driver/Src/stm32f1xx_hal_rcc.c **** 
 642              		.loc 1 465 9 view .LVU194
 465:Drivers/STM32F1xx_HAL_Driver/Src/stm32f1xx_hal_rcc.c **** 
 643              		.loc 1 465 21 is_stmt 0 view .LVU195
 644 01ae FFF7FEFF 		bl	HAL_GetTick
 645              	.LVL41:
 646 01b2 0546     		mov	r5, r0
 647              	.LVL42:
 468:Drivers/STM32F1xx_HAL_Driver/Src/stm32f1xx_hal_rcc.c ****         {
 648              		.loc 1 468 9 is_stmt 1 view .LVU196
 649              	.L50:
 468:Drivers/STM32F1xx_HAL_Driver/Src/stm32f1xx_hal_rcc.c ****         {
 650              		.loc 1 468 15 view .LVU197
 468:Drivers/STM32F1xx_HAL_Driver/Src/stm32f1xx_hal_rcc.c ****         {
 651              		.loc 1 468 16 is_stmt 0 view .LVU198
 652 01b4 314B     		ldr	r3, .L122
 653 01b6 1B68     		ldr	r3, [r3]
 468:Drivers/STM32F1xx_HAL_Driver/Src/stm32f1xx_hal_rcc.c ****         {
 654              		.loc 1 468 15 view .LVU199
 655 01b8 13F0020F 		tst	r3, #2
 656 01bc D1D0     		beq	.L43
 470:Drivers/STM32F1xx_HAL_Driver/Src/stm32f1xx_hal_rcc.c ****           {
 657              		.loc 1 470 11 is_stmt 1 view .LVU200
 470:Drivers/STM32F1xx_HAL_Driver/Src/stm32f1xx_hal_rcc.c ****           {
 658              		.loc 1 470 16 is_stmt 0 view .LVU201
 659 01be FFF7FEFF 		bl	HAL_GetTick
 660              	.LVL43:
 470:Drivers/STM32F1xx_HAL_Driver/Src/stm32f1xx_hal_rcc.c ****           {
 661              		.loc 1 470 30 view .LVU202
 662 01c2 401B     		subs	r0, r0, r5
 470:Drivers/STM32F1xx_HAL_Driver/Src/stm32f1xx_hal_rcc.c ****           {
 663              		.loc 1 470 14 view .LVU203
ARM GAS  C:\Users\shado\AppData\Local\Temp\ccoIiB4i.s 			page 40


 664 01c4 0228     		cmp	r0, #2
 665 01c6 F5D9     		bls	.L50
 472:Drivers/STM32F1xx_HAL_Driver/Src/stm32f1xx_hal_rcc.c ****           }
 666              		.loc 1 472 20 view .LVU204
 667 01c8 0320     		movs	r0, #3
 668 01ca 14E1     		b	.L30
 669              	.L112:
 503:Drivers/STM32F1xx_HAL_Driver/Src/stm32f1xx_hal_rcc.c ****     }
 670              		.loc 1 503 7 is_stmt 1 view .LVU205
 671 01cc 0120     		movs	r0, #1
 672 01ce FFF7FEFF 		bl	RCC_Delay
 673              	.LVL44:
 674              	.L52:
 524:Drivers/STM32F1xx_HAL_Driver/Src/stm32f1xx_hal_rcc.c ****   {
 675              		.loc 1 524 3 view .LVU206
 524:Drivers/STM32F1xx_HAL_Driver/Src/stm32f1xx_hal_rcc.c ****   {
 676              		.loc 1 524 26 is_stmt 0 view .LVU207
 677 01d2 2368     		ldr	r3, [r4]
 524:Drivers/STM32F1xx_HAL_Driver/Src/stm32f1xx_hal_rcc.c ****   {
 678              		.loc 1 524 6 view .LVU208
 679 01d4 13F0040F 		tst	r3, #4
 680 01d8 00F09680 		beq	.L58
 681              	.LBB2:
 526:Drivers/STM32F1xx_HAL_Driver/Src/stm32f1xx_hal_rcc.c **** 
 682              		.loc 1 526 5 is_stmt 1 view .LVU209
 683              	.LVL45:
 529:Drivers/STM32F1xx_HAL_Driver/Src/stm32f1xx_hal_rcc.c **** 
 684              		.loc 1 529 5 view .LVU210
 533:Drivers/STM32F1xx_HAL_Driver/Src/stm32f1xx_hal_rcc.c ****     {
 685              		.loc 1 533 5 view .LVU211
 533:Drivers/STM32F1xx_HAL_Driver/Src/stm32f1xx_hal_rcc.c ****     {
 686              		.loc 1 533 9 is_stmt 0 view .LVU212
 687 01dc 274B     		ldr	r3, .L122
 688 01de DB69     		ldr	r3, [r3, #28]
 533:Drivers/STM32F1xx_HAL_Driver/Src/stm32f1xx_hal_rcc.c ****     {
 689              		.loc 1 533 8 view .LVU213
 690 01e0 13F0805F 		tst	r3, #268435456
 691 01e4 34D1     		bne	.L91
 535:Drivers/STM32F1xx_HAL_Driver/Src/stm32f1xx_hal_rcc.c ****       pwrclkchanged = SET;
 692              		.loc 1 535 7 is_stmt 1 view .LVU214
 693              	.LBB3:
 535:Drivers/STM32F1xx_HAL_Driver/Src/stm32f1xx_hal_rcc.c ****       pwrclkchanged = SET;
 694              		.loc 1 535 7 view .LVU215
 535:Drivers/STM32F1xx_HAL_Driver/Src/stm32f1xx_hal_rcc.c ****       pwrclkchanged = SET;
 695              		.loc 1 535 7 view .LVU216
 696 01e6 254B     		ldr	r3, .L122
 697 01e8 DA69     		ldr	r2, [r3, #28]
 698 01ea 42F08052 		orr	r2, r2, #268435456
 699 01ee DA61     		str	r2, [r3, #28]
 535:Drivers/STM32F1xx_HAL_Driver/Src/stm32f1xx_hal_rcc.c ****       pwrclkchanged = SET;
 700              		.loc 1 535 7 view .LVU217
 701 01f0 DB69     		ldr	r3, [r3, #28]
 702 01f2 03F08053 		and	r3, r3, #268435456
 703 01f6 0193     		str	r3, [sp, #4]
 535:Drivers/STM32F1xx_HAL_Driver/Src/stm32f1xx_hal_rcc.c ****       pwrclkchanged = SET;
 704              		.loc 1 535 7 view .LVU218
 705 01f8 019B     		ldr	r3, [sp, #4]
ARM GAS  C:\Users\shado\AppData\Local\Temp\ccoIiB4i.s 			page 41


 706              	.LBE3:
 535:Drivers/STM32F1xx_HAL_Driver/Src/stm32f1xx_hal_rcc.c ****       pwrclkchanged = SET;
 707              		.loc 1 535 7 view .LVU219
 536:Drivers/STM32F1xx_HAL_Driver/Src/stm32f1xx_hal_rcc.c ****     }
 708              		.loc 1 536 7 view .LVU220
 709              	.LVL46:
 536:Drivers/STM32F1xx_HAL_Driver/Src/stm32f1xx_hal_rcc.c ****     }
 710              		.loc 1 536 21 is_stmt 0 view .LVU221
 711 01fa 0125     		movs	r5, #1
 712              	.LVL47:
 713              	.L59:
 539:Drivers/STM32F1xx_HAL_Driver/Src/stm32f1xx_hal_rcc.c ****     {
 714              		.loc 1 539 5 is_stmt 1 view .LVU222
 539:Drivers/STM32F1xx_HAL_Driver/Src/stm32f1xx_hal_rcc.c ****     {
 715              		.loc 1 539 9 is_stmt 0 view .LVU223
 716 01fc 214B     		ldr	r3, .L122+8
 717 01fe 1B68     		ldr	r3, [r3]
 539:Drivers/STM32F1xx_HAL_Driver/Src/stm32f1xx_hal_rcc.c ****     {
 718              		.loc 1 539 8 view .LVU224
 719 0200 13F4807F 		tst	r3, #256
 720 0204 26D0     		beq	.L113
 721              	.L60:
 557:Drivers/STM32F1xx_HAL_Driver/Src/stm32f1xx_hal_rcc.c ****     /* Check the LSE State */
 722              		.loc 1 557 5 is_stmt 1 view .LVU225
 557:Drivers/STM32F1xx_HAL_Driver/Src/stm32f1xx_hal_rcc.c ****     /* Check the LSE State */
 723              		.loc 1 557 5 view .LVU226
 724 0206 E368     		ldr	r3, [r4, #12]
 725 0208 012B     		cmp	r3, #1
 726 020a 3DD0     		beq	.L114
 557:Drivers/STM32F1xx_HAL_Driver/Src/stm32f1xx_hal_rcc.c ****     /* Check the LSE State */
 727              		.loc 1 557 5 discriminator 2 view .LVU227
 728 020c 002B     		cmp	r3, #0
 729 020e 53D1     		bne	.L65
 557:Drivers/STM32F1xx_HAL_Driver/Src/stm32f1xx_hal_rcc.c ****     /* Check the LSE State */
 730              		.loc 1 557 5 discriminator 4 view .LVU228
 731 0210 03F18043 		add	r3, r3, #1073741824
 732 0214 03F50433 		add	r3, r3, #135168
 733 0218 1A6A     		ldr	r2, [r3, #32]
 734 021a 22F00102 		bic	r2, r2, #1
 735 021e 1A62     		str	r2, [r3, #32]
 557:Drivers/STM32F1xx_HAL_Driver/Src/stm32f1xx_hal_rcc.c ****     /* Check the LSE State */
 736              		.loc 1 557 5 discriminator 4 view .LVU229
 737 0220 1A6A     		ldr	r2, [r3, #32]
 738 0222 22F00402 		bic	r2, r2, #4
 739 0226 1A62     		str	r2, [r3, #32]
 740 0228 33E0     		b	.L64
 741              	.LVL48:
 742              	.L53:
 557:Drivers/STM32F1xx_HAL_Driver/Src/stm32f1xx_hal_rcc.c ****     /* Check the LSE State */
 743              		.loc 1 557 5 is_stmt 0 discriminator 4 view .LVU230
 744              	.LBE2:
 508:Drivers/STM32F1xx_HAL_Driver/Src/stm32f1xx_hal_rcc.c **** 
 745              		.loc 1 508 7 is_stmt 1 view .LVU231
 746 022a 154B     		ldr	r3, .L122+4
 747 022c 0022     		movs	r2, #0
 748 022e C3F88024 		str	r2, [r3, #1152]
 511:Drivers/STM32F1xx_HAL_Driver/Src/stm32f1xx_hal_rcc.c **** 
ARM GAS  C:\Users\shado\AppData\Local\Temp\ccoIiB4i.s 			page 42


 749              		.loc 1 511 7 view .LVU232
 511:Drivers/STM32F1xx_HAL_Driver/Src/stm32f1xx_hal_rcc.c **** 
 750              		.loc 1 511 19 is_stmt 0 view .LVU233
 751 0232 FFF7FEFF 		bl	HAL_GetTick
 752              	.LVL49:
 753 0236 0546     		mov	r5, r0
 754              	.LVL50:
 514:Drivers/STM32F1xx_HAL_Driver/Src/stm32f1xx_hal_rcc.c ****       {
 755              		.loc 1 514 7 is_stmt 1 view .LVU234
 756              	.L56:
 514:Drivers/STM32F1xx_HAL_Driver/Src/stm32f1xx_hal_rcc.c ****       {
 757              		.loc 1 514 13 view .LVU235
 514:Drivers/STM32F1xx_HAL_Driver/Src/stm32f1xx_hal_rcc.c ****       {
 758              		.loc 1 514 14 is_stmt 0 view .LVU236
 759 0238 104B     		ldr	r3, .L122
 760 023a 5B6A     		ldr	r3, [r3, #36]
 514:Drivers/STM32F1xx_HAL_Driver/Src/stm32f1xx_hal_rcc.c ****       {
 761              		.loc 1 514 13 view .LVU237
 762 023c 13F0020F 		tst	r3, #2
 763 0240 C7D0     		beq	.L52
 516:Drivers/STM32F1xx_HAL_Driver/Src/stm32f1xx_hal_rcc.c ****         {
 764              		.loc 1 516 9 is_stmt 1 view .LVU238
 516:Drivers/STM32F1xx_HAL_Driver/Src/stm32f1xx_hal_rcc.c ****         {
 765              		.loc 1 516 14 is_stmt 0 view .LVU239
 766 0242 FFF7FEFF 		bl	HAL_GetTick
 767              	.LVL51:
 516:Drivers/STM32F1xx_HAL_Driver/Src/stm32f1xx_hal_rcc.c ****         {
 768              		.loc 1 516 28 view .LVU240
 769 0246 401B     		subs	r0, r0, r5
 516:Drivers/STM32F1xx_HAL_Driver/Src/stm32f1xx_hal_rcc.c ****         {
 770              		.loc 1 516 12 view .LVU241
 771 0248 0228     		cmp	r0, #2
 772 024a F5D9     		bls	.L56
 518:Drivers/STM32F1xx_HAL_Driver/Src/stm32f1xx_hal_rcc.c ****         }
 773              		.loc 1 518 18 view .LVU242
 774 024c 0320     		movs	r0, #3
 775 024e D2E0     		b	.L30
 776              	.LVL52:
 777              	.L91:
 778              	.LBB4:
 526:Drivers/STM32F1xx_HAL_Driver/Src/stm32f1xx_hal_rcc.c **** 
 779              		.loc 1 526 22 view .LVU243
 780 0250 0025     		movs	r5, #0
 781 0252 D3E7     		b	.L59
 782              	.LVL53:
 783              	.L113:
 542:Drivers/STM32F1xx_HAL_Driver/Src/stm32f1xx_hal_rcc.c **** 
 784              		.loc 1 542 7 is_stmt 1 view .LVU244
 785 0254 0B4A     		ldr	r2, .L122+8
 786 0256 1368     		ldr	r3, [r2]
 787 0258 43F48073 		orr	r3, r3, #256
 788 025c 1360     		str	r3, [r2]
 545:Drivers/STM32F1xx_HAL_Driver/Src/stm32f1xx_hal_rcc.c **** 
 789              		.loc 1 545 7 view .LVU245
 545:Drivers/STM32F1xx_HAL_Driver/Src/stm32f1xx_hal_rcc.c **** 
 790              		.loc 1 545 19 is_stmt 0 view .LVU246
 791 025e FFF7FEFF 		bl	HAL_GetTick
ARM GAS  C:\Users\shado\AppData\Local\Temp\ccoIiB4i.s 			page 43


 792              	.LVL54:
 793 0262 0646     		mov	r6, r0
 794              	.LVL55:
 547:Drivers/STM32F1xx_HAL_Driver/Src/stm32f1xx_hal_rcc.c ****       {
 795              		.loc 1 547 7 is_stmt 1 view .LVU247
 796              	.L61:
 547:Drivers/STM32F1xx_HAL_Driver/Src/stm32f1xx_hal_rcc.c ****       {
 797              		.loc 1 547 13 view .LVU248
 547:Drivers/STM32F1xx_HAL_Driver/Src/stm32f1xx_hal_rcc.c ****       {
 798              		.loc 1 547 14 is_stmt 0 view .LVU249
 799 0264 074B     		ldr	r3, .L122+8
 800 0266 1B68     		ldr	r3, [r3]
 547:Drivers/STM32F1xx_HAL_Driver/Src/stm32f1xx_hal_rcc.c ****       {
 801              		.loc 1 547 13 view .LVU250
 802 0268 13F4807F 		tst	r3, #256
 803 026c CBD1     		bne	.L60
 549:Drivers/STM32F1xx_HAL_Driver/Src/stm32f1xx_hal_rcc.c ****         {
 804              		.loc 1 549 9 is_stmt 1 view .LVU251
 549:Drivers/STM32F1xx_HAL_Driver/Src/stm32f1xx_hal_rcc.c ****         {
 805              		.loc 1 549 14 is_stmt 0 view .LVU252
 806 026e FFF7FEFF 		bl	HAL_GetTick
 807              	.LVL56:
 549:Drivers/STM32F1xx_HAL_Driver/Src/stm32f1xx_hal_rcc.c ****         {
 808              		.loc 1 549 28 view .LVU253
 809 0272 801B     		subs	r0, r0, r6
 549:Drivers/STM32F1xx_HAL_Driver/Src/stm32f1xx_hal_rcc.c ****         {
 810              		.loc 1 549 12 view .LVU254
 811 0274 6428     		cmp	r0, #100
 812 0276 F5D9     		bls	.L61
 551:Drivers/STM32F1xx_HAL_Driver/Src/stm32f1xx_hal_rcc.c ****         }
 813              		.loc 1 551 18 view .LVU255
 814 0278 0320     		movs	r0, #3
 815 027a BCE0     		b	.L30
 816              	.L123:
 817              		.align	2
 818              	.L122:
 819 027c 00100240 		.word	1073876992
 820 0280 00004242 		.word	1111621632
 821 0284 00700040 		.word	1073770496
 822              	.LVL57:
 823              	.L114:
 557:Drivers/STM32F1xx_HAL_Driver/Src/stm32f1xx_hal_rcc.c ****     /* Check the LSE State */
 824              		.loc 1 557 5 is_stmt 1 discriminator 1 view .LVU256
 825 0288 5F4A     		ldr	r2, .L124
 826 028a 136A     		ldr	r3, [r2, #32]
 827 028c 43F00103 		orr	r3, r3, #1
 828 0290 1362     		str	r3, [r2, #32]
 829              	.L64:
 557:Drivers/STM32F1xx_HAL_Driver/Src/stm32f1xx_hal_rcc.c ****     /* Check the LSE State */
 830              		.loc 1 557 5 discriminator 10 view .LVU257
 559:Drivers/STM32F1xx_HAL_Driver/Src/stm32f1xx_hal_rcc.c ****     {
 831              		.loc 1 559 5 discriminator 10 view .LVU258
 559:Drivers/STM32F1xx_HAL_Driver/Src/stm32f1xx_hal_rcc.c ****     {
 832              		.loc 1 559 26 is_stmt 0 discriminator 10 view .LVU259
 833 0292 E368     		ldr	r3, [r4, #12]
 559:Drivers/STM32F1xx_HAL_Driver/Src/stm32f1xx_hal_rcc.c ****     {
 834              		.loc 1 559 8 discriminator 10 view .LVU260
ARM GAS  C:\Users\shado\AppData\Local\Temp\ccoIiB4i.s 			page 44


 835 0294 33B3     		cbz	r3, .L67
 562:Drivers/STM32F1xx_HAL_Driver/Src/stm32f1xx_hal_rcc.c **** 
 836              		.loc 1 562 7 is_stmt 1 view .LVU261
 562:Drivers/STM32F1xx_HAL_Driver/Src/stm32f1xx_hal_rcc.c **** 
 837              		.loc 1 562 19 is_stmt 0 view .LVU262
 838 0296 FFF7FEFF 		bl	HAL_GetTick
 839              	.LVL58:
 840 029a 0646     		mov	r6, r0
 841              	.LVL59:
 565:Drivers/STM32F1xx_HAL_Driver/Src/stm32f1xx_hal_rcc.c ****       {
 842              		.loc 1 565 7 is_stmt 1 view .LVU263
 843              	.L68:
 565:Drivers/STM32F1xx_HAL_Driver/Src/stm32f1xx_hal_rcc.c ****       {
 844              		.loc 1 565 13 view .LVU264
 565:Drivers/STM32F1xx_HAL_Driver/Src/stm32f1xx_hal_rcc.c ****       {
 845              		.loc 1 565 14 is_stmt 0 view .LVU265
 846 029c 5A4B     		ldr	r3, .L124
 847 029e 1B6A     		ldr	r3, [r3, #32]
 565:Drivers/STM32F1xx_HAL_Driver/Src/stm32f1xx_hal_rcc.c ****       {
 848              		.loc 1 565 13 view .LVU266
 849 02a0 13F0020F 		tst	r3, #2
 850 02a4 2FD1     		bne	.L70
 567:Drivers/STM32F1xx_HAL_Driver/Src/stm32f1xx_hal_rcc.c ****         {
 851              		.loc 1 567 9 is_stmt 1 view .LVU267
 567:Drivers/STM32F1xx_HAL_Driver/Src/stm32f1xx_hal_rcc.c ****         {
 852              		.loc 1 567 14 is_stmt 0 view .LVU268
 853 02a6 FFF7FEFF 		bl	HAL_GetTick
 854              	.LVL60:
 567:Drivers/STM32F1xx_HAL_Driver/Src/stm32f1xx_hal_rcc.c ****         {
 855              		.loc 1 567 28 view .LVU269
 856 02aa 801B     		subs	r0, r0, r6
 567:Drivers/STM32F1xx_HAL_Driver/Src/stm32f1xx_hal_rcc.c ****         {
 857              		.loc 1 567 12 view .LVU270
 858 02ac 41F28833 		movw	r3, #5000
 859 02b0 9842     		cmp	r0, r3
 860 02b2 F3D9     		bls	.L68
 569:Drivers/STM32F1xx_HAL_Driver/Src/stm32f1xx_hal_rcc.c ****         }
 861              		.loc 1 569 18 view .LVU271
 862 02b4 0320     		movs	r0, #3
 863 02b6 9EE0     		b	.L30
 864              	.LVL61:
 865              	.L65:
 557:Drivers/STM32F1xx_HAL_Driver/Src/stm32f1xx_hal_rcc.c ****     /* Check the LSE State */
 866              		.loc 1 557 5 is_stmt 1 discriminator 5 view .LVU272
 867 02b8 052B     		cmp	r3, #5
 868 02ba 09D0     		beq	.L115
 557:Drivers/STM32F1xx_HAL_Driver/Src/stm32f1xx_hal_rcc.c ****     /* Check the LSE State */
 869              		.loc 1 557 5 discriminator 8 view .LVU273
 870 02bc 524B     		ldr	r3, .L124
 871 02be 1A6A     		ldr	r2, [r3, #32]
 872 02c0 22F00102 		bic	r2, r2, #1
 873 02c4 1A62     		str	r2, [r3, #32]
 557:Drivers/STM32F1xx_HAL_Driver/Src/stm32f1xx_hal_rcc.c ****     /* Check the LSE State */
 874              		.loc 1 557 5 discriminator 8 view .LVU274
 875 02c6 1A6A     		ldr	r2, [r3, #32]
 876 02c8 22F00402 		bic	r2, r2, #4
 877 02cc 1A62     		str	r2, [r3, #32]
ARM GAS  C:\Users\shado\AppData\Local\Temp\ccoIiB4i.s 			page 45


 878 02ce E0E7     		b	.L64
 879              	.L115:
 557:Drivers/STM32F1xx_HAL_Driver/Src/stm32f1xx_hal_rcc.c ****     /* Check the LSE State */
 880              		.loc 1 557 5 discriminator 7 view .LVU275
 881 02d0 4D4B     		ldr	r3, .L124
 882 02d2 1A6A     		ldr	r2, [r3, #32]
 883 02d4 42F00402 		orr	r2, r2, #4
 884 02d8 1A62     		str	r2, [r3, #32]
 557:Drivers/STM32F1xx_HAL_Driver/Src/stm32f1xx_hal_rcc.c ****     /* Check the LSE State */
 885              		.loc 1 557 5 discriminator 7 view .LVU276
 886 02da 1A6A     		ldr	r2, [r3, #32]
 887 02dc 42F00102 		orr	r2, r2, #1
 888 02e0 1A62     		str	r2, [r3, #32]
 889 02e2 D6E7     		b	.L64
 890              	.L67:
 576:Drivers/STM32F1xx_HAL_Driver/Src/stm32f1xx_hal_rcc.c **** 
 891              		.loc 1 576 7 view .LVU277
 576:Drivers/STM32F1xx_HAL_Driver/Src/stm32f1xx_hal_rcc.c **** 
 892              		.loc 1 576 19 is_stmt 0 view .LVU278
 893 02e4 FFF7FEFF 		bl	HAL_GetTick
 894              	.LVL62:
 895 02e8 0646     		mov	r6, r0
 896              	.LVL63:
 579:Drivers/STM32F1xx_HAL_Driver/Src/stm32f1xx_hal_rcc.c ****       {
 897              		.loc 1 579 7 is_stmt 1 view .LVU279
 898              	.L71:
 579:Drivers/STM32F1xx_HAL_Driver/Src/stm32f1xx_hal_rcc.c ****       {
 899              		.loc 1 579 13 view .LVU280
 579:Drivers/STM32F1xx_HAL_Driver/Src/stm32f1xx_hal_rcc.c ****       {
 900              		.loc 1 579 14 is_stmt 0 view .LVU281
 901 02ea 474B     		ldr	r3, .L124
 902 02ec 1B6A     		ldr	r3, [r3, #32]
 579:Drivers/STM32F1xx_HAL_Driver/Src/stm32f1xx_hal_rcc.c ****       {
 903              		.loc 1 579 13 view .LVU282
 904 02ee 13F0020F 		tst	r3, #2
 905 02f2 08D0     		beq	.L70
 581:Drivers/STM32F1xx_HAL_Driver/Src/stm32f1xx_hal_rcc.c ****         {
 906              		.loc 1 581 9 is_stmt 1 view .LVU283
 581:Drivers/STM32F1xx_HAL_Driver/Src/stm32f1xx_hal_rcc.c ****         {
 907              		.loc 1 581 14 is_stmt 0 view .LVU284
 908 02f4 FFF7FEFF 		bl	HAL_GetTick
 909              	.LVL64:
 581:Drivers/STM32F1xx_HAL_Driver/Src/stm32f1xx_hal_rcc.c ****         {
 910              		.loc 1 581 28 view .LVU285
 911 02f8 801B     		subs	r0, r0, r6
 581:Drivers/STM32F1xx_HAL_Driver/Src/stm32f1xx_hal_rcc.c ****         {
 912              		.loc 1 581 12 view .LVU286
 913 02fa 41F28833 		movw	r3, #5000
 914 02fe 9842     		cmp	r0, r3
 915 0300 F3D9     		bls	.L71
 583:Drivers/STM32F1xx_HAL_Driver/Src/stm32f1xx_hal_rcc.c ****         }
 916              		.loc 1 583 18 view .LVU287
 917 0302 0320     		movs	r0, #3
 918 0304 77E0     		b	.L30
 919              	.L70:
 589:Drivers/STM32F1xx_HAL_Driver/Src/stm32f1xx_hal_rcc.c ****     {
 920              		.loc 1 589 5 is_stmt 1 view .LVU288
ARM GAS  C:\Users\shado\AppData\Local\Temp\ccoIiB4i.s 			page 46


 589:Drivers/STM32F1xx_HAL_Driver/Src/stm32f1xx_hal_rcc.c ****     {
 921              		.loc 1 589 8 is_stmt 0 view .LVU289
 922 0306 E5B9     		cbnz	r5, .L116
 923              	.LVL65:
 924              	.L58:
 589:Drivers/STM32F1xx_HAL_Driver/Src/stm32f1xx_hal_rcc.c ****     {
 925              		.loc 1 589 8 view .LVU290
 926              	.LBE4:
 687:Drivers/STM32F1xx_HAL_Driver/Src/stm32f1xx_hal_rcc.c ****   if ((RCC_OscInitStruct->PLL.PLLState) != RCC_PLL_NONE)
 927              		.loc 1 687 3 is_stmt 1 view .LVU291
 688:Drivers/STM32F1xx_HAL_Driver/Src/stm32f1xx_hal_rcc.c ****   {
 928              		.loc 1 688 3 view .LVU292
 688:Drivers/STM32F1xx_HAL_Driver/Src/stm32f1xx_hal_rcc.c ****   {
 929              		.loc 1 688 30 is_stmt 0 view .LVU293
 930 0308 E369     		ldr	r3, [r4, #28]
 688:Drivers/STM32F1xx_HAL_Driver/Src/stm32f1xx_hal_rcc.c ****   {
 931              		.loc 1 688 6 view .LVU294
 932 030a 002B     		cmp	r3, #0
 933 030c 72D0     		beq	.L95
 691:Drivers/STM32F1xx_HAL_Driver/Src/stm32f1xx_hal_rcc.c ****     {
 934              		.loc 1 691 5 is_stmt 1 view .LVU295
 691:Drivers/STM32F1xx_HAL_Driver/Src/stm32f1xx_hal_rcc.c ****     {
 935              		.loc 1 691 9 is_stmt 0 view .LVU296
 936 030e 3E4A     		ldr	r2, .L124
 937 0310 5268     		ldr	r2, [r2, #4]
 938 0312 02F00C02 		and	r2, r2, #12
 691:Drivers/STM32F1xx_HAL_Driver/Src/stm32f1xx_hal_rcc.c ****     {
 939              		.loc 1 691 8 view .LVU297
 940 0316 082A     		cmp	r2, #8
 941 0318 56D0     		beq	.L73
 693:Drivers/STM32F1xx_HAL_Driver/Src/stm32f1xx_hal_rcc.c ****       {
 942              		.loc 1 693 7 is_stmt 1 view .LVU298
 693:Drivers/STM32F1xx_HAL_Driver/Src/stm32f1xx_hal_rcc.c ****       {
 943              		.loc 1 693 10 is_stmt 0 view .LVU299
 944 031a 022B     		cmp	r3, #2
 945 031c 17D0     		beq	.L117
 752:Drivers/STM32F1xx_HAL_Driver/Src/stm32f1xx_hal_rcc.c **** 
 946              		.loc 1 752 9 is_stmt 1 view .LVU300
 947 031e 3B4B     		ldr	r3, .L124+4
 948 0320 0022     		movs	r2, #0
 949 0322 1A66     		str	r2, [r3, #96]
 755:Drivers/STM32F1xx_HAL_Driver/Src/stm32f1xx_hal_rcc.c **** 
 950              		.loc 1 755 9 view .LVU301
 755:Drivers/STM32F1xx_HAL_Driver/Src/stm32f1xx_hal_rcc.c **** 
 951              		.loc 1 755 21 is_stmt 0 view .LVU302
 952 0324 FFF7FEFF 		bl	HAL_GetTick
 953              	.LVL66:
 954 0328 0446     		mov	r4, r0
 955              	.LVL67:
 758:Drivers/STM32F1xx_HAL_Driver/Src/stm32f1xx_hal_rcc.c ****         {
 956              		.loc 1 758 9 is_stmt 1 view .LVU303
 957              	.L80:
 758:Drivers/STM32F1xx_HAL_Driver/Src/stm32f1xx_hal_rcc.c ****         {
 958              		.loc 1 758 15 view .LVU304
 758:Drivers/STM32F1xx_HAL_Driver/Src/stm32f1xx_hal_rcc.c ****         {
 959              		.loc 1 758 16 is_stmt 0 view .LVU305
 960 032a 374B     		ldr	r3, .L124
ARM GAS  C:\Users\shado\AppData\Local\Temp\ccoIiB4i.s 			page 47


 961 032c 1B68     		ldr	r3, [r3]
 758:Drivers/STM32F1xx_HAL_Driver/Src/stm32f1xx_hal_rcc.c ****         {
 962              		.loc 1 758 15 view .LVU306
 963 032e 13F0007F 		tst	r3, #33554432
 964 0332 47D0     		beq	.L118
 760:Drivers/STM32F1xx_HAL_Driver/Src/stm32f1xx_hal_rcc.c ****           {
 965              		.loc 1 760 11 is_stmt 1 view .LVU307
 760:Drivers/STM32F1xx_HAL_Driver/Src/stm32f1xx_hal_rcc.c ****           {
 966              		.loc 1 760 16 is_stmt 0 view .LVU308
 967 0334 FFF7FEFF 		bl	HAL_GetTick
 968              	.LVL68:
 760:Drivers/STM32F1xx_HAL_Driver/Src/stm32f1xx_hal_rcc.c ****           {
 969              		.loc 1 760 30 view .LVU309
 970 0338 001B     		subs	r0, r0, r4
 760:Drivers/STM32F1xx_HAL_Driver/Src/stm32f1xx_hal_rcc.c ****           {
 971              		.loc 1 760 14 view .LVU310
 972 033a 0228     		cmp	r0, #2
 973 033c F5D9     		bls	.L80
 762:Drivers/STM32F1xx_HAL_Driver/Src/stm32f1xx_hal_rcc.c ****           }
 974              		.loc 1 762 20 view .LVU311
 975 033e 0320     		movs	r0, #3
 976 0340 59E0     		b	.L30
 977              	.LVL69:
 978              	.L116:
 979              	.LBB5:
 591:Drivers/STM32F1xx_HAL_Driver/Src/stm32f1xx_hal_rcc.c ****     }
 980              		.loc 1 591 7 is_stmt 1 view .LVU312
 981 0342 314A     		ldr	r2, .L124
 982 0344 D369     		ldr	r3, [r2, #28]
 983 0346 23F08053 		bic	r3, r3, #268435456
 984 034a D361     		str	r3, [r2, #28]
 985 034c DCE7     		b	.L58
 986              	.LVL70:
 987              	.L117:
 591:Drivers/STM32F1xx_HAL_Driver/Src/stm32f1xx_hal_rcc.c ****     }
 988              		.loc 1 591 7 is_stmt 0 view .LVU313
 989              	.LBE5:
 696:Drivers/STM32F1xx_HAL_Driver/Src/stm32f1xx_hal_rcc.c ****         assert_param(IS_RCC_PLL_MUL(RCC_OscInitStruct->PLL.PLLMUL));
 990              		.loc 1 696 9 is_stmt 1 view .LVU314
 697:Drivers/STM32F1xx_HAL_Driver/Src/stm32f1xx_hal_rcc.c **** 
 991              		.loc 1 697 9 view .LVU315
 700:Drivers/STM32F1xx_HAL_Driver/Src/stm32f1xx_hal_rcc.c **** 
 992              		.loc 1 700 9 view .LVU316
 993 034e 2F4B     		ldr	r3, .L124+4
 994 0350 0022     		movs	r2, #0
 995 0352 1A66     		str	r2, [r3, #96]
 703:Drivers/STM32F1xx_HAL_Driver/Src/stm32f1xx_hal_rcc.c **** 
 996              		.loc 1 703 9 view .LVU317
 703:Drivers/STM32F1xx_HAL_Driver/Src/stm32f1xx_hal_rcc.c **** 
 997              		.loc 1 703 21 is_stmt 0 view .LVU318
 998 0354 FFF7FEFF 		bl	HAL_GetTick
 999              	.LVL71:
 1000 0358 0546     		mov	r5, r0
 1001              	.LVL72:
 706:Drivers/STM32F1xx_HAL_Driver/Src/stm32f1xx_hal_rcc.c ****         {
 1002              		.loc 1 706 9 is_stmt 1 view .LVU319
 1003              	.L75:
ARM GAS  C:\Users\shado\AppData\Local\Temp\ccoIiB4i.s 			page 48


 706:Drivers/STM32F1xx_HAL_Driver/Src/stm32f1xx_hal_rcc.c ****         {
 1004              		.loc 1 706 15 view .LVU320
 706:Drivers/STM32F1xx_HAL_Driver/Src/stm32f1xx_hal_rcc.c ****         {
 1005              		.loc 1 706 16 is_stmt 0 view .LVU321
