:020000040800F2
:100000007006002089010008150F00087D0E000809
:10001000110F00088F020008BF0F00080000000049
:10002000000000000000000000000000490F000870
:1000300093020008000000001D0F00084B0F00088D
:10004000A3010008A3010008A3010008A301000800
:10005000A3010008A3010008A3010008A3010008F0
:10006000A3010008A3010008A3010008A3010008E0
:10007000A3010008A3010008A3010008A3010008D0
:10008000A3010008A3010008A3010008A3010008C0
:10009000A3010008A3010008A3010008A3010008B0
:1000A000A3010008A3010008A3010008A3010008A0
:1000B000A3010008A3010008A3010008A301000890
:1000C000A3010008A3010008A3010008A301000880
:1000D000A3010008A3010008A3010008A301000870
:1000E000A3010008A3010008A301000800F002F822
:1000F00000F03AF80AA090E8000C82448344AAF188
:100100000107DA4501D100F02FF8AFF2090EBAE885
:100110000F0013F0010F18BFFB1A43F0010318473B
:100120001C0F00003C0F0000103A24BF78C878C1B3
:10013000FAD8520724BF30C830C144BF04680C60ED
:10014000704700000023002400250026103A28BF35
:1001500078C1FBD8520728BF30C148BF0B60704739
:100160001FB51FBD10B510BD00F058F81146FFF7C0
:10017000F7FF00F043FF00F076F803B4FFF7F2FF5B
:1001800003BC00F07DF8000009488047094800479B
:10019000FEE7FEE7FEE7FEE7FEE7FEE7FEE7FEE737
:1001A000FEE7FEE704480549054A064B7047000094
:1001B000BD0F0008ED000008700000207006002050
:1001C00070020020700200204FF0000200B51346BC
:1001D00094469646203922BFA0E80C50A0E80C5067
:1001E000B1F12001BFF4F7AF090728BFA0E80C5018
:1001F00048BF0CC05DF804EB890028BF40F8042B11
:1002000008BF704748BF20F8022B11F0804F18BF7D
:1002100000F8012B7047704770477047754600F033
:100220002BF8AE4605006946534620F00700854688
:1002300018B020B5FFF7B6FFBDE820404FF000062C
:100240004FF000074FF000084FF0000B21F00701BE
:10025000AC46ACE8C009ACE8C009ACE8C009ACE801
:10026000C0098D46704710B50446AFF300802046A4
:10027000BDE81040FFF781BF004870471000002024
:1002800001491820ABBEFEE726000200704700BF00
:10029000FEE7704772B600BFFEE7000070B5044687
:1002A00000F0B0F906462546681C10B104480078F5
:1002B000054400BF00F0A6F9801BA842FAD370BD28
:1002C000080000202DE9F8470346002294466EE11D
:1002D0004FF0010808FA02F4D1F8008008EA04009F
:1002E000A0427DD1DFF8DCA2D1F80480A8EB0A0996
:1002F000D0453AD014DCB8F1030F50D009DCB8F186
:10030000000F31D0B8F1010F1CD0B8F1020F49D164
:1003100020E0B8F1110F18D0B8F1120F42D11EE051
:10032000B9F5881F25D006DCB9F5803F20D0B9F596
:10033000801F37D11AE0B9F5001F18D0B9F5041F96
:1003400030D117E0D1F80CC02DE0D1F80C8008F1C5
:10035000040C28E0D1F80C8008F1080C23E0D1F857
:100360000C8008F10C0C1EE000BF00BF00BF00BFF6
:1003700000BF00BFD1F80880B8F1000F02D14FF0E4
:10038000040C0BE0D1F80880B8F1010F03D14FF055
:10039000080C1C6102E04FF0080C5C6103E04FF0B8
:1003A000000C00E000BF00BFFF2801D8984601E024
:1003B00003F104084646FF2802D84FEA820803E00A
:1003C000A2F108084FEA88084746D6F800804FF0A7
:1003D0000F0909FA07F928EA09080CFA07F900E0F9
:1003E00088E048EA0908C6F80080D1F8048008F0DF
:1003F0008058B8F1805F7DD100BFDFF8CC81D8F89C
:10040000188048F00108DFF8C091C9F81880C84684
:10041000D8F8188008F00108CDF8008000BF00BFB0
:100420004FEAB9384FEA920958F829504FEA8278D2
:100430004FEA18794FF00F0808FA09F825EA08057D
:10044000DFF88881434502D14FF0000816E0DFF85D
:100450008081434502D14FF001080FE0DFF874813D
:10046000434502D14FF0020808E0DFF86C814345B4
:1004700002D14FF0030801E04FF004084FEA8279FF
:100480004FEA197908FA09F848EA0505DFF84C81BE
:100490004FEA920948F82950D1F8048008F48038CE
:1004A000B8F5803F0AD1DFF83881D8F8008048EAF3
:1004B0000008DFF82C91C9F8008009E0DFF82081FE
:1004C000D8F8008028EA0008DFF81491C9F8008005
:1004D000D1F8048008F40038B8F5003F10D1DFF8F7
:1004E000008108F10408D8F8008048EA0008DFF825
:1004F000F09000E05AE009F10409C9F800800DE02D
:10050000DFF8DC8008F10408D8F8008028EA000849
:10051000DFF8CC9009F10409C9F80080D1F8048013
:1005200008F48018B8F5801F0ED1DFF8B48008F108
:100530000808D8F8008048EA0008DFF8A49009F11C
:100540000809C9F800800DE0DFF8948008F1080878
:10055000D8F8008028EA0008DFF8849009F108093B
:10056000C9F80080D1F8048008F40018B8F5001F1D
:100570000ED1DFF86C8008F10C08D8F8008048EA4A
:100580000008DFF85C9009F10C09C9F800800DE063
:10059000DFF84C8008F10C08D8F8008028EA000841
:1005A000DFF83C9009F10C09C9F80080521CD1F821
:1005B000008028FA02F8B8F1000F7FF489AEBDE898
:1005C000F8870000000011100010024000080140F0
:1005D000000C0140001001400014014008000140DF
:1005E0000004014010B5C26821EA020302EA0104D6
:1005F00043EA0443036110BD0AB1016101E00B0449
:100600000361704701480068704700000000002047
:1006100003480068034909780844014908607047A5
:10062000000000200800002010B50848006840F0D5
:10063000100006490860032000F098F80F2000F031
:1006400007F800F02BF8002010BD00000020024049
:1006500070B504460E4800784FF47A71B1FBF0F0A3
:100660000C490968B1FBF0F5284600F0EDFB08B134
:10067000012070BD102C07D200222146501E00F030
:1006800037F80548046001E00120F2E70020F0E7B8
:10069000080000200C0000200400002008B500BF66
:1006A0001148806940F001000F498861084680695F
:1006B00000F00100009000BF00BF00BF0846C06905
:1006C00040F08050C8610846C06900F0805000903A
:1006D00000BF00BF00BF0549486820F0E06040F05F
:1006E0000070486000BF08BD0010024000000140DB
:1006F0002DE9F05F80460D461646002700F062FCAB
:10070000074639462A46334601F00700C0F1070A7A
:10071000BAF1040F02D94FF0040A01E0C0F1070A50
:10072000D14600F1040ABAF1070F02D24FF0000AD5
:1007300001E0A0F1030AD4464FF0010A0AFA09FACF
:10074000AAF1010A0AEA020A0AFA0CFA4FF0010BAE
:100750000BFA0CFBABF1010B0BEA030B4AEA0B049F
:100760002146404600F036FCBDE8F09F00BF00F097
:100770000702064B19684FF6FF031940044B0B4361
:1007800043EA0221014B196000BF70470CED00E005
:100790000000FA057047000070B504460D460CB91C
:1007A000012070BD5A48006800F00700A8420ED230
:1007B0005748006820F0070028435549086008465C
:1007C000006800F00700A84201D00120E9E7207886
:1007D00000F0020002281DD1207800F00400042857
:1007E00005D14C48406840F4E0604A4948602078B0
:1007F00000F00800082805D14648406840F46050E1
:10080000444948604348406820F0F000A16808432C
:1008100040494860207800F0010078B36068012802
:1008200006D13C48006800F4003090B90120B8E7D8
:100830006068022806D13748006800F0007040B9AF
:100840000120AEE73348006800F0020008B901203B
:10085000A7E73048406820F00300616808432D494D
:100860004860FFF7CFFE064609E0FFF7CBFE801B8E
:1008700041F28831884202D9032092E707E02548F7
:10088000406800F00C006168B0EB810FEDD12048AA
:10089000006800F00700A8420ED91D48006820F04B
:1008A000070028431A4908600846006800F007005E
:1008B000A84201D0012074E7207800F00400042849
:1008C00007D11448406820F4E060E168084311490A
:1008D0004860207800F00800082808D10D484068DA
:1008E00020F46050216940EAC1000A49486000F0E4
:1008F0001FF808494968C1F30311074A515CC84011
:100900000649086006480068FFF7A2FE002048E795
:100910000020024000100240241000080C000020BB
:100920000400002001200149C864704700004242D1
:10093000F0B585B00FF26C0C9CE8E01001A8A0E8BF
:10094000E0101CA52D680095002100220023002442
:100950000020194D696801F00C05F5B1042D02D095
:10096000082D19D101E0154819E001ADC1F3834606
:10097000AC5D01F4803555B10F4D6D68C5F3404550
:100980001DF805200D4D6543B5FBF2F302E00C4D5B
:1009900004FB05F3184602E000BF084800BF00BF93
:1009A00005B0F0BD02030405060708090A0B0C0D8B
:1009B0000E0F1010010200000010024000127A0019
:1009C00000093D0010B50648806800F080008028CE
:1009D00004D1FFF7DFFE80200149887210BD0000BE
:1009E00000100240F8B504460CB90120F8BD20788B
:1009F00000F00100002878D0F848406800F00C00B2
:100A000004280CD0F548406800F00C00082811D1EB
:100A1000F248406800F48030B0F5803F0AD1EF48DA
:100A2000006800F4003000285FD0606800285CD1C6
:100A30000120DBE700BF6068B0F5803F06D1E748E2
:100A4000006840F48030E549086028E0606858B9E3
:100A5000E248006820F48030E049086008460068F9
:100A600020F4802008601AE06068B0F5A02F0BD158
:100A7000DA48006840F48020D849086008460068D9
:100A800040F4803008600AE0D448006820F48030E8
:100A9000D24908600846006820F48020086000BF42
:100AA000606888B1FFF7AEFD054606E0FFF7AAFDD6
:100AB000401B642801D9032098E7C848006800F467
:100AC00000300028F2D010E0FFF79CFD054606E05C
:100AD000FFF798FD401B642801D9032086E7BF4833
:100AE000006800F400300028F2D1207800F0020005
:100AF000022857D1B948406800F00C0050B1B748FF
:100B0000406800F00C00082818D1B448406800F490
:100B1000803098B9B148006800F0020020B1206927
:100B2000012801D0012061E7AC48006820F0F800FE
:100B3000616940EAC100A949086033E02069E8B171
:100B40000120A7490860FFF75DFD054606E0FFF7B5
:100B500059FD401B022801D9032047E79F48006840
:100B600000F002000028F2D09C48006820F0F80055
:100B7000616940EAC1009949086013E00020984982
:100B80000860FFF73FFD054606E0FFF73BFD401B11
:100B9000022801D9032029E79048006800F00200EC
:100BA0000028F2D1207800F0080008282DD1A06993
:100BB000B8B101208B490860FFF724FD054606E027
:100BC000FFF720FD401B022801D903200EE78348D0
:100BD000406A00F002000028F2D0012000F0A0F9E5
:100BE00013E000207F490860FFF70CFD054606E092
:100BF000FFF708FD401B022801D90320F6E67748DD
:100C0000406A00F002000028F2D1207800F00400D1
:100C1000042873D100277148C06900F0805070B972
:100C200000BF6E48C06940F080506C49C8610846FA
:100C3000C06900F08050009000BF00BF01276A48E3
:100C4000006800F48070B0B96748006840F48070B4
:100C500065490860FFF7D6FC054606E0FFF7D2FCC1
:100C6000401B642801D90320C0E65F48006800F4F7
:100C700080700028F2D000BFE068012806D15748F4
:100C8000006A40F001005549086227E0E06858B961
:100C90005248006A20F00100504908620846006A84
:100CA00020F00400086219E0E06805280BD14B48E9
:100CB000006A40F00400494908620846006A40F0B2
:100CC000010008620AE04548006A20F0010043493B
:100CD00008620846006A20F00400086200BFE0686D
:100CE000A0B1FFF78FFC054609E0FFF78BFC401B26
:100CF00041F28831884202D9032077E622E0374862
:100D0000006A00F002000028EFD012E0FFF77AFC42
:100D1000054608E0FFF776FC401B41F28831884227
:100D200001D9032062E62D48006A00F00200002885
:100D3000F0D1012F05D12948C06920F08050274902
:100D4000C86100BFE069C8B32448406800F00C00E7
:100D5000082860D0E069022848D1002020490866B0
:100D6000FFF750FC054606E0FFF74CFC401B02284D
:100D700001D903203AE61948006800F00070002805
:100D8000F2D1206AB0F5803F07D11448406820F4C2
:100D90000030A168084311494860D4E908010843BC
:100DA0000E49496821F4741108430C494860012038
:100DB0000B490866FFF726FC054607E03DE0FFF714
:100DC00021FC401B022801D903200FE603480068DC
:100DD00000F000700028F2D02FE000000010024068
:100DE000000042428004424200700040002014494A
:100DF0000866FFF707FC054606E0FFF703FC401B0B
:100E0000022801D90320F1E50E48006800F00070C7
:100E10000028F2D111E0E069012800D1E6E5094897
:100E2000466806F48031206A814204D106F47011CC
:100E3000606A814201D00120D8E50020D6E500009B
:100E4000000042420010024070B504462546681E6C
:100E5000B0F1807F01D301200FE0681E4FF0E02148
:100E600048610F214FF0FF3000F0B4F800204FF040
:100E7000E021886107200861002070BD00BFFEE707
:100E800000B585B00020019002900390049000BF4F
:100E90001D48806940F010001B4988610846806940
:100EA00000F01000009000BF00BF00BF084680693E
:100EB00040F0200088610846806900F02000009022
:100EC00000BF00BF00BF0846806940F00400886191
:100ED0000846806900F00400009000BF00BF0122B6
:100EE00051030A48FFF788FB4FF40050019001209E
:100EF0000290002003900320049001A90348FFF70B
:100F0000E1F905B000BD00000010024000100140F2
:100F100000BFFEE7FFF756FD00BFFEE77047000089
:100F200008B508490968C9084FF47A72B1FBF2F1B3
:100F30004143009100BF00BF00994A1E0092002962
:100F4000F9D108BD0C000020704710B5FFF760FB19
:100F500010BD00B58FB0282105A8FFF735F9142181
:100F60006846FFF731F90120059000040690002043
:100F700007900120099002200C90C1030D914FF4BD
:100F8000E0110E9105A8FFF72DFD08B1FFF782F9DA
:100F90000F20009002200190002002904FF480600A
:100FA00003900020049002216846FFF7F5FB08B18A
:100FB000FFF770F9FFF7B6FC0FB000BD704700BF38
:100FC000FEE7000002480068C0F3022070470000FE
:100FD0000CED00E010B5002804DB0A07130E054AEB
:100FE000135406E00A07140E034A00F00F031B1FF8
:100FF000D45410BD00E400E018ED00E0FFF714FB4E
:10100000FFF7A7FFFFF73CFF08E04FF4FA70FFF788
:1010100045F94FF400510248FFF7E4FAF5E7000004
:101020000010014000000000000000000102030465
:101030000607080900000000010203045C10000814
:101040000000002010000000280100086C100008BB
:1010500010000020600600004401000800000000AD
:0C10600010000000010000000024F4005B
:04000005080000ED02
:00000001FF
